{"project/contracts/MultiSigWallet.sol":{"MultiSigWallet":{"abi":[{"inputs":[{"internalType":"address[]","name":"_owners","type":"address[]"},{"internalType":"uint256","name":"_numConfirmationsRequired","type":"uint256"}],"stateMutability":"nonpayable","type":"constructor"},{"inputs":[],"name":"ReentrancyGuardReentrantCall","type":"error"},{"anonymous":false,"inputs":[{"indexed":true,"internalType":"uint256","name":"txIndex","type":"uint256"},{"indexed":true,"internalType":"address","name":"confirmer","type":"address"},{"indexed":false,"internalType":"uint256","name":"confirmationCount","type":"uint256"}],"name":"ConfirmTransaction","type":"event"},{"anonymous":false,"inputs":[{"indexed":true,"internalType":"address","name":"sender","type":"address"},{"indexed":false,"internalType":"uint256","name":"amount","type":"uint256"},{"indexed":false,"internalType":"uint256","name":"balance","type":"uint256"}],"name":"Deposit","type":"event"},{"anonymous":false,"inputs":[{"indexed":true,"internalType":"uint256","name":"txIndex","type":"uint256"},{"indexed":true,"internalType":"address","name":"executor","type":"address"}],"name":"ExecuteTransaction","type":"event"},{"anonymous":false,"inputs":[{"indexed":true,"internalType":"address","name":"owner","type":"address"}],"name":"OwnerAddition","type":"event"},{"anonymous":false,"inputs":[{"indexed":true,"internalType":"address","name":"owner","type":"address"}],"name":"OwnerRemoval","type":"event"},{"anonymous":false,"inputs":[{"indexed":false,"internalType":"uint256","name":"required","type":"uint256"}],"name":"RequirementChange","type":"event"},{"anonymous":false,"inputs":[{"indexed":true,"internalType":"uint256","name":"txIndex","type":"uint256"},{"indexed":true,"internalType":"address","name":"revoker","type":"address"}],"name":"RevokeConfirmation","type":"event"},{"anonymous":false,"inputs":[{"indexed":true,"internalType":"uint256","name":"txIndex","type":"uint256"},{"indexed":true,"internalType":"address","name":"submitter","type":"address"},{"indexed":true,"internalType":"address","name":"to","type":"address"},{"indexed":false,"internalType":"uint256","name":"value","type":"uint256"},{"indexed":false,"internalType":"bytes","name":"data","type":"bytes"}],"name":"SubmitTransaction","type":"event"},{"inputs":[{"internalType":"address","name":"owner","type":"address"}],"name":"addOwner","outputs":[],"stateMutability":"nonpayable","type":"function"},{"inputs":[{"internalType":"uint256","name":"_required","type":"uint256"}],"name":"changeRequirement","outputs":[],"stateMutability":"nonpayable","type":"function"},{"inputs":[{"internalType":"uint256","name":"_txIndex","type":"uint256"}],"name":"confirmTransaction","outputs":[],"stateMutability":"nonpayable","type":"function"},{"inputs":[{"internalType":"uint256","name":"","type":"uint256"},{"internalType":"address","name":"","type":"address"}],"name":"confirmed","outputs":[{"internalType":"bool","name":"","type":"bool"}],"stateMutability":"view","type":"function"},{"inputs":[{"internalType":"uint256","name":"_txIndex","type":"uint256"}],"name":"executeTransaction","outputs":[],"stateMutability":"nonpayable","type":"function"},{"inputs":[],"name":"getBalance","outputs":[{"internalType":"uint256","name":"","type":"uint256"}],"stateMutability":"view","type":"function"},{"inputs":[{"internalType":"uint256","name":"_txIndex","type":"uint256"},{"internalType":"address","name":"_owner","type":"address"}],"name":"getConfirmationStatus","outputs":[{"internalType":"bool","name":"","type":"bool"}],"stateMutability":"view","type":"function"},{"inputs":[],"name":"getOwners","outputs":[{"internalType":"address[]","name":"","type":"address[]"}],"stateMutability":"view","type":"function"},{"inputs":[{"internalType":"uint256","name":"_txIndex","type":"uint256"}],"name":"getTransaction","outputs":[{"internalType":"address","name":"to","type":"address"},{"internalType":"uint256","name":"value","type":"uint256"},{"internalType":"bytes","name":"data","type":"bytes"},{"internalType":"bool","name":"executed","type":"bool"},{"internalType":"uint256","name":"numConfirmations","type":"uint256"}],"stateMutability":"view","type":"function"},{"inputs":[],"name":"getTransactionCount","outputs":[{"internalType":"uint256","name":"","type":"uint256"}],"stateMutability":"view","type":"function"},{"inputs":[{"internalType":"uint256","name":"_txIndex","type":"uint256"}],"name":"isConfirmed","outputs":[{"internalType":"bool","name":"","type":"bool"}],"stateMutability":"view","type":"function"},{"inputs":[{"internalType":"address","name":"","type":"address"}],"name":"isOwner","outputs":[{"internalType":"bool","name":"","type":"bool"}],"stateMutability":"view","type":"function"},{"inputs":[],"name":"numConfirmationsRequired","outputs":[{"internalType":"uint256","name":"","type":"uint256"}],"stateMutability":"view","type":"function"},{"inputs":[{"internalType":"uint256","name":"","type":"uint256"}],"name":"owners","outputs":[{"internalType":"address","name":"","type":"address"}],"stateMutability":"view","type":"function"},{"inputs":[{"internalType":"address","name":"owner","type":"address"}],"name":"removeOwner","outputs":[],"stateMutability":"nonpayable","type":"function"},{"inputs":[{"internalType":"address","name":"owner","type":"address"},{"internalType":"address","name":"newOwner","type":"address"}],"name":"replaceOwner","outputs":[],"stateMutability":"nonpayable","type":"function"},{"inputs":[{"internalType":"uint256","name":"_txIndex","type":"uint256"}],"name":"revokeConfirmation","outputs":[],"stateMutability":"nonpayable","type":"function"},{"inputs":[{"internalType":"address","name":"_to","type":"address"},{"internalType":"uint256","name":"_value","type":"uint256"},{"internalType":"bytes","name":"_data","type":"bytes"}],"name":"submitTransaction","outputs":[{"internalType":"uint256","name":"txIndex","type":"uint256"}],"stateMutability":"nonpayable","type":"function"},{"stateMutability":"payable","type":"receive"}],"evm":{"bytecode":{"linkReferences":{},"object":"608060405234801562000010575f80fd5b506040516200201a3803806200201a833981016040819052620000339162000314565b60017f9b779b17422d0df92223018b32b4d1fa46e071723d6817e2486d003becc55f00558151620000b95760405162461bcd60e51b815260206004820152602560248201527f4d756c746953696757616c6c65743a20656e20617a203120736168697020676560448201526472656b6c6960d81b60648201526084015b60405180910390fd5b5f81118015620000ca575081518111155b8015620000e457508151620000e1826002620003fd565b10155b620001585760405162461bcd60e51b815260206004820152603960248201527f4d756c746953696757616c6c65743a20676563657273697a204d20766579612060448201527f4e2064656765726920284d203e3d204e2f3220736172746929000000000000006064820152608401620000b0565b5f5b8251811015620002d9575f8382815181106200017a576200017a6200041d565b602002602001015190505f6001600160a01b0316816001600160a01b031603620001e75760405162461bcd60e51b815260206004820152601b60248201527f4d756c746953696757616c6c65743a20736966697220616472657300000000006044820152606401620000b0565b6001600160a01b0381165f9081526020819052604090205460ff1615620002645760405162461bcd60e51b815260206004820152602a60248201527f4d756c746953696757616c6c65743a207361686970206164726573692074656b6044820152693930b93630b730b6b0bd60b11b6064820152608401620000b0565b6001600160a01b03165f818152602081905260408120805460ff191660019081179091558054808201825591527fb10e2d527612073b26eecdfd717e6a320cf44b4afac2b0732d9fcbe2b7fa0cf60180546001600160a01b031916909117905580620002d08162000431565b9150506200015a565b50600255506200044c565b634e487b7160e01b5f52604160045260245ffd5b80516001600160a01b03811681146200030f575f80fd5b919050565b5f806040838503121562000326575f80fd5b82516001600160401b03808211156200033d575f80fd5b818501915085601f83011262000351575f80fd5b8151602082821115620003685762000368620002e4565b8160051b604051601f19603f83011681018181108682111715620003905762000390620002e4565b604052928352818301935084810182019289841115620003ae575f80fd5b948201945b83861015620003d757620003c786620002f8565b85529482019493820193620003b3565b97909101519698969750505050505050565b634e487b7160e01b5f52601160045260245ffd5b8082028115828204841417620004175762000417620003e9565b92915050565b634e487b7160e01b5f52603260045260245ffd5b5f60018201620004455762000445620003e9565b5060010190565b611bc0806200045a5f395ff3fe608060405260043610610108575f3560e01c806378810a3b11610092578063c01a8c8411610062578063c01a8c841461033d578063c64274741461035c578063d0549b851461037b578063e20056e614610390578063ee22610b146103af575f80fd5b806378810a3b146102a55780638790c1de146102c4578063a0e67e2b146102fd578063ba51a6df1461031e575f80fd5b80632e7700f0116100d85780632e7700f0146101e55780632f54bf6e146101f957806333ea3dc8146102375780637065cb4814610267578063784547a714610286575f80fd5b8063025e7c271461014d57806312065fe014610189578063173825d9146101a557806320ea8d86146101c6575f80fd5b36610149576040805134815247602082015233917f90890809c654f11d6e72a28fa60149770a0d11ec6c92319d6ceb2bb0a4ea1a15910160405180910390a2005b5f80fd5b348015610158575f80fd5b5061016c610167366004611551565b6103ce565b6040516001600160a01b0390911681526020015b60405180910390f35b348015610194575f80fd5b50475b604051908152602001610180565b3480156101b0575f80fd5b506101c46101bf366004611583565b6103f6565b005b3480156101d1575f80fd5b506101c46101e0366004611551565b6105ff565b3480156101f0575f80fd5b50600354610197565b348015610204575f80fd5b50610227610213366004611583565b5f6020819052908152604090205460ff1681565b6040519015158152602001610180565b348015610242575f80fd5b50610256610251366004611551565b610799565b6040516101809594939291906115df565b348015610272575f80fd5b506101c4610281366004611583565b6108b4565b348015610291575f80fd5b506102276102a0366004611551565b610a76565b3480156102b0575f80fd5b506102276102bf366004611619565b610acc565b3480156102cf575f80fd5b506102276102de366004611619565b600460209081525f928352604080842090915290825290205460ff1681565b348015610308575f80fd5b50610311610b1d565b6040516101809190611643565b348015610329575f80fd5b506101c4610338366004611551565b610b7d565b348015610348575f80fd5b506101c4610357366004611551565b610c29565b348015610367575f80fd5b506101976103763660046116a3565b610e20565b348015610386575f80fd5b5061019760025481565b34801561039b575f80fd5b506101c46103aa366004611767565b610ee1565b3480156103ba575f80fd5b506101c46103c9366004611551565b611153565b600181815481106103dd575f80fd5b5f918252602090912001546001600160a01b0316905081565b33301461041e5760405162461bcd60e51b81526004016104159061178f565b60405180910390fd5b6001600160a01b0381165f90815260208190526040902054819060ff166104875760405162461bcd60e51b815260206004820152601e60248201527f4f776e65724d616e616765723a2073616869702062756c756e616d61646900006044820152606401610415565b6001600160a01b0382165f908152602081905260408120805460ff191690555b600180546104b591906117eb565b81101561057e57826001600160a01b0316600182815481106104d9576104d9611804565b5f918252602090912001546001600160a01b03160361056c57600180546105019082906117eb565b8154811061051157610511611804565b5f91825260209091200154600180546001600160a01b03909216918390811061053c5761053c611804565b905f5260205f20015f6101000a8154816001600160a01b0302191690836001600160a01b0316021790555061057e565b8061057681611818565b9150506104a7565b50600180548061059057610590611830565b5f8281526020902081015f1990810180546001600160a01b031916905501905560015460025411156105c8576001546105c890610b7d565b6040516001600160a01b038316907f8001553a916ef2f495d26a907cc54d96ed840d7bda71e73194bf5a9df7a76b90905f90a25050565b600354819081106106225760405162461bcd60e51b815260040161041590611844565b816003818154811061063657610636611804565b5f91825260209091206003600590920201015460ff16156106695760405162461bcd60e51b815260040161041590611888565b5f838152600460209081526040808320338452909152902054839060ff166106df5760405162461bcd60e51b815260206004820152602360248201527f5472616e73616374696f6e4d616e616765723a206f6e61792062756c756e616d60448201526261646960e81b6064820152608401610415565b335f9081526020819052604090205460ff1661070d5760405162461bcd60e51b8152600401610415906118d1565b5f8481526004602090815260408083203384529091529020805460ff1916905560038054600191908690811061074557610745611804565b905f5260205f2090600502016004015f82825461076291906117eb565b9091555050604051339085907f7f8ce8e4f5a5b480ff78c18404639350996fd63efc83ace55b1d6a3e12158e24905f90a350505050565b5f8060605f808560038054905081106107c45760405162461bcd60e51b815260040161041590611844565b5f600388815481106107d8576107d8611804565b5f918252602090912060059091020180546001820154600383015460048401546002850180549596506001600160a01b039094169492939260ff90921691839061082190611915565b80601f016020809104026020016040519081016040528092919081815260200182805461084d90611915565b80156108985780601f1061086f57610100808354040283529160200191610898565b820191905f5260205f20905b81548152906001019060200180831161087b57829003601f168201915b5050505050925096509650965096509650505091939590929450565b3330146108d35760405162461bcd60e51b81526004016104159061178f565b6001600160a01b0381165f90815260208190526040902054819060ff16156109395760405162461bcd60e51b815260206004820152601960248201527804f776e65724d616e616765723a207a6174656e20736168697603c1b6044820152606401610415565b816001600160a01b03811661098c5760405162461bcd60e51b81526020600482015260196024820152784f776e65724d616e616765723a20736966697220616472657360381b6044820152606401610415565b6001805461099991611947565b60025480158015906109aa57508115155b80156109b65750818111155b80156109cc5750816109c982600261195a565b10155b6109e85760405162461bcd60e51b815260040161041590611971565b6001600160a01b0385165f81815260208190526040808220805460ff19166001908117909155805480820182559083527fb10e2d527612073b26eecdfd717e6a320cf44b4afac2b0732d9fcbe2b7fa0cf60180546001600160a01b03191684179055517ff39e6e1eb0edcf53c221607b54b00cd28f3196fed0a24994dc308b8f611b682d9190a25050505050565b6003545f9082908110610a9b5760405162461bcd60e51b815260040161041590611844565b60025460038481548110610ab157610ab1611804565b905f5260205f20906005020160040154101591505b50919050565b6003545f9083908110610af15760405162461bcd60e51b815260040161041590611844565b50505f9182526004602090815260408084206001600160a01b0393909316845291905290205460ff1690565b60606001805480602002602001604051908101604052809291908181526020018280548015610b7357602002820191905f5260205f20905b81546001600160a01b03168152600190910190602001808311610b55575b5050505050905090565b333014610b9c5760405162461bcd60e51b81526004016104159061178f565b600154818015801590610bae57508115155b8015610bba5750818111155b8015610bd0575081610bcd82600261195a565b10155b610bec5760405162461bcd60e51b815260040161041590611971565b60028390556040518381527fa3f1ee9126a074d9326c682f561767f710e927faa811f7a99829d49dc421797a9060200160405180910390a1505050565b610c316113b4565b60035481908110610c545760405162461bcd60e51b815260040161041590611844565b8160038181548110610c6857610c68611804565b5f91825260209091206003600590920201015460ff1615610c9b5760405162461bcd60e51b815260040161041590611888565b5f838152600460209081526040808320338452909152902054839060ff1615610d125760405162461bcd60e51b8152602060048201526024808201527f5472616e73616374696f6e4d616e616765723a207a6174656e206f6e61796c616044820152636e6d697360e01b6064820152608401610415565b335f9081526020819052604090205460ff16610d405760405162461bcd60e51b8152600401610415906118d1565b5f8481526004602090815260408083203384529091529020805460ff191660019081179091556003805486908110610d7a57610d7a611804565b905f5260205f2090600502016004015f828254610d979190611947565b92505081905550336001600160a01b0316847ffc56ac631a1b9d8326c2a92d7c3e87a2bb05dafe8cdead39bcd8fd53291c20c160038781548110610ddd57610ddd611804565b905f5260205f20906005020160040154604051610dfc91815260200190565b60405180910390a3505050610e1d60015f80516020611b6b83398151915255565b50565b5f610e296113b4565b335f9081526020819052604090205460ff16610e575760405162461bcd60e51b8152600401610415906118d1565b6001600160a01b038416610eb75760405162461bcd60e51b815260206004820152602160248201527f4d756c746953696757616c6c65743a20736966697220686564656620616472656044820152607360f81b6064820152608401610415565b610ec28484846113cf565b9050610eda60015f80516020611b6b83398151915255565b9392505050565b333014610f005760405162461bcd60e51b81526004016104159061178f565b6001600160a01b0382165f90815260208190526040902054829060ff16610f695760405162461bcd60e51b815260206004820152601e60248201527f4f776e65724d616e616765723a2073616869702062756c756e616d61646900006044820152606401610415565b6001600160a01b0382165f90815260208190526040902054829060ff1615610fcf5760405162461bcd60e51b815260206004820152601960248201527804f776e65724d616e616765723a207a6174656e20736168697603c1b6044820152606401610415565b826001600160a01b0381166110225760405162461bcd60e51b81526020600482015260196024820152784f776e65724d616e616765723a20736966697220616472657360381b6044820152606401610415565b5f5b6001548110156110ba57856001600160a01b03166001828154811061104b5761104b611804565b5f918252602090912001546001600160a01b0316036110a857846001828154811061107857611078611804565b905f5260205f20015f6101000a8154816001600160a01b0302191690836001600160a01b031602179055506110ba565b806110b281611818565b915050611024565b506001600160a01b038086165f81815260208190526040808220805460ff1990811690915593881682528082208054909416600117909355915190917f8001553a916ef2f495d26a907cc54d96ed840d7bda71e73194bf5a9df7a76b9091a26040516001600160a01b038516907ff39e6e1eb0edcf53c221607b54b00cd28f3196fed0a24994dc308b8f611b682d905f90a25050505050565b61115b6113b4565b6003548190811061117e5760405162461bcd60e51b815260040161041590611844565b816003818154811061119257611192611804565b5f91825260209091206003600590920201015460ff16156111c55760405162461bcd60e51b815260040161041590611888565b335f9081526020819052604090205460ff166111f35760405162461bcd60e51b8152600401610415906118d1565b6002546003848154811061120957611209611804565b905f5260205f2090600502016004015410156112735760405162461bcd60e51b8152602060048201526024808201527f4d756c746953696757616c6c65743a20796574657273697a206f6e61792073616044820152637969736960e01b6064820152608401610415565b5f6003848154811061128757611287611804565b5f918252602082206003600590920201908101805460ff191660019081179091558154908201546040519294506001600160a01b03909116916112ce9060028601906119ce565b5f6040518083038185875af1925050503d805f8114611308576040519150601f19603f3d011682016040523d82523d5f602084013e61130d565b606091505b505090508061136e5760405162461bcd60e51b815260206004820152602760248201527f4d756c746953696757616c6c65743a2069736c656d2079757275746d6520626160448201526639b0b934b9b4bd60c91b6064820152608401610415565b604051339086907fff0d827e815551ef359e2272c2751de1c593cdff65e6e59efab752e10e9ef6d2905f90a350505050610e1d60015f80516020611b6b83398151915255565b6113bc611520565b60025f80516020611b6b83398151915255565b600380546040805160a0810182526001600160a01b038781168252602082018781529282018681525f60608401819052608084018190526001860187559590955281517fc2575a0e9e593c00f959f8c92f12db2869c3395a3b0502d05e2516446f71f85b6005860290810180546001600160a01b0319169290931691909117825592517fc2575a0e9e593c00f959f8c92f12db2869c3395a3b0502d05e2516446f71f85c84015593519293909290917fc2575a0e9e593c00f959f8c92f12db2869c3395a3b0502d05e2516446f71f85d01906114ab9082611a8e565b50606082015160038201805460ff19169115159190911790556080909101516004909101556040516001600160a01b03851690339083907fb7d255440cb386ffe845e52783c32a06625c034e8a0d98615481af247ed802c3906115119088908890611b4a565b60405180910390a49392505050565b5f80516020611b6b8339815191525460020361154f57604051633ee5aeb560e01b815260040160405180910390fd5b565b5f60208284031215611561575f80fd5b5035919050565b80356001600160a01b038116811461157e575f80fd5b919050565b5f60208284031215611593575f80fd5b610eda82611568565b5f81518084525f5b818110156115c0576020818501810151868301820152016115a4565b505f602082860101526020601f19601f83011685010191505092915050565b60018060a01b038616815284602082015260a060408201525f61160560a083018661159c565b931515606083015250608001529392505050565b5f806040838503121561162a575f80fd5b8235915061163a60208401611568565b90509250929050565b602080825282518282018190525f9190848201906040850190845b818110156116835783516001600160a01b03168352928401929184019160010161165e565b50909695505050505050565b634e487b7160e01b5f52604160045260245ffd5b5f805f606084860312156116b5575f80fd5b6116be84611568565b925060208401359150604084013567ffffffffffffffff808211156116e1575f80fd5b818601915086601f8301126116f4575f80fd5b8135818111156117065761170661168f565b604051601f8201601f19908116603f0116810190838211818310171561172e5761172e61168f565b81604052828152896020848701011115611746575f80fd5b826020860160208301375f6020848301015280955050505050509250925092565b5f8060408385031215611778575f80fd5b61178183611568565b915061163a60208401611568565b60208082526028908201527f4f776e65724d616e616765723a20736164656365206b6f6e747261742063616760408201526734b930b134b634b960c11b606082015260800190565b634e487b7160e01b5f52601160045260245ffd5b818103818111156117fe576117fe6117d7565b92915050565b634e487b7160e01b5f52603260045260245ffd5b5f60018201611829576118296117d7565b5060010190565b634e487b7160e01b5f52603160045260245ffd5b60208082526024908201527f5472616e73616374696f6e4d616e616765723a2069736c656d2062756c756e616040820152636d61646960e01b606082015260800190565b60208082526029908201527f5472616e73616374696f6e4d616e616765723a2069736c656d207a6174656e206040820152687975727574756c647560b81b606082015260800190565b60208082526024908201527f4d756c746953696757616c6c65743a207361646563652073616869702063616760408201526334b934b960e11b606082015260800190565b600181811c9082168061192957607f821691505b602082108103610ac657634e487b7160e01b5f52602260045260245ffd5b808201808211156117fe576117fe6117d7565b80820281158282048414176117fe576117fe6117d7565b60208082526037908201527f4f776e65724d616e616765723a20676563657273697a204d2076657961204e2060408201527f64656765726920284d203e3d204e2f3220736172746929000000000000000000606082015260800190565b5f8083546119db81611915565b600182811680156119f35760018114611a0857611a34565b60ff1984168752821515830287019450611a34565b875f526020805f205f5b85811015611a2b5781548a820152908401908201611a12565b50505082870194505b50929695505050505050565b601f821115611a89575f81815260208120601f850160051c81016020861015611a665750805b601f850160051c820191505b81811015611a8557828155600101611a72565b5050505b505050565b815167ffffffffffffffff811115611aa857611aa861168f565b611abc81611ab68454611915565b84611a40565b602080601f831160018114611aef575f8415611ad85750858301515b5f19600386901b1c1916600185901b178555611a85565b5f85815260208120601f198616915b82811015611b1d57888601518255948401946001909101908401611afe565b5085821015611b3a57878501515f19600388901b60f8161c191681555b5050505050600190811b01905550565b828152604060208201525f611b62604083018461159c565b94935050505056fe9b779b17422d0df92223018b32b4d1fa46e071723d6817e2486d003becc55f00a2646970667358221220e0e337c6bba54a09b25280578282d2da56b5118d0a225728366c39cc20ebf52f64736f6c63430008140033","opcodes":"PUSH1 0x80 PUSH1 0x40 MSTORE CALLVALUE DUP1 ISZERO PUSH3 0x10 JUMPI PUSH0 DUP1 REVERT JUMPDEST POP PUSH1 0x40 MLOAD PUSH3 0x201A CODESIZE SUB DUP1 PUSH3 0x201A DUP4 CODECOPY DUP2 ADD PUSH1 0x40 DUP2 SWAP1 MSTORE PUSH3 0x33 SWAP2 PUSH3 0x314 JUMP JUMPDEST PUSH1 0x1 PUSH32 0x9B779B17422D0DF92223018B32B4D1FA46E071723D6817E2486D003BECC55F00 SSTORE DUP2 MLOAD PUSH3 0xB9 JUMPI PUSH1 0x40 MLOAD PUSH3 0x461BCD PUSH1 0xE5 SHL DUP2 MSTORE PUSH1 0x20 PUSH1 0x4 DUP3 ADD MSTORE PUSH1 0x25 PUSH1 0x24 DUP3 ADD MSTORE PUSH32 0x4D756C746953696757616C6C65743A20656E20617A2031207361686970206765 PUSH1 0x44 DUP3 ADD MSTORE PUSH5 0x72656B6C69 PUSH1 0xD8 SHL PUSH1 0x64 DUP3 ADD MSTORE PUSH1 0x84 ADD JUMPDEST PUSH1 0x40 MLOAD DUP1 SWAP2 SUB SWAP1 REVERT JUMPDEST PUSH0 DUP2 GT DUP1 ISZERO PUSH3 0xCA JUMPI POP DUP2 MLOAD DUP2 GT ISZERO JUMPDEST DUP1 ISZERO PUSH3 0xE4 JUMPI POP DUP2 MLOAD PUSH3 0xE1 DUP3 PUSH1 0x2 PUSH3 0x3FD JUMP JUMPDEST LT ISZERO JUMPDEST PUSH3 0x158 JUMPI PUSH1 0x40 MLOAD PUSH3 0x461BCD PUSH1 0xE5 SHL DUP2 MSTORE PUSH1 0x20 PUSH1 0x4 DUP3 ADD MSTORE PUSH1 0x39 PUSH1 0x24 DUP3 ADD MSTORE PUSH32 0x4D756C746953696757616C6C65743A20676563657273697A204D207665796120 PUSH1 0x44 DUP3 ADD MSTORE PUSH32 0x4E2064656765726920284D203E3D204E2F322073617274692900000000000000 PUSH1 0x64 DUP3 ADD MSTORE PUSH1 0x84 ADD PUSH3 0xB0 JUMP JUMPDEST PUSH0 JUMPDEST DUP3 MLOAD DUP2 LT ISZERO PUSH3 0x2D9 JUMPI PUSH0 DUP4 DUP3 DUP2 MLOAD DUP2 LT PUSH3 0x17A JUMPI PUSH3 0x17A PUSH3 0x41D JUMP JUMPDEST PUSH1 0x20 MUL PUSH1 0x20 ADD ADD MLOAD SWAP1 POP PUSH0 PUSH1 0x1 PUSH1 0x1 PUSH1 0xA0 SHL SUB AND DUP2 PUSH1 0x1 PUSH1 0x1 PUSH1 0xA0 SHL SUB AND SUB PUSH3 0x1E7 JUMPI PUSH1 0x40 MLOAD PUSH3 0x461BCD PUSH1 0xE5 SHL DUP2 MSTORE PUSH1 0x20 PUSH1 0x4 DUP3 ADD MSTORE PUSH1 0x1B PUSH1 0x24 DUP3 ADD MSTORE PUSH32 0x4D756C746953696757616C6C65743A2073696669722061647265730000000000 PUSH1 0x44 DUP3 ADD MSTORE PUSH1 0x64 ADD PUSH3 0xB0 JUMP JUMPDEST PUSH1 0x1 PUSH1 0x1 PUSH1 0xA0 SHL SUB DUP2 AND PUSH0 SWAP1 DUP2 MSTORE PUSH1 0x20 DUP2 SWAP1 MSTORE PUSH1 0x40 SWAP1 KECCAK256 SLOAD PUSH1 0xFF AND ISZERO PUSH3 0x264 JUMPI PUSH1 0x40 MLOAD PUSH3 0x461BCD PUSH1 0xE5 SHL DUP2 MSTORE PUSH1 0x20 PUSH1 0x4 DUP3 ADD MSTORE PUSH1 0x2A PUSH1 0x24 DUP3 ADD MSTORE PUSH32 0x4D756C746953696757616C6C65743A207361686970206164726573692074656B PUSH1 0x44 DUP3 ADD MSTORE PUSH10 0x3930B93630B730B6B0BD PUSH1 0xB1 SHL PUSH1 0x64 DUP3 ADD MSTORE PUSH1 0x84 ADD PUSH3 0xB0 JUMP JUMPDEST PUSH1 0x1 PUSH1 0x1 PUSH1 0xA0 SHL SUB AND PUSH0 DUP2 DUP2 MSTORE PUSH1 0x20 DUP2 SWAP1 MSTORE PUSH1 0x40 DUP2 KECCAK256 DUP1 SLOAD PUSH1 0xFF NOT AND PUSH1 0x1 SWAP1 DUP2 OR SWAP1 SWAP2 SSTORE DUP1 SLOAD DUP1 DUP3 ADD DUP3 SSTORE SWAP2 MSTORE PUSH32 0xB10E2D527612073B26EECDFD717E6A320CF44B4AFAC2B0732D9FCBE2B7FA0CF6 ADD DUP1 SLOAD PUSH1 0x1 PUSH1 0x1 PUSH1 0xA0 SHL SUB NOT AND SWAP1 SWAP2 OR SWAP1 SSTORE DUP1 PUSH3 0x2D0 DUP2 PUSH3 0x431 JUMP JUMPDEST SWAP2 POP POP PUSH3 0x15A JUMP JUMPDEST POP PUSH1 0x2 SSTORE POP PUSH3 0x44C JUMP JUMPDEST PUSH4 0x4E487B71 PUSH1 0xE0 SHL PUSH0 MSTORE PUSH1 0x41 PUSH1 0x4 MSTORE PUSH1 0x24 PUSH0 REVERT JUMPDEST DUP1 MLOAD PUSH1 0x1 PUSH1 0x1 PUSH1 0xA0 SHL SUB DUP2 AND DUP2 EQ PUSH3 0x30F JUMPI PUSH0 DUP1 REVERT JUMPDEST SWAP2 SWAP1 POP JUMP JUMPDEST PUSH0 DUP1 PUSH1 0x40 DUP4 DUP6 SUB SLT ISZERO PUSH3 0x326 JUMPI PUSH0 DUP1 REVERT JUMPDEST DUP3 MLOAD PUSH1 0x1 PUSH1 0x1 PUSH1 0x40 SHL SUB DUP1 DUP3 GT ISZERO PUSH3 0x33D JUMPI PUSH0 DUP1 REVERT JUMPDEST DUP2 DUP6 ADD SWAP2 POP DUP6 PUSH1 0x1F DUP4 ADD SLT PUSH3 0x351 JUMPI PUSH0 DUP1 REVERT JUMPDEST DUP2 MLOAD PUSH1 0x20 DUP3 DUP3 GT ISZERO PUSH3 0x368 JUMPI PUSH3 0x368 PUSH3 0x2E4 JUMP JUMPDEST DUP2 PUSH1 0x5 SHL PUSH1 0x40 MLOAD PUSH1 0x1F NOT PUSH1 0x3F DUP4 ADD AND DUP2 ADD DUP2 DUP2 LT DUP7 DUP3 GT OR ISZERO PUSH3 0x390 JUMPI PUSH3 0x390 PUSH3 0x2E4 JUMP JUMPDEST PUSH1 0x40 MSTORE SWAP3 DUP4 MSTORE DUP2 DUP4 ADD SWAP4 POP DUP5 DUP2 ADD DUP3 ADD SWAP3 DUP10 DUP5 GT ISZERO PUSH3 0x3AE JUMPI PUSH0 DUP1 REVERT JUMPDEST SWAP5 DUP3 ADD SWAP5 JUMPDEST DUP4 DUP7 LT ISZERO PUSH3 0x3D7 JUMPI PUSH3 0x3C7 DUP7 PUSH3 0x2F8 JUMP JUMPDEST DUP6 MSTORE SWAP5 DUP3 ADD SWAP5 SWAP4 DUP3 ADD SWAP4 PUSH3 0x3B3 JUMP JUMPDEST SWAP8 SWAP1 SWAP2 ADD MLOAD SWAP7 SWAP9 SWAP7 SWAP8 POP POP POP POP POP POP POP JUMP JUMPDEST PUSH4 0x4E487B71 PUSH1 0xE0 SHL PUSH0 MSTORE PUSH1 0x11 PUSH1 0x4 MSTORE PUSH1 0x24 PUSH0 REVERT JUMPDEST DUP1 DUP3 MUL DUP2 ISZERO DUP3 DUP3 DIV DUP5 EQ OR PUSH3 0x417 JUMPI PUSH3 0x417 PUSH3 0x3E9 JUMP JUMPDEST SWAP3 SWAP2 POP POP JUMP JUMPDEST PUSH4 0x4E487B71 PUSH1 0xE0 SHL PUSH0 MSTORE PUSH1 0x32 PUSH1 0x4 MSTORE PUSH1 0x24 PUSH0 REVERT JUMPDEST PUSH0 PUSH1 0x1 DUP3 ADD PUSH3 0x445 JUMPI PUSH3 0x445 PUSH3 0x3E9 JUMP JUMPDEST POP PUSH1 0x1 ADD SWAP1 JUMP JUMPDEST PUSH2 0x1BC0 DUP1 PUSH3 0x45A PUSH0 CODECOPY PUSH0 RETURN INVALID PUSH1 0x80 PUSH1 0x40 MSTORE PUSH1 0x4 CALLDATASIZE LT PUSH2 0x108 JUMPI PUSH0 CALLDATALOAD PUSH1 0xE0 SHR DUP1 PUSH4 0x78810A3B GT PUSH2 0x92 JUMPI DUP1 PUSH4 0xC01A8C84 GT PUSH2 0x62 JUMPI DUP1 PUSH4 0xC01A8C84 EQ PUSH2 0x33D JUMPI DUP1 PUSH4 0xC6427474 EQ PUSH2 0x35C JUMPI DUP1 PUSH4 0xD0549B85 EQ PUSH2 0x37B JUMPI DUP1 PUSH4 0xE20056E6 EQ PUSH2 0x390 JUMPI DUP1 PUSH4 0xEE22610B EQ PUSH2 0x3AF JUMPI PUSH0 DUP1 REVERT JUMPDEST DUP1 PUSH4 0x78810A3B EQ PUSH2 0x2A5 JUMPI DUP1 PUSH4 0x8790C1DE EQ PUSH2 0x2C4 JUMPI DUP1 PUSH4 0xA0E67E2B EQ PUSH2 0x2FD JUMPI DUP1 PUSH4 0xBA51A6DF EQ PUSH2 0x31E JUMPI PUSH0 DUP1 REVERT JUMPDEST DUP1 PUSH4 0x2E7700F0 GT PUSH2 0xD8 JUMPI DUP1 PUSH4 0x2E7700F0 EQ PUSH2 0x1E5 JUMPI DUP1 PUSH4 0x2F54BF6E EQ PUSH2 0x1F9 JUMPI DUP1 PUSH4 0x33EA3DC8 EQ PUSH2 0x237 JUMPI DUP1 PUSH4 0x7065CB48 EQ PUSH2 0x267 JUMPI DUP1 PUSH4 0x784547A7 EQ PUSH2 0x286 JUMPI PUSH0 DUP1 REVERT JUMPDEST DUP1 PUSH4 0x25E7C27 EQ PUSH2 0x14D JUMPI DUP1 PUSH4 0x12065FE0 EQ PUSH2 0x189 JUMPI DUP1 PUSH4 0x173825D9 EQ PUSH2 0x1A5 JUMPI DUP1 PUSH4 0x20EA8D86 EQ PUSH2 0x1C6 JUMPI PUSH0 DUP1 REVERT JUMPDEST CALLDATASIZE PUSH2 0x149 JUMPI PUSH1 0x40 DUP1 MLOAD CALLVALUE DUP2 MSTORE SELFBALANCE PUSH1 0x20 DUP3 ADD MSTORE CALLER SWAP2 PUSH32 0x90890809C654F11D6E72A28FA60149770A0D11EC6C92319D6CEB2BB0A4EA1A15 SWAP2 ADD PUSH1 0x40 MLOAD DUP1 SWAP2 SUB SWAP1 LOG2 STOP JUMPDEST PUSH0 DUP1 REVERT JUMPDEST CALLVALUE DUP1 ISZERO PUSH2 0x158 JUMPI PUSH0 DUP1 REVERT JUMPDEST POP PUSH2 0x16C PUSH2 0x167 CALLDATASIZE PUSH1 0x4 PUSH2 0x1551 JUMP JUMPDEST PUSH2 0x3CE JUMP JUMPDEST PUSH1 0x40 MLOAD PUSH1 0x1 PUSH1 0x1 PUSH1 0xA0 SHL SUB SWAP1 SWAP2 AND DUP2 MSTORE PUSH1 0x20 ADD JUMPDEST PUSH1 0x40 MLOAD DUP1 SWAP2 SUB SWAP1 RETURN JUMPDEST CALLVALUE DUP1 ISZERO PUSH2 0x194 JUMPI PUSH0 DUP1 REVERT JUMPDEST POP SELFBALANCE JUMPDEST PUSH1 0x40 MLOAD SWAP1 DUP2 MSTORE PUSH1 0x20 ADD PUSH2 0x180 JUMP JUMPDEST CALLVALUE DUP1 ISZERO PUSH2 0x1B0 JUMPI PUSH0 DUP1 REVERT JUMPDEST POP PUSH2 0x1C4 PUSH2 0x1BF CALLDATASIZE PUSH1 0x4 PUSH2 0x1583 JUMP JUMPDEST PUSH2 0x3F6 JUMP JUMPDEST STOP JUMPDEST CALLVALUE DUP1 ISZERO PUSH2 0x1D1 JUMPI PUSH0 DUP1 REVERT JUMPDEST POP PUSH2 0x1C4 PUSH2 0x1E0 CALLDATASIZE PUSH1 0x4 PUSH2 0x1551 JUMP JUMPDEST PUSH2 0x5FF JUMP JUMPDEST CALLVALUE DUP1 ISZERO PUSH2 0x1F0 JUMPI PUSH0 DUP1 REVERT JUMPDEST POP PUSH1 0x3 SLOAD PUSH2 0x197 JUMP JUMPDEST CALLVALUE DUP1 ISZERO PUSH2 0x204 JUMPI PUSH0 DUP1 REVERT JUMPDEST POP PUSH2 0x227 PUSH2 0x213 CALLDATASIZE PUSH1 0x4 PUSH2 0x1583 JUMP JUMPDEST PUSH0 PUSH1 0x20 DUP2 SWAP1 MSTORE SWAP1 DUP2 MSTORE PUSH1 0x40 SWAP1 KECCAK256 SLOAD PUSH1 0xFF AND DUP2 JUMP JUMPDEST PUSH1 0x40 MLOAD SWAP1 ISZERO ISZERO DUP2 MSTORE PUSH1 0x20 ADD PUSH2 0x180 JUMP JUMPDEST CALLVALUE DUP1 ISZERO PUSH2 0x242 JUMPI PUSH0 DUP1 REVERT JUMPDEST POP PUSH2 0x256 PUSH2 0x251 CALLDATASIZE PUSH1 0x4 PUSH2 0x1551 JUMP JUMPDEST PUSH2 0x799 JUMP JUMPDEST PUSH1 0x40 MLOAD PUSH2 0x180 SWAP6 SWAP5 SWAP4 SWAP3 SWAP2 SWAP1 PUSH2 0x15DF JUMP JUMPDEST CALLVALUE DUP1 ISZERO PUSH2 0x272 JUMPI PUSH0 DUP1 REVERT JUMPDEST POP PUSH2 0x1C4 PUSH2 0x281 CALLDATASIZE PUSH1 0x4 PUSH2 0x1583 JUMP JUMPDEST PUSH2 0x8B4 JUMP JUMPDEST CALLVALUE DUP1 ISZERO PUSH2 0x291 JUMPI PUSH0 DUP1 REVERT JUMPDEST POP PUSH2 0x227 PUSH2 0x2A0 CALLDATASIZE PUSH1 0x4 PUSH2 0x1551 JUMP JUMPDEST PUSH2 0xA76 JUMP JUMPDEST CALLVALUE DUP1 ISZERO PUSH2 0x2B0 JUMPI PUSH0 DUP1 REVERT JUMPDEST POP PUSH2 0x227 PUSH2 0x2BF CALLDATASIZE PUSH1 0x4 PUSH2 0x1619 JUMP JUMPDEST PUSH2 0xACC JUMP JUMPDEST CALLVALUE DUP1 ISZERO PUSH2 0x2CF JUMPI PUSH0 DUP1 REVERT JUMPDEST POP PUSH2 0x227 PUSH2 0x2DE CALLDATASIZE PUSH1 0x4 PUSH2 0x1619 JUMP JUMPDEST PUSH1 0x4 PUSH1 0x20 SWAP1 DUP2 MSTORE PUSH0 SWAP3 DUP4 MSTORE PUSH1 0x40 DUP1 DUP5 KECCAK256 SWAP1 SWAP2 MSTORE SWAP1 DUP3 MSTORE SWAP1 KECCAK256 SLOAD PUSH1 0xFF AND DUP2 JUMP JUMPDEST CALLVALUE DUP1 ISZERO PUSH2 0x308 JUMPI PUSH0 DUP1 REVERT JUMPDEST POP PUSH2 0x311 PUSH2 0xB1D JUMP JUMPDEST PUSH1 0x40 MLOAD PUSH2 0x180 SWAP2 SWAP1 PUSH2 0x1643 JUMP JUMPDEST CALLVALUE DUP1 ISZERO PUSH2 0x329 JUMPI PUSH0 DUP1 REVERT JUMPDEST POP PUSH2 0x1C4 PUSH2 0x338 CALLDATASIZE PUSH1 0x4 PUSH2 0x1551 JUMP JUMPDEST PUSH2 0xB7D JUMP JUMPDEST CALLVALUE DUP1 ISZERO PUSH2 0x348 JUMPI PUSH0 DUP1 REVERT JUMPDEST POP PUSH2 0x1C4 PUSH2 0x357 CALLDATASIZE PUSH1 0x4 PUSH2 0x1551 JUMP JUMPDEST PUSH2 0xC29 JUMP JUMPDEST CALLVALUE DUP1 ISZERO PUSH2 0x367 JUMPI PUSH0 DUP1 REVERT JUMPDEST POP PUSH2 0x197 PUSH2 0x376 CALLDATASIZE PUSH1 0x4 PUSH2 0x16A3 JUMP JUMPDEST PUSH2 0xE20 JUMP JUMPDEST CALLVALUE DUP1 ISZERO PUSH2 0x386 JUMPI PUSH0 DUP1 REVERT JUMPDEST POP PUSH2 0x197 PUSH1 0x2 SLOAD DUP2 JUMP JUMPDEST CALLVALUE DUP1 ISZERO PUSH2 0x39B JUMPI PUSH0 DUP1 REVERT JUMPDEST POP PUSH2 0x1C4 PUSH2 0x3AA CALLDATASIZE PUSH1 0x4 PUSH2 0x1767 JUMP JUMPDEST PUSH2 0xEE1 JUMP JUMPDEST CALLVALUE DUP1 ISZERO PUSH2 0x3BA JUMPI PUSH0 DUP1 REVERT JUMPDEST POP PUSH2 0x1C4 PUSH2 0x3C9 CALLDATASIZE PUSH1 0x4 PUSH2 0x1551 JUMP JUMPDEST PUSH2 0x1153 JUMP JUMPDEST PUSH1 0x1 DUP2 DUP2 SLOAD DUP2 LT PUSH2 0x3DD JUMPI PUSH0 DUP1 REVERT JUMPDEST PUSH0 SWAP2 DUP3 MSTORE PUSH1 0x20 SWAP1 SWAP2 KECCAK256 ADD SLOAD PUSH1 0x1 PUSH1 0x1 PUSH1 0xA0 SHL SUB AND SWAP1 POP DUP2 JUMP JUMPDEST CALLER ADDRESS EQ PUSH2 0x41E JUMPI PUSH1 0x40 MLOAD PUSH3 0x461BCD PUSH1 0xE5 SHL DUP2 MSTORE PUSH1 0x4 ADD PUSH2 0x415 SWAP1 PUSH2 0x178F JUMP JUMPDEST PUSH1 0x40 MLOAD DUP1 SWAP2 SUB SWAP1 REVERT JUMPDEST PUSH1 0x1 PUSH1 0x1 PUSH1 0xA0 SHL SUB DUP2 AND PUSH0 SWAP1 DUP2 MSTORE PUSH1 0x20 DUP2 SWAP1 MSTORE PUSH1 0x40 SWAP1 KECCAK256 SLOAD DUP2 SWAP1 PUSH1 0xFF AND PUSH2 0x487 JUMPI PUSH1 0x40 MLOAD PUSH3 0x461BCD PUSH1 0xE5 SHL DUP2 MSTORE PUSH1 0x20 PUSH1 0x4 DUP3 ADD MSTORE PUSH1 0x1E PUSH1 0x24 DUP3 ADD MSTORE PUSH32 0x4F776E65724D616E616765723A2073616869702062756C756E616D6164690000 PUSH1 0x44 DUP3 ADD MSTORE PUSH1 0x64 ADD PUSH2 0x415 JUMP JUMPDEST PUSH1 0x1 PUSH1 0x1 PUSH1 0xA0 SHL SUB DUP3 AND PUSH0 SWAP1 DUP2 MSTORE PUSH1 0x20 DUP2 SWAP1 MSTORE PUSH1 0x40 DUP2 KECCAK256 DUP1 SLOAD PUSH1 0xFF NOT AND SWAP1 SSTORE JUMPDEST PUSH1 0x1 DUP1 SLOAD PUSH2 0x4B5 SWAP2 SWAP1 PUSH2 0x17EB JUMP JUMPDEST DUP2 LT ISZERO PUSH2 0x57E JUMPI DUP3 PUSH1 0x1 PUSH1 0x1 PUSH1 0xA0 SHL SUB AND PUSH1 0x1 DUP3 DUP2 SLOAD DUP2 LT PUSH2 0x4D9 JUMPI PUSH2 0x4D9 PUSH2 0x1804 JUMP JUMPDEST PUSH0 SWAP2 DUP3 MSTORE PUSH1 0x20 SWAP1 SWAP2 KECCAK256 ADD SLOAD PUSH1 0x1 PUSH1 0x1 PUSH1 0xA0 SHL SUB AND SUB PUSH2 0x56C JUMPI PUSH1 0x1 DUP1 SLOAD PUSH2 0x501 SWAP1 DUP3 SWAP1 PUSH2 0x17EB JUMP JUMPDEST DUP2 SLOAD DUP2 LT PUSH2 0x511 JUMPI PUSH2 0x511 PUSH2 0x1804 JUMP JUMPDEST PUSH0 SWAP2 DUP3 MSTORE PUSH1 0x20 SWAP1 SWAP2 KECCAK256 ADD SLOAD PUSH1 0x1 DUP1 SLOAD PUSH1 0x1 PUSH1 0x1 PUSH1 0xA0 SHL SUB SWAP1 SWAP3 AND SWAP2 DUP4 SWAP1 DUP2 LT PUSH2 0x53C JUMPI PUSH2 0x53C PUSH2 0x1804 JUMP JUMPDEST SWAP1 PUSH0 MSTORE PUSH1 0x20 PUSH0 KECCAK256 ADD PUSH0 PUSH2 0x100 EXP DUP2 SLOAD DUP2 PUSH1 0x1 PUSH1 0x1 PUSH1 0xA0 SHL SUB MUL NOT AND SWAP1 DUP4 PUSH1 0x1 PUSH1 0x1 PUSH1 0xA0 SHL SUB AND MUL OR SWAP1 SSTORE POP PUSH2 0x57E JUMP JUMPDEST DUP1 PUSH2 0x576 DUP2 PUSH2 0x1818 JUMP JUMPDEST SWAP2 POP POP PUSH2 0x4A7 JUMP JUMPDEST POP PUSH1 0x1 DUP1 SLOAD DUP1 PUSH2 0x590 JUMPI PUSH2 0x590 PUSH2 0x1830 JUMP JUMPDEST PUSH0 DUP3 DUP2 MSTORE PUSH1 0x20 SWAP1 KECCAK256 DUP2 ADD PUSH0 NOT SWAP1 DUP2 ADD DUP1 SLOAD PUSH1 0x1 PUSH1 0x1 PUSH1 0xA0 SHL SUB NOT AND SWAP1 SSTORE ADD SWAP1 SSTORE PUSH1 0x1 SLOAD PUSH1 0x2 SLOAD GT ISZERO PUSH2 0x5C8 JUMPI PUSH1 0x1 SLOAD PUSH2 0x5C8 SWAP1 PUSH2 0xB7D JUMP JUMPDEST PUSH1 0x40 MLOAD PUSH1 0x1 PUSH1 0x1 PUSH1 0xA0 SHL SUB DUP4 AND SWAP1 PUSH32 0x8001553A916EF2F495D26A907CC54D96ED840D7BDA71E73194BF5A9DF7A76B90 SWAP1 PUSH0 SWAP1 LOG2 POP POP JUMP JUMPDEST PUSH1 0x3 SLOAD DUP2 SWAP1 DUP2 LT PUSH2 0x622 JUMPI PUSH1 0x40 MLOAD PUSH3 0x461BCD PUSH1 0xE5 SHL DUP2 MSTORE PUSH1 0x4 ADD PUSH2 0x415 SWAP1 PUSH2 0x1844 JUMP JUMPDEST DUP2 PUSH1 0x3 DUP2 DUP2 SLOAD DUP2 LT PUSH2 0x636 JUMPI PUSH2 0x636 PUSH2 0x1804 JUMP JUMPDEST PUSH0 SWAP2 DUP3 MSTORE PUSH1 0x20 SWAP1 SWAP2 KECCAK256 PUSH1 0x3 PUSH1 0x5 SWAP1 SWAP3 MUL ADD ADD SLOAD PUSH1 0xFF AND ISZERO PUSH2 0x669 JUMPI PUSH1 0x40 MLOAD PUSH3 0x461BCD PUSH1 0xE5 SHL DUP2 MSTORE PUSH1 0x4 ADD PUSH2 0x415 SWAP1 PUSH2 0x1888 JUMP JUMPDEST PUSH0 DUP4 DUP2 MSTORE PUSH1 0x4 PUSH1 0x20 SWAP1 DUP2 MSTORE PUSH1 0x40 DUP1 DUP4 KECCAK256 CALLER DUP5 MSTORE SWAP1 SWAP2 MSTORE SWAP1 KECCAK256 SLOAD DUP4 SWAP1 PUSH1 0xFF AND PUSH2 0x6DF JUMPI PUSH1 0x40 MLOAD PUSH3 0x461BCD PUSH1 0xE5 SHL DUP2 MSTORE PUSH1 0x20 PUSH1 0x4 DUP3 ADD MSTORE PUSH1 0x23 PUSH1 0x24 DUP3 ADD MSTORE PUSH32 0x5472616E73616374696F6E4D616E616765723A206F6E61792062756C756E616D PUSH1 0x44 DUP3 ADD MSTORE PUSH3 0x616469 PUSH1 0xE8 SHL PUSH1 0x64 DUP3 ADD MSTORE PUSH1 0x84 ADD PUSH2 0x415 JUMP JUMPDEST CALLER PUSH0 SWAP1 DUP2 MSTORE PUSH1 0x20 DUP2 SWAP1 MSTORE PUSH1 0x40 SWAP1 KECCAK256 SLOAD PUSH1 0xFF AND PUSH2 0x70D JUMPI PUSH1 0x40 MLOAD PUSH3 0x461BCD PUSH1 0xE5 SHL DUP2 MSTORE PUSH1 0x4 ADD PUSH2 0x415 SWAP1 PUSH2 0x18D1 JUMP JUMPDEST PUSH0 DUP5 DUP2 MSTORE PUSH1 0x4 PUSH1 0x20 SWAP1 DUP2 MSTORE PUSH1 0x40 DUP1 DUP4 KECCAK256 CALLER DUP5 MSTORE SWAP1 SWAP2 MSTORE SWAP1 KECCAK256 DUP1 SLOAD PUSH1 0xFF NOT AND SWAP1 SSTORE PUSH1 0x3 DUP1 SLOAD PUSH1 0x1 SWAP2 SWAP1 DUP7 SWAP1 DUP2 LT PUSH2 0x745 JUMPI PUSH2 0x745 PUSH2 0x1804 JUMP JUMPDEST SWAP1 PUSH0 MSTORE PUSH1 0x20 PUSH0 KECCAK256 SWAP1 PUSH1 0x5 MUL ADD PUSH1 0x4 ADD PUSH0 DUP3 DUP3 SLOAD PUSH2 0x762 SWAP2 SWAP1 PUSH2 0x17EB JUMP JUMPDEST SWAP1 SWAP2 SSTORE POP POP PUSH1 0x40 MLOAD CALLER SWAP1 DUP6 SWAP1 PUSH32 0x7F8CE8E4F5A5B480FF78C18404639350996FD63EFC83ACE55B1D6A3E12158E24 SWAP1 PUSH0 SWAP1 LOG3 POP POP POP POP JUMP JUMPDEST PUSH0 DUP1 PUSH1 0x60 PUSH0 DUP1 DUP6 PUSH1 0x3 DUP1 SLOAD SWAP1 POP DUP2 LT PUSH2 0x7C4 JUMPI PUSH1 0x40 MLOAD PUSH3 0x461BCD PUSH1 0xE5 SHL DUP2 MSTORE PUSH1 0x4 ADD PUSH2 0x415 SWAP1 PUSH2 0x1844 JUMP JUMPDEST PUSH0 PUSH1 0x3 DUP9 DUP2 SLOAD DUP2 LT PUSH2 0x7D8 JUMPI PUSH2 0x7D8 PUSH2 0x1804 JUMP JUMPDEST PUSH0 SWAP2 DUP3 MSTORE PUSH1 0x20 SWAP1 SWAP2 KECCAK256 PUSH1 0x5 SWAP1 SWAP2 MUL ADD DUP1 SLOAD PUSH1 0x1 DUP3 ADD SLOAD PUSH1 0x3 DUP4 ADD SLOAD PUSH1 0x4 DUP5 ADD SLOAD PUSH1 0x2 DUP6 ADD DUP1 SLOAD SWAP6 SWAP7 POP PUSH1 0x1 PUSH1 0x1 PUSH1 0xA0 SHL SUB SWAP1 SWAP5 AND SWAP5 SWAP3 SWAP4 SWAP3 PUSH1 0xFF SWAP1 SWAP3 AND SWAP2 DUP4 SWAP1 PUSH2 0x821 SWAP1 PUSH2 0x1915 JUMP JUMPDEST DUP1 PUSH1 0x1F ADD PUSH1 0x20 DUP1 SWAP2 DIV MUL PUSH1 0x20 ADD PUSH1 0x40 MLOAD SWAP1 DUP2 ADD PUSH1 0x40 MSTORE DUP1 SWAP3 SWAP2 SWAP1 DUP2 DUP2 MSTORE PUSH1 0x20 ADD DUP3 DUP1 SLOAD PUSH2 0x84D SWAP1 PUSH2 0x1915 JUMP JUMPDEST DUP1 ISZERO PUSH2 0x898 JUMPI DUP1 PUSH1 0x1F LT PUSH2 0x86F JUMPI PUSH2 0x100 DUP1 DUP4 SLOAD DIV MUL DUP4 MSTORE SWAP2 PUSH1 0x20 ADD SWAP2 PUSH2 0x898 JUMP JUMPDEST DUP3 ADD SWAP2 SWAP1 PUSH0 MSTORE PUSH1 0x20 PUSH0 KECCAK256 SWAP1 JUMPDEST DUP2 SLOAD DUP2 MSTORE SWAP1 PUSH1 0x1 ADD SWAP1 PUSH1 0x20 ADD DUP1 DUP4 GT PUSH2 0x87B JUMPI DUP3 SWAP1 SUB PUSH1 0x1F AND DUP3 ADD SWAP2 JUMPDEST POP POP POP POP POP SWAP3 POP SWAP7 POP SWAP7 POP SWAP7 POP SWAP7 POP SWAP7 POP POP POP SWAP2 SWAP4 SWAP6 SWAP1 SWAP3 SWAP5 POP JUMP JUMPDEST CALLER ADDRESS EQ PUSH2 0x8D3 JUMPI PUSH1 0x40 MLOAD PUSH3 0x461BCD PUSH1 0xE5 SHL DUP2 MSTORE PUSH1 0x4 ADD PUSH2 0x415 SWAP1 PUSH2 0x178F JUMP JUMPDEST PUSH1 0x1 PUSH1 0x1 PUSH1 0xA0 SHL SUB DUP2 AND PUSH0 SWAP1 DUP2 MSTORE PUSH1 0x20 DUP2 SWAP1 MSTORE PUSH1 0x40 SWAP1 KECCAK256 SLOAD DUP2 SWAP1 PUSH1 0xFF AND ISZERO PUSH2 0x939 JUMPI PUSH1 0x40 MLOAD PUSH3 0x461BCD PUSH1 0xE5 SHL DUP2 MSTORE PUSH1 0x20 PUSH1 0x4 DUP3 ADD MSTORE PUSH1 0x19 PUSH1 0x24 DUP3 ADD MSTORE PUSH25 0x4F776E65724D616E616765723A207A6174656E20736168697 PUSH1 0x3C SHL PUSH1 0x44 DUP3 ADD MSTORE PUSH1 0x64 ADD PUSH2 0x415 JUMP JUMPDEST DUP2 PUSH1 0x1 PUSH1 0x1 PUSH1 0xA0 SHL SUB DUP2 AND PUSH2 0x98C JUMPI PUSH1 0x40 MLOAD PUSH3 0x461BCD PUSH1 0xE5 SHL DUP2 MSTORE PUSH1 0x20 PUSH1 0x4 DUP3 ADD MSTORE PUSH1 0x19 PUSH1 0x24 DUP3 ADD MSTORE PUSH25 0x4F776E65724D616E616765723A207369666972206164726573 PUSH1 0x38 SHL PUSH1 0x44 DUP3 ADD MSTORE PUSH1 0x64 ADD PUSH2 0x415 JUMP JUMPDEST PUSH1 0x1 DUP1 SLOAD PUSH2 0x999 SWAP2 PUSH2 0x1947 JUMP JUMPDEST PUSH1 0x2 SLOAD DUP1 ISZERO DUP1 ISZERO SWAP1 PUSH2 0x9AA JUMPI POP DUP2 ISZERO ISZERO JUMPDEST DUP1 ISZERO PUSH2 0x9B6 JUMPI POP DUP2 DUP2 GT ISZERO JUMPDEST DUP1 ISZERO PUSH2 0x9CC JUMPI POP DUP2 PUSH2 0x9C9 DUP3 PUSH1 0x2 PUSH2 0x195A JUMP JUMPDEST LT ISZERO JUMPDEST PUSH2 0x9E8 JUMPI PUSH1 0x40 MLOAD PUSH3 0x461BCD PUSH1 0xE5 SHL DUP2 MSTORE PUSH1 0x4 ADD PUSH2 0x415 SWAP1 PUSH2 0x1971 JUMP JUMPDEST PUSH1 0x1 PUSH1 0x1 PUSH1 0xA0 SHL SUB DUP6 AND PUSH0 DUP2 DUP2 MSTORE PUSH1 0x20 DUP2 SWAP1 MSTORE PUSH1 0x40 DUP1 DUP3 KECCAK256 DUP1 SLOAD PUSH1 0xFF NOT AND PUSH1 0x1 SWAP1 DUP2 OR SWAP1 SWAP2 SSTORE DUP1 SLOAD DUP1 DUP3 ADD DUP3 SSTORE SWAP1 DUP4 MSTORE PUSH32 0xB10E2D527612073B26EECDFD717E6A320CF44B4AFAC2B0732D9FCBE2B7FA0CF6 ADD DUP1 SLOAD PUSH1 0x1 PUSH1 0x1 PUSH1 0xA0 SHL SUB NOT AND DUP5 OR SWAP1 SSTORE MLOAD PUSH32 0xF39E6E1EB0EDCF53C221607B54B00CD28F3196FED0A24994DC308B8F611B682D SWAP2 SWAP1 LOG2 POP POP POP POP POP JUMP JUMPDEST PUSH1 0x3 SLOAD PUSH0 SWAP1 DUP3 SWAP1 DUP2 LT PUSH2 0xA9B JUMPI PUSH1 0x40 MLOAD PUSH3 0x461BCD PUSH1 0xE5 SHL DUP2 MSTORE PUSH1 0x4 ADD PUSH2 0x415 SWAP1 PUSH2 0x1844 JUMP JUMPDEST PUSH1 0x2 SLOAD PUSH1 0x3 DUP5 DUP2 SLOAD DUP2 LT PUSH2 0xAB1 JUMPI PUSH2 0xAB1 PUSH2 0x1804 JUMP JUMPDEST SWAP1 PUSH0 MSTORE PUSH1 0x20 PUSH0 KECCAK256 SWAP1 PUSH1 0x5 MUL ADD PUSH1 0x4 ADD SLOAD LT ISZERO SWAP2 POP JUMPDEST POP SWAP2 SWAP1 POP JUMP JUMPDEST PUSH1 0x3 SLOAD PUSH0 SWAP1 DUP4 SWAP1 DUP2 LT PUSH2 0xAF1 JUMPI PUSH1 0x40 MLOAD PUSH3 0x461BCD PUSH1 0xE5 SHL DUP2 MSTORE PUSH1 0x4 ADD PUSH2 0x415 SWAP1 PUSH2 0x1844 JUMP JUMPDEST POP POP PUSH0 SWAP2 DUP3 MSTORE PUSH1 0x4 PUSH1 0x20 SWAP1 DUP2 MSTORE PUSH1 0x40 DUP1 DUP5 KECCAK256 PUSH1 0x1 PUSH1 0x1 PUSH1 0xA0 SHL SUB SWAP4 SWAP1 SWAP4 AND DUP5 MSTORE SWAP2 SWAP1 MSTORE SWAP1 KECCAK256 SLOAD PUSH1 0xFF AND SWAP1 JUMP JUMPDEST PUSH1 0x60 PUSH1 0x1 DUP1 SLOAD DUP1 PUSH1 0x20 MUL PUSH1 0x20 ADD PUSH1 0x40 MLOAD SWAP1 DUP2 ADD PUSH1 0x40 MSTORE DUP1 SWAP3 SWAP2 SWAP1 DUP2 DUP2 MSTORE PUSH1 0x20 ADD DUP3 DUP1 SLOAD DUP1 ISZERO PUSH2 0xB73 JUMPI PUSH1 0x20 MUL DUP3 ADD SWAP2 SWAP1 PUSH0 MSTORE PUSH1 0x20 PUSH0 KECCAK256 SWAP1 JUMPDEST DUP2 SLOAD PUSH1 0x1 PUSH1 0x1 PUSH1 0xA0 SHL SUB AND DUP2 MSTORE PUSH1 0x1 SWAP1 SWAP2 ADD SWAP1 PUSH1 0x20 ADD DUP1 DUP4 GT PUSH2 0xB55 JUMPI JUMPDEST POP POP POP POP POP SWAP1 POP SWAP1 JUMP JUMPDEST CALLER ADDRESS EQ PUSH2 0xB9C JUMPI PUSH1 0x40 MLOAD PUSH3 0x461BCD PUSH1 0xE5 SHL DUP2 MSTORE PUSH1 0x4 ADD PUSH2 0x415 SWAP1 PUSH2 0x178F JUMP JUMPDEST PUSH1 0x1 SLOAD DUP2 DUP1 ISZERO DUP1 ISZERO SWAP1 PUSH2 0xBAE JUMPI POP DUP2 ISZERO ISZERO JUMPDEST DUP1 ISZERO PUSH2 0xBBA JUMPI POP DUP2 DUP2 GT ISZERO JUMPDEST DUP1 ISZERO PUSH2 0xBD0 JUMPI POP DUP2 PUSH2 0xBCD DUP3 PUSH1 0x2 PUSH2 0x195A JUMP JUMPDEST LT ISZERO JUMPDEST PUSH2 0xBEC JUMPI PUSH1 0x40 MLOAD PUSH3 0x461BCD PUSH1 0xE5 SHL DUP2 MSTORE PUSH1 0x4 ADD PUSH2 0x415 SWAP1 PUSH2 0x1971 JUMP JUMPDEST PUSH1 0x2 DUP4 SWAP1 SSTORE PUSH1 0x40 MLOAD DUP4 DUP2 MSTORE PUSH32 0xA3F1EE9126A074D9326C682F561767F710E927FAA811F7A99829D49DC421797A SWAP1 PUSH1 0x20 ADD PUSH1 0x40 MLOAD DUP1 SWAP2 SUB SWAP1 LOG1 POP POP POP JUMP JUMPDEST PUSH2 0xC31 PUSH2 0x13B4 JUMP JUMPDEST PUSH1 0x3 SLOAD DUP2 SWAP1 DUP2 LT PUSH2 0xC54 JUMPI PUSH1 0x40 MLOAD PUSH3 0x461BCD PUSH1 0xE5 SHL DUP2 MSTORE PUSH1 0x4 ADD PUSH2 0x415 SWAP1 PUSH2 0x1844 JUMP JUMPDEST DUP2 PUSH1 0x3 DUP2 DUP2 SLOAD DUP2 LT PUSH2 0xC68 JUMPI PUSH2 0xC68 PUSH2 0x1804 JUMP JUMPDEST PUSH0 SWAP2 DUP3 MSTORE PUSH1 0x20 SWAP1 SWAP2 KECCAK256 PUSH1 0x3 PUSH1 0x5 SWAP1 SWAP3 MUL ADD ADD SLOAD PUSH1 0xFF AND ISZERO PUSH2 0xC9B JUMPI PUSH1 0x40 MLOAD PUSH3 0x461BCD PUSH1 0xE5 SHL DUP2 MSTORE PUSH1 0x4 ADD PUSH2 0x415 SWAP1 PUSH2 0x1888 JUMP JUMPDEST PUSH0 DUP4 DUP2 MSTORE PUSH1 0x4 PUSH1 0x20 SWAP1 DUP2 MSTORE PUSH1 0x40 DUP1 DUP4 KECCAK256 CALLER DUP5 MSTORE SWAP1 SWAP2 MSTORE SWAP1 KECCAK256 SLOAD DUP4 SWAP1 PUSH1 0xFF AND ISZERO PUSH2 0xD12 JUMPI PUSH1 0x40 MLOAD PUSH3 0x461BCD PUSH1 0xE5 SHL DUP2 MSTORE PUSH1 0x20 PUSH1 0x4 DUP3 ADD MSTORE PUSH1 0x24 DUP1 DUP3 ADD MSTORE PUSH32 0x5472616E73616374696F6E4D616E616765723A207A6174656E206F6E61796C61 PUSH1 0x44 DUP3 ADD MSTORE PUSH4 0x6E6D6973 PUSH1 0xE0 SHL PUSH1 0x64 DUP3 ADD MSTORE PUSH1 0x84 ADD PUSH2 0x415 JUMP JUMPDEST CALLER PUSH0 SWAP1 DUP2 MSTORE PUSH1 0x20 DUP2 SWAP1 MSTORE PUSH1 0x40 SWAP1 KECCAK256 SLOAD PUSH1 0xFF AND PUSH2 0xD40 JUMPI PUSH1 0x40 MLOAD PUSH3 0x461BCD PUSH1 0xE5 SHL DUP2 MSTORE PUSH1 0x4 ADD PUSH2 0x415 SWAP1 PUSH2 0x18D1 JUMP JUMPDEST PUSH0 DUP5 DUP2 MSTORE PUSH1 0x4 PUSH1 0x20 SWAP1 DUP2 MSTORE PUSH1 0x40 DUP1 DUP4 KECCAK256 CALLER DUP5 MSTORE SWAP1 SWAP2 MSTORE SWAP1 KECCAK256 DUP1 SLOAD PUSH1 0xFF NOT AND PUSH1 0x1 SWAP1 DUP2 OR SWAP1 SWAP2 SSTORE PUSH1 0x3 DUP1 SLOAD DUP7 SWAP1 DUP2 LT PUSH2 0xD7A JUMPI PUSH2 0xD7A PUSH2 0x1804 JUMP JUMPDEST SWAP1 PUSH0 MSTORE PUSH1 0x20 PUSH0 KECCAK256 SWAP1 PUSH1 0x5 MUL ADD PUSH1 0x4 ADD PUSH0 DUP3 DUP3 SLOAD PUSH2 0xD97 SWAP2 SWAP1 PUSH2 0x1947 JUMP JUMPDEST SWAP3 POP POP DUP2 SWAP1 SSTORE POP CALLER PUSH1 0x1 PUSH1 0x1 PUSH1 0xA0 SHL SUB AND DUP5 PUSH32 0xFC56AC631A1B9D8326C2A92D7C3E87A2BB05DAFE8CDEAD39BCD8FD53291C20C1 PUSH1 0x3 DUP8 DUP2 SLOAD DUP2 LT PUSH2 0xDDD JUMPI PUSH2 0xDDD PUSH2 0x1804 JUMP JUMPDEST SWAP1 PUSH0 MSTORE PUSH1 0x20 PUSH0 KECCAK256 SWAP1 PUSH1 0x5 MUL ADD PUSH1 0x4 ADD SLOAD PUSH1 0x40 MLOAD PUSH2 0xDFC SWAP2 DUP2 MSTORE PUSH1 0x20 ADD SWAP1 JUMP JUMPDEST PUSH1 0x40 MLOAD DUP1 SWAP2 SUB SWAP1 LOG3 POP POP POP PUSH2 0xE1D PUSH1 0x1 PUSH0 DUP1 MLOAD PUSH1 0x20 PUSH2 0x1B6B DUP4 CODECOPY DUP2 MLOAD SWAP2 MSTORE SSTORE JUMP JUMPDEST POP JUMP JUMPDEST PUSH0 PUSH2 0xE29 PUSH2 0x13B4 JUMP JUMPDEST CALLER PUSH0 SWAP1 DUP2 MSTORE PUSH1 0x20 DUP2 SWAP1 MSTORE PUSH1 0x40 SWAP1 KECCAK256 SLOAD PUSH1 0xFF AND PUSH2 0xE57 JUMPI PUSH1 0x40 MLOAD PUSH3 0x461BCD PUSH1 0xE5 SHL DUP2 MSTORE PUSH1 0x4 ADD PUSH2 0x415 SWAP1 PUSH2 0x18D1 JUMP JUMPDEST PUSH1 0x1 PUSH1 0x1 PUSH1 0xA0 SHL SUB DUP5 AND PUSH2 0xEB7 JUMPI PUSH1 0x40 MLOAD PUSH3 0x461BCD PUSH1 0xE5 SHL DUP2 MSTORE PUSH1 0x20 PUSH1 0x4 DUP3 ADD MSTORE PUSH1 0x21 PUSH1 0x24 DUP3 ADD MSTORE PUSH32 0x4D756C746953696757616C6C65743A2073696669722068656465662061647265 PUSH1 0x44 DUP3 ADD MSTORE PUSH1 0x73 PUSH1 0xF8 SHL PUSH1 0x64 DUP3 ADD MSTORE PUSH1 0x84 ADD PUSH2 0x415 JUMP JUMPDEST PUSH2 0xEC2 DUP5 DUP5 DUP5 PUSH2 0x13CF JUMP JUMPDEST SWAP1 POP PUSH2 0xEDA PUSH1 0x1 PUSH0 DUP1 MLOAD PUSH1 0x20 PUSH2 0x1B6B DUP4 CODECOPY DUP2 MLOAD SWAP2 MSTORE SSTORE JUMP JUMPDEST SWAP4 SWAP3 POP POP POP JUMP JUMPDEST CALLER ADDRESS EQ PUSH2 0xF00 JUMPI PUSH1 0x40 MLOAD PUSH3 0x461BCD PUSH1 0xE5 SHL DUP2 MSTORE PUSH1 0x4 ADD PUSH2 0x415 SWAP1 PUSH2 0x178F JUMP JUMPDEST PUSH1 0x1 PUSH1 0x1 PUSH1 0xA0 SHL SUB DUP3 AND PUSH0 SWAP1 DUP2 MSTORE PUSH1 0x20 DUP2 SWAP1 MSTORE PUSH1 0x40 SWAP1 KECCAK256 SLOAD DUP3 SWAP1 PUSH1 0xFF AND PUSH2 0xF69 JUMPI PUSH1 0x40 MLOAD PUSH3 0x461BCD PUSH1 0xE5 SHL DUP2 MSTORE PUSH1 0x20 PUSH1 0x4 DUP3 ADD MSTORE PUSH1 0x1E PUSH1 0x24 DUP3 ADD MSTORE PUSH32 0x4F776E65724D616E616765723A2073616869702062756C756E616D6164690000 PUSH1 0x44 DUP3 ADD MSTORE PUSH1 0x64 ADD PUSH2 0x415 JUMP JUMPDEST PUSH1 0x1 PUSH1 0x1 PUSH1 0xA0 SHL SUB DUP3 AND PUSH0 SWAP1 DUP2 MSTORE PUSH1 0x20 DUP2 SWAP1 MSTORE PUSH1 0x40 SWAP1 KECCAK256 SLOAD DUP3 SWAP1 PUSH1 0xFF AND ISZERO PUSH2 0xFCF JUMPI PUSH1 0x40 MLOAD PUSH3 0x461BCD PUSH1 0xE5 SHL DUP2 MSTORE PUSH1 0x20 PUSH1 0x4 DUP3 ADD MSTORE PUSH1 0x19 PUSH1 0x24 DUP3 ADD MSTORE PUSH25 0x4F776E65724D616E616765723A207A6174656E20736168697 PUSH1 0x3C SHL PUSH1 0x44 DUP3 ADD MSTORE PUSH1 0x64 ADD PUSH2 0x415 JUMP JUMPDEST DUP3 PUSH1 0x1 PUSH1 0x1 PUSH1 0xA0 SHL SUB DUP2 AND PUSH2 0x1022 JUMPI PUSH1 0x40 MLOAD PUSH3 0x461BCD PUSH1 0xE5 SHL DUP2 MSTORE PUSH1 0x20 PUSH1 0x4 DUP3 ADD MSTORE PUSH1 0x19 PUSH1 0x24 DUP3 ADD MSTORE PUSH25 0x4F776E65724D616E616765723A207369666972206164726573 PUSH1 0x38 SHL PUSH1 0x44 DUP3 ADD MSTORE PUSH1 0x64 ADD PUSH2 0x415 JUMP JUMPDEST PUSH0 JUMPDEST PUSH1 0x1 SLOAD DUP2 LT ISZERO PUSH2 0x10BA JUMPI DUP6 PUSH1 0x1 PUSH1 0x1 PUSH1 0xA0 SHL SUB AND PUSH1 0x1 DUP3 DUP2 SLOAD DUP2 LT PUSH2 0x104B JUMPI PUSH2 0x104B PUSH2 0x1804 JUMP JUMPDEST PUSH0 SWAP2 DUP3 MSTORE PUSH1 0x20 SWAP1 SWAP2 KECCAK256 ADD SLOAD PUSH1 0x1 PUSH1 0x1 PUSH1 0xA0 SHL SUB AND SUB PUSH2 0x10A8 JUMPI DUP5 PUSH1 0x1 DUP3 DUP2 SLOAD DUP2 LT PUSH2 0x1078 JUMPI PUSH2 0x1078 PUSH2 0x1804 JUMP JUMPDEST SWAP1 PUSH0 MSTORE PUSH1 0x20 PUSH0 KECCAK256 ADD PUSH0 PUSH2 0x100 EXP DUP2 SLOAD DUP2 PUSH1 0x1 PUSH1 0x1 PUSH1 0xA0 SHL SUB MUL NOT AND SWAP1 DUP4 PUSH1 0x1 PUSH1 0x1 PUSH1 0xA0 SHL SUB AND MUL OR SWAP1 SSTORE POP PUSH2 0x10BA JUMP JUMPDEST DUP1 PUSH2 0x10B2 DUP2 PUSH2 0x1818 JUMP JUMPDEST SWAP2 POP POP PUSH2 0x1024 JUMP JUMPDEST POP PUSH1 0x1 PUSH1 0x1 PUSH1 0xA0 SHL SUB DUP1 DUP7 AND PUSH0 DUP2 DUP2 MSTORE PUSH1 0x20 DUP2 SWAP1 MSTORE PUSH1 0x40 DUP1 DUP3 KECCAK256 DUP1 SLOAD PUSH1 0xFF NOT SWAP1 DUP2 AND SWAP1 SWAP2 SSTORE SWAP4 DUP9 AND DUP3 MSTORE DUP1 DUP3 KECCAK256 DUP1 SLOAD SWAP1 SWAP5 AND PUSH1 0x1 OR SWAP1 SWAP4 SSTORE SWAP2 MLOAD SWAP1 SWAP2 PUSH32 0x8001553A916EF2F495D26A907CC54D96ED840D7BDA71E73194BF5A9DF7A76B90 SWAP2 LOG2 PUSH1 0x40 MLOAD PUSH1 0x1 PUSH1 0x1 PUSH1 0xA0 SHL SUB DUP6 AND SWAP1 PUSH32 0xF39E6E1EB0EDCF53C221607B54B00CD28F3196FED0A24994DC308B8F611B682D SWAP1 PUSH0 SWAP1 LOG2 POP POP POP POP POP JUMP JUMPDEST PUSH2 0x115B PUSH2 0x13B4 JUMP JUMPDEST PUSH1 0x3 SLOAD DUP2 SWAP1 DUP2 LT PUSH2 0x117E JUMPI PUSH1 0x40 MLOAD PUSH3 0x461BCD PUSH1 0xE5 SHL DUP2 MSTORE PUSH1 0x4 ADD PUSH2 0x415 SWAP1 PUSH2 0x1844 JUMP JUMPDEST DUP2 PUSH1 0x3 DUP2 DUP2 SLOAD DUP2 LT PUSH2 0x1192 JUMPI PUSH2 0x1192 PUSH2 0x1804 JUMP JUMPDEST PUSH0 SWAP2 DUP3 MSTORE PUSH1 0x20 SWAP1 SWAP2 KECCAK256 PUSH1 0x3 PUSH1 0x5 SWAP1 SWAP3 MUL ADD ADD SLOAD PUSH1 0xFF AND ISZERO PUSH2 0x11C5 JUMPI PUSH1 0x40 MLOAD PUSH3 0x461BCD PUSH1 0xE5 SHL DUP2 MSTORE PUSH1 0x4 ADD PUSH2 0x415 SWAP1 PUSH2 0x1888 JUMP JUMPDEST CALLER PUSH0 SWAP1 DUP2 MSTORE PUSH1 0x20 DUP2 SWAP1 MSTORE PUSH1 0x40 SWAP1 KECCAK256 SLOAD PUSH1 0xFF AND PUSH2 0x11F3 JUMPI PUSH1 0x40 MLOAD PUSH3 0x461BCD PUSH1 0xE5 SHL DUP2 MSTORE PUSH1 0x4 ADD PUSH2 0x415 SWAP1 PUSH2 0x18D1 JUMP JUMPDEST PUSH1 0x2 SLOAD PUSH1 0x3 DUP5 DUP2 SLOAD DUP2 LT PUSH2 0x1209 JUMPI PUSH2 0x1209 PUSH2 0x1804 JUMP JUMPDEST SWAP1 PUSH0 MSTORE PUSH1 0x20 PUSH0 KECCAK256 SWAP1 PUSH1 0x5 MUL ADD PUSH1 0x4 ADD SLOAD LT ISZERO PUSH2 0x1273 JUMPI PUSH1 0x40 MLOAD PUSH3 0x461BCD PUSH1 0xE5 SHL DUP2 MSTORE PUSH1 0x20 PUSH1 0x4 DUP3 ADD MSTORE PUSH1 0x24 DUP1 DUP3 ADD MSTORE PUSH32 0x4D756C746953696757616C6C65743A20796574657273697A206F6E6179207361 PUSH1 0x44 DUP3 ADD MSTORE PUSH4 0x79697369 PUSH1 0xE0 SHL PUSH1 0x64 DUP3 ADD MSTORE PUSH1 0x84 ADD PUSH2 0x415 JUMP JUMPDEST PUSH0 PUSH1 0x3 DUP5 DUP2 SLOAD DUP2 LT PUSH2 0x1287 JUMPI PUSH2 0x1287 PUSH2 0x1804 JUMP JUMPDEST PUSH0 SWAP2 DUP3 MSTORE PUSH1 0x20 DUP3 KECCAK256 PUSH1 0x3 PUSH1 0x5 SWAP1 SWAP3 MUL ADD SWAP1 DUP2 ADD DUP1 SLOAD PUSH1 0xFF NOT AND PUSH1 0x1 SWAP1 DUP2 OR SWAP1 SWAP2 SSTORE DUP2 SLOAD SWAP1 DUP3 ADD SLOAD PUSH1 0x40 MLOAD SWAP3 SWAP5 POP PUSH1 0x1 PUSH1 0x1 PUSH1 0xA0 SHL SUB SWAP1 SWAP2 AND SWAP2 PUSH2 0x12CE SWAP1 PUSH1 0x2 DUP7 ADD SWAP1 PUSH2 0x19CE JUMP JUMPDEST PUSH0 PUSH1 0x40 MLOAD DUP1 DUP4 SUB DUP2 DUP6 DUP8 GAS CALL SWAP3 POP POP POP RETURNDATASIZE DUP1 PUSH0 DUP2 EQ PUSH2 0x1308 JUMPI PUSH1 0x40 MLOAD SWAP2 POP PUSH1 0x1F NOT PUSH1 0x3F RETURNDATASIZE ADD AND DUP3 ADD PUSH1 0x40 MSTORE RETURNDATASIZE DUP3 MSTORE RETURNDATASIZE PUSH0 PUSH1 0x20 DUP5 ADD RETURNDATACOPY PUSH2 0x130D JUMP JUMPDEST PUSH1 0x60 SWAP2 POP JUMPDEST POP POP SWAP1 POP DUP1 PUSH2 0x136E JUMPI PUSH1 0x40 MLOAD PUSH3 0x461BCD PUSH1 0xE5 SHL DUP2 MSTORE PUSH1 0x20 PUSH1 0x4 DUP3 ADD MSTORE PUSH1 0x27 PUSH1 0x24 DUP3 ADD MSTORE PUSH32 0x4D756C746953696757616C6C65743A2069736C656D2079757275746D65206261 PUSH1 0x44 DUP3 ADD MSTORE PUSH7 0x39B0B934B9B4BD PUSH1 0xC9 SHL PUSH1 0x64 DUP3 ADD MSTORE PUSH1 0x84 ADD PUSH2 0x415 JUMP JUMPDEST PUSH1 0x40 MLOAD CALLER SWAP1 DUP7 SWAP1 PUSH32 0xFF0D827E815551EF359E2272C2751DE1C593CDFF65E6E59EFAB752E10E9EF6D2 SWAP1 PUSH0 SWAP1 LOG3 POP POP POP POP PUSH2 0xE1D PUSH1 0x1 PUSH0 DUP1 MLOAD PUSH1 0x20 PUSH2 0x1B6B DUP4 CODECOPY DUP2 MLOAD SWAP2 MSTORE SSTORE JUMP JUMPDEST PUSH2 0x13BC PUSH2 0x1520 JUMP JUMPDEST PUSH1 0x2 PUSH0 DUP1 MLOAD PUSH1 0x20 PUSH2 0x1B6B DUP4 CODECOPY DUP2 MLOAD SWAP2 MSTORE SSTORE JUMP JUMPDEST PUSH1 0x3 DUP1 SLOAD PUSH1 0x40 DUP1 MLOAD PUSH1 0xA0 DUP2 ADD DUP3 MSTORE PUSH1 0x1 PUSH1 0x1 PUSH1 0xA0 SHL SUB DUP8 DUP2 AND DUP3 MSTORE PUSH1 0x20 DUP3 ADD DUP8 DUP2 MSTORE SWAP3 DUP3 ADD DUP7 DUP2 MSTORE PUSH0 PUSH1 0x60 DUP5 ADD DUP2 SWAP1 MSTORE PUSH1 0x80 DUP5 ADD DUP2 SWAP1 MSTORE PUSH1 0x1 DUP7 ADD DUP8 SSTORE SWAP6 SWAP1 SWAP6 MSTORE DUP2 MLOAD PUSH32 0xC2575A0E9E593C00F959F8C92F12DB2869C3395A3B0502D05E2516446F71F85B PUSH1 0x5 DUP7 MUL SWAP1 DUP2 ADD DUP1 SLOAD PUSH1 0x1 PUSH1 0x1 PUSH1 0xA0 SHL SUB NOT AND SWAP3 SWAP1 SWAP4 AND SWAP2 SWAP1 SWAP2 OR DUP3 SSTORE SWAP3 MLOAD PUSH32 0xC2575A0E9E593C00F959F8C92F12DB2869C3395A3B0502D05E2516446F71F85C DUP5 ADD SSTORE SWAP4 MLOAD SWAP3 SWAP4 SWAP1 SWAP3 SWAP1 SWAP2 PUSH32 0xC2575A0E9E593C00F959F8C92F12DB2869C3395A3B0502D05E2516446F71F85D ADD SWAP1 PUSH2 0x14AB SWAP1 DUP3 PUSH2 0x1A8E JUMP JUMPDEST POP PUSH1 0x60 DUP3 ADD MLOAD PUSH1 0x3 DUP3 ADD DUP1 SLOAD PUSH1 0xFF NOT AND SWAP2 ISZERO ISZERO SWAP2 SWAP1 SWAP2 OR SWAP1 SSTORE PUSH1 0x80 SWAP1 SWAP2 ADD MLOAD PUSH1 0x4 SWAP1 SWAP2 ADD SSTORE PUSH1 0x40 MLOAD PUSH1 0x1 PUSH1 0x1 PUSH1 0xA0 SHL SUB DUP6 AND SWAP1 CALLER SWAP1 DUP4 SWAP1 PUSH32 0xB7D255440CB386FFE845E52783C32A06625C034E8A0D98615481AF247ED802C3 SWAP1 PUSH2 0x1511 SWAP1 DUP9 SWAP1 DUP9 SWAP1 PUSH2 0x1B4A JUMP JUMPDEST PUSH1 0x40 MLOAD DUP1 SWAP2 SUB SWAP1 LOG4 SWAP4 SWAP3 POP POP POP JUMP JUMPDEST PUSH0 DUP1 MLOAD PUSH1 0x20 PUSH2 0x1B6B DUP4 CODECOPY DUP2 MLOAD SWAP2 MSTORE SLOAD PUSH1 0x2 SUB PUSH2 0x154F JUMPI PUSH1 0x40 MLOAD PUSH4 0x3EE5AEB5 PUSH1 0xE0 SHL DUP2 MSTORE PUSH1 0x4 ADD PUSH1 0x40 MLOAD DUP1 SWAP2 SUB SWAP1 REVERT JUMPDEST JUMP JUMPDEST PUSH0 PUSH1 0x20 DUP3 DUP5 SUB SLT ISZERO PUSH2 0x1561 JUMPI PUSH0 DUP1 REVERT JUMPDEST POP CALLDATALOAD SWAP2 SWAP1 POP JUMP JUMPDEST DUP1 CALLDATALOAD PUSH1 0x1 PUSH1 0x1 PUSH1 0xA0 SHL SUB DUP2 AND DUP2 EQ PUSH2 0x157E JUMPI PUSH0 DUP1 REVERT JUMPDEST SWAP2 SWAP1 POP JUMP JUMPDEST PUSH0 PUSH1 0x20 DUP3 DUP5 SUB SLT ISZERO PUSH2 0x1593 JUMPI PUSH0 DUP1 REVERT JUMPDEST PUSH2 0xEDA DUP3 PUSH2 0x1568 JUMP JUMPDEST PUSH0 DUP2 MLOAD DUP1 DUP5 MSTORE PUSH0 JUMPDEST DUP2 DUP2 LT ISZERO PUSH2 0x15C0 JUMPI PUSH1 0x20 DUP2 DUP6 ADD DUP2 ADD MLOAD DUP7 DUP4 ADD DUP3 ADD MSTORE ADD PUSH2 0x15A4 JUMP JUMPDEST POP PUSH0 PUSH1 0x20 DUP3 DUP7 ADD ADD MSTORE PUSH1 0x20 PUSH1 0x1F NOT PUSH1 0x1F DUP4 ADD AND DUP6 ADD ADD SWAP2 POP POP SWAP3 SWAP2 POP POP JUMP JUMPDEST PUSH1 0x1 DUP1 PUSH1 0xA0 SHL SUB DUP7 AND DUP2 MSTORE DUP5 PUSH1 0x20 DUP3 ADD MSTORE PUSH1 0xA0 PUSH1 0x40 DUP3 ADD MSTORE PUSH0 PUSH2 0x1605 PUSH1 0xA0 DUP4 ADD DUP7 PUSH2 0x159C JUMP JUMPDEST SWAP4 ISZERO ISZERO PUSH1 0x60 DUP4 ADD MSTORE POP PUSH1 0x80 ADD MSTORE SWAP4 SWAP3 POP POP POP JUMP JUMPDEST PUSH0 DUP1 PUSH1 0x40 DUP4 DUP6 SUB SLT ISZERO PUSH2 0x162A JUMPI PUSH0 DUP1 REVERT JUMPDEST DUP3 CALLDATALOAD SWAP2 POP PUSH2 0x163A PUSH1 0x20 DUP5 ADD PUSH2 0x1568 JUMP JUMPDEST SWAP1 POP SWAP3 POP SWAP3 SWAP1 POP JUMP JUMPDEST PUSH1 0x20 DUP1 DUP3 MSTORE DUP3 MLOAD DUP3 DUP3 ADD DUP2 SWAP1 MSTORE PUSH0 SWAP2 SWAP1 DUP5 DUP3 ADD SWAP1 PUSH1 0x40 DUP6 ADD SWAP1 DUP5 JUMPDEST DUP2 DUP2 LT ISZERO PUSH2 0x1683 JUMPI DUP4 MLOAD PUSH1 0x1 PUSH1 0x1 PUSH1 0xA0 SHL SUB AND DUP4 MSTORE SWAP3 DUP5 ADD SWAP3 SWAP2 DUP5 ADD SWAP2 PUSH1 0x1 ADD PUSH2 0x165E JUMP JUMPDEST POP SWAP1 SWAP7 SWAP6 POP POP POP POP POP POP JUMP JUMPDEST PUSH4 0x4E487B71 PUSH1 0xE0 SHL PUSH0 MSTORE PUSH1 0x41 PUSH1 0x4 MSTORE PUSH1 0x24 PUSH0 REVERT JUMPDEST PUSH0 DUP1 PUSH0 PUSH1 0x60 DUP5 DUP7 SUB SLT ISZERO PUSH2 0x16B5 JUMPI PUSH0 DUP1 REVERT JUMPDEST PUSH2 0x16BE DUP5 PUSH2 0x1568 JUMP JUMPDEST SWAP3 POP PUSH1 0x20 DUP5 ADD CALLDATALOAD SWAP2 POP PUSH1 0x40 DUP5 ADD CALLDATALOAD PUSH8 0xFFFFFFFFFFFFFFFF DUP1 DUP3 GT ISZERO PUSH2 0x16E1 JUMPI PUSH0 DUP1 REVERT JUMPDEST DUP2 DUP7 ADD SWAP2 POP DUP7 PUSH1 0x1F DUP4 ADD SLT PUSH2 0x16F4 JUMPI PUSH0 DUP1 REVERT JUMPDEST DUP2 CALLDATALOAD DUP2 DUP2 GT ISZERO PUSH2 0x1706 JUMPI PUSH2 0x1706 PUSH2 0x168F JUMP JUMPDEST PUSH1 0x40 MLOAD PUSH1 0x1F DUP3 ADD PUSH1 0x1F NOT SWAP1 DUP2 AND PUSH1 0x3F ADD AND DUP2 ADD SWAP1 DUP4 DUP3 GT DUP2 DUP4 LT OR ISZERO PUSH2 0x172E JUMPI PUSH2 0x172E PUSH2 0x168F JUMP JUMPDEST DUP2 PUSH1 0x40 MSTORE DUP3 DUP2 MSTORE DUP10 PUSH1 0x20 DUP5 DUP8 ADD ADD GT ISZERO PUSH2 0x1746 JUMPI PUSH0 DUP1 REVERT JUMPDEST DUP3 PUSH1 0x20 DUP7 ADD PUSH1 0x20 DUP4 ADD CALLDATACOPY PUSH0 PUSH1 0x20 DUP5 DUP4 ADD ADD MSTORE DUP1 SWAP6 POP POP POP POP POP POP SWAP3 POP SWAP3 POP SWAP3 JUMP JUMPDEST PUSH0 DUP1 PUSH1 0x40 DUP4 DUP6 SUB SLT ISZERO PUSH2 0x1778 JUMPI PUSH0 DUP1 REVERT JUMPDEST PUSH2 0x1781 DUP4 PUSH2 0x1568 JUMP JUMPDEST SWAP2 POP PUSH2 0x163A PUSH1 0x20 DUP5 ADD PUSH2 0x1568 JUMP JUMPDEST PUSH1 0x20 DUP1 DUP3 MSTORE PUSH1 0x28 SWAP1 DUP3 ADD MSTORE PUSH32 0x4F776E65724D616E616765723A20736164656365206B6F6E7472617420636167 PUSH1 0x40 DUP3 ADD MSTORE PUSH8 0x34B930B134B634B9 PUSH1 0xC1 SHL PUSH1 0x60 DUP3 ADD MSTORE PUSH1 0x80 ADD SWAP1 JUMP JUMPDEST PUSH4 0x4E487B71 PUSH1 0xE0 SHL PUSH0 MSTORE PUSH1 0x11 PUSH1 0x4 MSTORE PUSH1 0x24 PUSH0 REVERT JUMPDEST DUP2 DUP2 SUB DUP2 DUP2 GT ISZERO PUSH2 0x17FE JUMPI PUSH2 0x17FE PUSH2 0x17D7 JUMP JUMPDEST SWAP3 SWAP2 POP POP JUMP JUMPDEST PUSH4 0x4E487B71 PUSH1 0xE0 SHL PUSH0 MSTORE PUSH1 0x32 PUSH1 0x4 MSTORE PUSH1 0x24 PUSH0 REVERT JUMPDEST PUSH0 PUSH1 0x1 DUP3 ADD PUSH2 0x1829 JUMPI PUSH2 0x1829 PUSH2 0x17D7 JUMP JUMPDEST POP PUSH1 0x1 ADD SWAP1 JUMP JUMPDEST PUSH4 0x4E487B71 PUSH1 0xE0 SHL PUSH0 MSTORE PUSH1 0x31 PUSH1 0x4 MSTORE PUSH1 0x24 PUSH0 REVERT JUMPDEST PUSH1 0x20 DUP1 DUP3 MSTORE PUSH1 0x24 SWAP1 DUP3 ADD MSTORE PUSH32 0x5472616E73616374696F6E4D616E616765723A2069736C656D2062756C756E61 PUSH1 0x40 DUP3 ADD MSTORE PUSH4 0x6D616469 PUSH1 0xE0 SHL PUSH1 0x60 DUP3 ADD MSTORE PUSH1 0x80 ADD SWAP1 JUMP JUMPDEST PUSH1 0x20 DUP1 DUP3 MSTORE PUSH1 0x29 SWAP1 DUP3 ADD MSTORE PUSH32 0x5472616E73616374696F6E4D616E616765723A2069736C656D207A6174656E20 PUSH1 0x40 DUP3 ADD MSTORE PUSH9 0x7975727574756C6475 PUSH1 0xB8 SHL PUSH1 0x60 DUP3 ADD MSTORE PUSH1 0x80 ADD SWAP1 JUMP JUMPDEST PUSH1 0x20 DUP1 DUP3 MSTORE PUSH1 0x24 SWAP1 DUP3 ADD MSTORE PUSH32 0x4D756C746953696757616C6C65743A2073616465636520736168697020636167 PUSH1 0x40 DUP3 ADD MSTORE PUSH4 0x34B934B9 PUSH1 0xE1 SHL PUSH1 0x60 DUP3 ADD MSTORE PUSH1 0x80 ADD SWAP1 JUMP JUMPDEST PUSH1 0x1 DUP2 DUP2 SHR SWAP1 DUP3 AND DUP1 PUSH2 0x1929 JUMPI PUSH1 0x7F DUP3 AND SWAP2 POP JUMPDEST PUSH1 0x20 DUP3 LT DUP2 SUB PUSH2 0xAC6 JUMPI PUSH4 0x4E487B71 PUSH1 0xE0 SHL PUSH0 MSTORE PUSH1 0x22 PUSH1 0x4 MSTORE PUSH1 0x24 PUSH0 REVERT JUMPDEST DUP1 DUP3 ADD DUP1 DUP3 GT ISZERO PUSH2 0x17FE JUMPI PUSH2 0x17FE PUSH2 0x17D7 JUMP JUMPDEST DUP1 DUP3 MUL DUP2 ISZERO DUP3 DUP3 DIV DUP5 EQ OR PUSH2 0x17FE JUMPI PUSH2 0x17FE PUSH2 0x17D7 JUMP JUMPDEST PUSH1 0x20 DUP1 DUP3 MSTORE PUSH1 0x37 SWAP1 DUP3 ADD MSTORE PUSH32 0x4F776E65724D616E616765723A20676563657273697A204D2076657961204E20 PUSH1 0x40 DUP3 ADD MSTORE PUSH32 0x64656765726920284D203E3D204E2F3220736172746929000000000000000000 PUSH1 0x60 DUP3 ADD MSTORE PUSH1 0x80 ADD SWAP1 JUMP JUMPDEST PUSH0 DUP1 DUP4 SLOAD PUSH2 0x19DB DUP2 PUSH2 0x1915 JUMP JUMPDEST PUSH1 0x1 DUP3 DUP2 AND DUP1 ISZERO PUSH2 0x19F3 JUMPI PUSH1 0x1 DUP2 EQ PUSH2 0x1A08 JUMPI PUSH2 0x1A34 JUMP JUMPDEST PUSH1 0xFF NOT DUP5 AND DUP8 MSTORE DUP3 ISZERO ISZERO DUP4 MUL DUP8 ADD SWAP5 POP PUSH2 0x1A34 JUMP JUMPDEST DUP8 PUSH0 MSTORE PUSH1 0x20 DUP1 PUSH0 KECCAK256 PUSH0 JUMPDEST DUP6 DUP2 LT ISZERO PUSH2 0x1A2B JUMPI DUP2 SLOAD DUP11 DUP3 ADD MSTORE SWAP1 DUP5 ADD SWAP1 DUP3 ADD PUSH2 0x1A12 JUMP JUMPDEST POP POP POP DUP3 DUP8 ADD SWAP5 POP JUMPDEST POP SWAP3 SWAP7 SWAP6 POP POP POP POP POP POP JUMP JUMPDEST PUSH1 0x1F DUP3 GT ISZERO PUSH2 0x1A89 JUMPI PUSH0 DUP2 DUP2 MSTORE PUSH1 0x20 DUP2 KECCAK256 PUSH1 0x1F DUP6 ADD PUSH1 0x5 SHR DUP2 ADD PUSH1 0x20 DUP7 LT ISZERO PUSH2 0x1A66 JUMPI POP DUP1 JUMPDEST PUSH1 0x1F DUP6 ADD PUSH1 0x5 SHR DUP3 ADD SWAP2 POP JUMPDEST DUP2 DUP2 LT ISZERO PUSH2 0x1A85 JUMPI DUP3 DUP2 SSTORE PUSH1 0x1 ADD PUSH2 0x1A72 JUMP JUMPDEST POP POP POP JUMPDEST POP POP POP JUMP JUMPDEST DUP2 MLOAD PUSH8 0xFFFFFFFFFFFFFFFF DUP2 GT ISZERO PUSH2 0x1AA8 JUMPI PUSH2 0x1AA8 PUSH2 0x168F JUMP JUMPDEST PUSH2 0x1ABC DUP2 PUSH2 0x1AB6 DUP5 SLOAD PUSH2 0x1915 JUMP JUMPDEST DUP5 PUSH2 0x1A40 JUMP JUMPDEST PUSH1 0x20 DUP1 PUSH1 0x1F DUP4 GT PUSH1 0x1 DUP2 EQ PUSH2 0x1AEF JUMPI PUSH0 DUP5 ISZERO PUSH2 0x1AD8 JUMPI POP DUP6 DUP4 ADD MLOAD JUMPDEST PUSH0 NOT PUSH1 0x3 DUP7 SWAP1 SHL SHR NOT AND PUSH1 0x1 DUP6 SWAP1 SHL OR DUP6 SSTORE PUSH2 0x1A85 JUMP JUMPDEST PUSH0 DUP6 DUP2 MSTORE PUSH1 0x20 DUP2 KECCAK256 PUSH1 0x1F NOT DUP7 AND SWAP2 JUMPDEST DUP3 DUP2 LT ISZERO PUSH2 0x1B1D JUMPI DUP9 DUP7 ADD MLOAD DUP3 SSTORE SWAP5 DUP5 ADD SWAP5 PUSH1 0x1 SWAP1 SWAP2 ADD SWAP1 DUP5 ADD PUSH2 0x1AFE JUMP JUMPDEST POP DUP6 DUP3 LT ISZERO PUSH2 0x1B3A JUMPI DUP8 DUP6 ADD MLOAD PUSH0 NOT PUSH1 0x3 DUP9 SWAP1 SHL PUSH1 0xF8 AND SHR NOT AND DUP2 SSTORE JUMPDEST POP POP POP POP POP PUSH1 0x1 SWAP1 DUP2 SHL ADD SWAP1 SSTORE POP JUMP JUMPDEST DUP3 DUP2 MSTORE PUSH1 0x40 PUSH1 0x20 DUP3 ADD MSTORE PUSH0 PUSH2 0x1B62 PUSH1 0x40 DUP4 ADD DUP5 PUSH2 0x159C JUMP JUMPDEST SWAP5 SWAP4 POP POP POP POP JUMP INVALID SWAP12 PUSH24 0x9B17422D0DF92223018B32B4D1FA46E071723D6817E2486D STOP EXTCODESIZE 0xEC 0xC5 PUSH0 STOP LOG2 PUSH5 0x6970667358 0x22 SLT KECCAK256 0xE0 0xE3 CALLDATACOPY 0xC6 0xBB 0xA5 0x4A MULMOD 0xB2 MSTORE DUP1 JUMPI DUP3 DUP3 0xD2 0xDA JUMP 0xB5 GT DUP14 EXP 0x22 JUMPI 0x28 CALLDATASIZE PUSH13 0x39CC20EBF52F64736F6C634300 ADDMOD EQ STOP CALLER "},"methodIdentifiers":{"addOwner(address)":"7065cb48","changeRequirement(uint256)":"ba51a6df","confirmTransaction(uint256)":"c01a8c84","confirmed(uint256,address)":"8790c1de","executeTransaction(uint256)":"ee22610b","getBalance()":"12065fe0","getConfirmationStatus(uint256,address)":"78810a3b","getOwners()":"a0e67e2b","getTransaction(uint256)":"33ea3dc8","getTransactionCount()":"2e7700f0","isConfirmed(uint256)":"784547a7","isOwner(address)":"2f54bf6e","numConfirmationsRequired()":"d0549b85","owners(uint256)":"025e7c27","removeOwner(address)":"173825d9","replaceOwner(address,address)":"e20056e6","revokeConfirmation(uint256)":"20ea8d86","submitTransaction(address,uint256,bytes)":"c6427474"}}}}}