{"project/contracts/MultiSigWallet.sol":{"MultiSigWallet":{"abi":[{"inputs":[{"internalType":"address[]","name":"_owners","type":"address[]"},{"internalType":"uint256","name":"_numConfirmationsRequired","type":"uint256"}],"stateMutability":"nonpayable","type":"constructor"},{"inputs":[],"name":"ReentrancyGuardReentrantCall","type":"error"},{"anonymous":false,"inputs":[{"indexed":true,"internalType":"uint256","name":"txIndex","type":"uint256"},{"indexed":true,"internalType":"address","name":"confirmer","type":"address"},{"indexed":false,"internalType":"uint256","name":"confirmationCount","type":"uint256"}],"name":"ConfirmTransaction","type":"event"},{"anonymous":false,"inputs":[{"indexed":true,"internalType":"address","name":"sender","type":"address"},{"indexed":false,"internalType":"uint256","name":"amount","type":"uint256"},{"indexed":false,"internalType":"uint256","name":"balance","type":"uint256"}],"name":"Deposit","type":"event"},{"anonymous":false,"inputs":[{"indexed":true,"internalType":"address","name":"triggeredBy","type":"address"}],"name":"EmergencyPaused","type":"event"},{"anonymous":false,"inputs":[{"indexed":true,"internalType":"address","name":"triggeredBy","type":"address"}],"name":"EmergencyUnpaused","type":"event"},{"anonymous":false,"inputs":[{"indexed":true,"internalType":"uint256","name":"txIndex","type":"uint256"},{"indexed":true,"internalType":"address","name":"executor","type":"address"}],"name":"ExecuteTransaction","type":"event"},{"anonymous":false,"inputs":[{"indexed":true,"internalType":"address","name":"owner","type":"address"}],"name":"OwnerAddition","type":"event"},{"anonymous":false,"inputs":[{"indexed":true,"internalType":"address","name":"owner","type":"address"}],"name":"OwnerRemoval","type":"event"},{"anonymous":false,"inputs":[{"indexed":false,"internalType":"uint256","name":"required","type":"uint256"}],"name":"RequirementChange","type":"event"},{"anonymous":false,"inputs":[{"indexed":true,"internalType":"uint256","name":"txIndex","type":"uint256"},{"indexed":true,"internalType":"address","name":"revoker","type":"address"}],"name":"RevokeConfirmation","type":"event"},{"anonymous":false,"inputs":[{"indexed":true,"internalType":"uint256","name":"txIndex","type":"uint256"},{"indexed":true,"internalType":"address","name":"submitter","type":"address"},{"indexed":true,"internalType":"address","name":"to","type":"address"},{"indexed":false,"internalType":"uint256","name":"value","type":"uint256"},{"indexed":false,"internalType":"bytes","name":"data","type":"bytes"}],"name":"SubmitTransaction","type":"event"},{"anonymous":false,"inputs":[{"indexed":false,"internalType":"uint256","name":"newDuration","type":"uint256"}],"name":"TimeLockDurationChanged","type":"event"},{"anonymous":false,"inputs":[{"indexed":true,"internalType":"uint256","name":"txIndex","type":"uint256"},{"indexed":false,"internalType":"uint256","name":"unlockTime","type":"uint256"}],"name":"TimeLockTriggered","type":"event"},{"inputs":[],"name":"DOMAIN_SEPARATOR","outputs":[{"internalType":"bytes32","name":"","type":"bytes32"}],"stateMutability":"view","type":"function"},{"inputs":[{"internalType":"address","name":"owner","type":"address"}],"name":"addOwner","outputs":[],"stateMutability":"nonpayable","type":"function"},{"inputs":[{"internalType":"uint256","name":"_required","type":"uint256"}],"name":"changeRequirement","outputs":[],"stateMutability":"nonpayable","type":"function"},{"inputs":[{"internalType":"uint256","name":"_duration","type":"uint256"}],"name":"changeTimeLockDuration","outputs":[],"stateMutability":"nonpayable","type":"function"},{"inputs":[{"internalType":"uint256","name":"_txIndex","type":"uint256"}],"name":"confirmTransaction","outputs":[],"stateMutability":"nonpayable","type":"function"},{"inputs":[{"internalType":"uint256","name":"","type":"uint256"},{"internalType":"address","name":"","type":"address"}],"name":"confirmed","outputs":[{"internalType":"bool","name":"","type":"bool"}],"stateMutability":"view","type":"function"},{"inputs":[{"internalType":"uint256","name":"_txIndex","type":"uint256"}],"name":"executeTransaction","outputs":[],"stateMutability":"nonpayable","type":"function"},{"inputs":[],"name":"getBalance","outputs":[{"internalType":"uint256","name":"","type":"uint256"}],"stateMutability":"view","type":"function"},{"inputs":[],"name":"getChainId","outputs":[{"internalType":"uint256","name":"","type":"uint256"}],"stateMutability":"view","type":"function"},{"inputs":[{"internalType":"uint256","name":"_txIndex","type":"uint256"},{"internalType":"address","name":"_owner","type":"address"}],"name":"getConfirmationStatus","outputs":[{"internalType":"bool","name":"","type":"bool"}],"stateMutability":"view","type":"function"},{"inputs":[],"name":"getOwners","outputs":[{"internalType":"address[]","name":"","type":"address[]"}],"stateMutability":"view","type":"function"},{"inputs":[{"internalType":"uint256","name":"_txIndex","type":"uint256"}],"name":"getTransaction","outputs":[{"internalType":"address","name":"to","type":"address"},{"internalType":"uint256","name":"value","type":"uint256"},{"internalType":"bytes","name":"data","type":"bytes"},{"internalType":"bool","name":"executed","type":"bool"},{"internalType":"uint256","name":"numConfirmations","type":"uint256"}],"stateMutability":"view","type":"function"},{"inputs":[],"name":"getTransactionCount","outputs":[{"internalType":"uint256","name":"","type":"uint256"}],"stateMutability":"view","type":"function"},{"inputs":[{"internalType":"uint256","name":"_txIndex","type":"uint256"}],"name":"getTransactionHash","outputs":[{"internalType":"bytes32","name":"","type":"bytes32"}],"stateMutability":"view","type":"function"},{"inputs":[{"internalType":"uint256","name":"_txIndex","type":"uint256"}],"name":"isConfirmed","outputs":[{"internalType":"bool","name":"","type":"bool"}],"stateMutability":"view","type":"function"},{"inputs":[{"internalType":"address","name":"","type":"address"}],"name":"isOwner","outputs":[{"internalType":"bool","name":"","type":"bool"}],"stateMutability":"view","type":"function"},{"inputs":[],"name":"nonce","outputs":[{"internalType":"uint256","name":"","type":"uint256"}],"stateMutability":"view","type":"function"},{"inputs":[],"name":"numConfirmationsRequired","outputs":[{"internalType":"uint256","name":"","type":"uint256"}],"stateMutability":"view","type":"function"},{"inputs":[{"internalType":"uint256","name":"","type":"uint256"}],"name":"owners","outputs":[{"internalType":"address","name":"","type":"address"}],"stateMutability":"view","type":"function"},{"inputs":[],"name":"pause","outputs":[],"stateMutability":"nonpayable","type":"function"},{"inputs":[],"name":"paused","outputs":[{"internalType":"bool","name":"","type":"bool"}],"stateMutability":"view","type":"function"},{"inputs":[{"internalType":"uint256","name":"","type":"uint256"}],"name":"readyTime","outputs":[{"internalType":"uint256","name":"","type":"uint256"}],"stateMutability":"view","type":"function"},{"inputs":[{"internalType":"address","name":"owner","type":"address"}],"name":"removeOwner","outputs":[],"stateMutability":"nonpayable","type":"function"},{"inputs":[{"internalType":"address","name":"owner","type":"address"},{"internalType":"address","name":"newOwner","type":"address"}],"name":"replaceOwner","outputs":[],"stateMutability":"nonpayable","type":"function"},{"inputs":[{"internalType":"uint256","name":"_txIndex","type":"uint256"}],"name":"revokeConfirmation","outputs":[],"stateMutability":"nonpayable","type":"function"},{"inputs":[{"internalType":"address","name":"_to","type":"address"},{"internalType":"uint256","name":"_value","type":"uint256"},{"internalType":"bytes","name":"_data","type":"bytes"}],"name":"submitTransaction","outputs":[{"internalType":"uint256","name":"txIndex","type":"uint256"}],"stateMutability":"nonpayable","type":"function"},{"inputs":[],"name":"timeLockDuration","outputs":[{"internalType":"uint256","name":"","type":"uint256"}],"stateMutability":"view","type":"function"},{"inputs":[],"name":"unpause","outputs":[],"stateMutability":"nonpayable","type":"function"},{"stateMutability":"payable","type":"receive"}],"evm":{"bytecode":{"linkReferences":{},"object":"60c060405261012c60065534801562000016575f80fd5b506040516200289a3803806200289a8339810160408190526200003991620003f0565b60017f9b779b17422d0df92223018b32b4d1fa46e071723d6817e2486d003becc55f00558151620000bf5760405162461bcd60e51b815260206004820152602560248201527f4d756c746953696757616c6c65743a20656e20617a203120736168697020676560448201526472656b6c6960d81b60648201526084015b60405180910390fd5b5f81118015620000d0575081518111155b8015620000ea57508151620000e7826002620004d9565b10155b6200015e5760405162461bcd60e51b815260206004820152603960248201527f4d756c746953696757616c6c65743a20676563657273697a204d20766579612060448201527f4e2064656765726920284d203e3d204e2f3220736172746929000000000000006064820152608401620000b6565b5f5b8251811015620002df575f838281518110620001805762000180620004f9565b602002602001015190505f6001600160a01b0316816001600160a01b031603620001ed5760405162461bcd60e51b815260206004820152601b60248201527f4d756c746953696757616c6c65743a20736966697220616472657300000000006044820152606401620000b6565b6001600160a01b0381165f9081526020819052604090205460ff16156200026a5760405162461bcd60e51b815260206004820152602a60248201527f4d756c746953696757616c6c65743a207361686970206164726573692074656b6044820152693930b93630b730b6b0bd60b11b6064820152608401620000b6565b6001600160a01b03165f818152602081905260408120805460ff191660019081179091558054808201825591527fb10e2d527612073b26eecdfd717e6a320cf44b4afac2b0732d9fcbe2b7fa0cf60180546001600160a01b031916909117905580620002d6816200050d565b91505062000160565b50600255504660a0818152604080518082018252600e81526d135d5b1d1a54da59d5d85b1b195d60921b6020918201528151808301835260018152603160f81b9082015281517f8b73c3c69bb8fe3d512ecc4cf759cc79239f7b179b0ffacaa9a75d522b39400f818301527fd224391e05bea8df3d0cd26822c30d350d1e6173f271e8862b4f063b01773bec818401527fc89efdaa54c0f20c7adf612882df0950f5a951637e0307cdcb4c672f298b8bc6606082015260808082019590955230818501528251808203909401845260c0019091528151910120905262000528565b634e487b7160e01b5f52604160045260245ffd5b80516001600160a01b0381168114620003eb575f80fd5b919050565b5f806040838503121562000402575f80fd5b82516001600160401b038082111562000419575f80fd5b818501915085601f8301126200042d575f80fd5b8151602082821115620004445762000444620003c0565b8160051b604051601f19603f830116810181811086821117156200046c576200046c620003c0565b6040529283528183019350848101820192898411156200048a575f80fd5b948201945b83861015620004b357620004a386620003d4565b855294820194938201936200048f565b97909101519698969750505050505050565b634e487b7160e01b5f52601160045260245ffd5b8082028115828204841417620004f357620004f3620004c5565b92915050565b634e487b7160e01b5f52603260045260245ffd5b5f60018201620005215762000521620004c5565b5060010190565b60805160a051612349620005515f395f6118ac01525f8181610382015261061d01526123495ff3fe6080604052600436106101b2575f3560e01c8063784547a7116100e7578063c01a8c8411610087578063d0549b8511610062578063d0549b851461052d578063e20056e614610542578063ee22610b14610561578063ff96df4414610580575f80fd5b8063c01a8c84146104d0578063c6427474146104ef578063cd105b321461050e575f80fd5b80638790c1de116100c25780638790c1de14610442578063a0e67e2b1461047b578063affed0e01461049c578063ba51a6df146104b1575f80fd5b8063784547a7146103f057806378810a3b1461040f5780638456cb591461042e575f80fd5b80632f54bf6e116101525780633644e5151161012d5780633644e515146103715780633f4ba83a146103a45780635c975abb146103b85780637065cb48146103d1575f80fd5b80632f54bf6e146102f157806333ea3dc81461032f5780633408e4701461035f575f80fd5b8063173825d91161018d578063173825d91461027257806319e24d121461029357806320ea8d86146102be5780632e7700f0146102dd575f80fd5b8063025e7c27146101f7578063111343841461023357806312065fe014610260575f80fd5b366101f3576040805134815247602082015233917f90890809c654f11d6e72a28fa60149770a0d11ec6c92319d6ceb2bb0a4ea1a15910160405180910390a2005b5f80fd5b348015610202575f80fd5b50610216610211366004611c98565b610595565b6040516001600160a01b0390911681526020015b60405180910390f35b34801561023e575f80fd5b5061025261024d366004611c98565b6105bd565b60405190815260200161022a565b34801561026b575f80fd5b5047610252565b34801561027d575f80fd5b5061029161028c366004611cca565b61071f565b005b34801561029e575f80fd5b506102526102ad366004611c98565b60056020525f908152604090205481565b3480156102c9575f80fd5b506102916102d8366004611c98565b61091e565b3480156102e8575f80fd5b50600354610252565b3480156102fc575f80fd5b5061031f61030b366004611cca565b5f6020819052908152604090205460ff1681565b604051901515815260200161022a565b34801561033a575f80fd5b5061034e610349366004611c98565b610adb565b60405161022a959493929190611d26565b34801561036a575f80fd5b5046610252565b34801561037c575f80fd5b506102527f000000000000000000000000000000000000000000000000000000000000000081565b3480156103af575f80fd5b50610291610bf6565b3480156103c3575f80fd5b5060085461031f9060ff1681565b3480156103dc575f80fd5b506102916103eb366004611cca565b610cac565b3480156103fb575f80fd5b5061031f61040a366004611c98565b610e6e565b34801561041a575f80fd5b5061031f610429366004611d60565b610ec3565b348015610439575f80fd5b50610291610f14565b34801561044d575f80fd5b5061031f61045c366004611d60565b600460209081525f928352604080842090915290825290205460ff1681565b348015610486575f80fd5b5061048f610fce565b60405161022a9190611d8a565b3480156104a7575f80fd5b5061025260095481565b3480156104bc575f80fd5b506102916104cb366004611c98565b61102e565b3480156104db575f80fd5b506102916104ea366004611c98565b6110da565b3480156104fa575f80fd5b50610252610509366004611dea565b611328565b348015610519575f80fd5b50610291610528366004611c98565b61140c565b348015610538575f80fd5b5061025260025481565b34801561054d575f80fd5b5061029161055c366004611eae565b611466565b34801561056c575f80fd5b5061029161057b366004611c98565b6116da565b34801561058b575f80fd5b5061025260065481565b600181815481106105a4575f80fd5b5f918252602090912001546001600160a01b0316905081565b6003545f90829081106105eb5760405162461bcd60e51b81526004016105e290611ed6565b60405180910390fd5b5f600384815481106105ff576105ff611f1a565b5f9182526020909120600590910201805460018201546040519293507f0000000000000000000000000000000000000000000000000000000000000000927fff7f6369725038dc5cae3c299d1dc292462f576f01405fd379b65be89fe6e0f2926001600160a01b03169190610678906002870190611f60565b6040519081900381206009546106c2959493928b91906020019586526001600160a01b0394909416602086015260408501929092526060840152608083015260a082015260c00190565b604051602081830303815290604052805190602001206040516020016106ff92919061190160f01b81526002810192909252602282015260420190565b604051602081830303815290604052805190602001209250505b50919050565b33301461073e5760405162461bcd60e51b81526004016105e290611fd2565b6001600160a01b0381165f90815260208190526040902054819060ff166107a75760405162461bcd60e51b815260206004820152601e60248201527f4f776e65724d616e616765723a2073616869702062756c756e616d616469000060448201526064016105e2565b6001600160a01b0382165f908152602081905260408120805460ff19169055600154905b6107d660018361202e565b81101561089c57836001600160a01b0316600182815481106107fa576107fa611f1a565b5f918252602090912001546001600160a01b03160361088a57600161081f818461202e565b8154811061082f5761082f611f1a565b5f91825260209091200154600180546001600160a01b03909216918390811061085a5761085a611f1a565b905f5260205f20015f6101000a8154816001600160a01b0302191690836001600160a01b0316021790555061089c565b8061089481612047565b9150506107cb565b5060018054806108ae576108ae61205f565b5f8281526020902081015f1990810180546001600160a01b031916905501905560015460025411156108e6576001546108e69061102e565b6040516001600160a01b038416907f8001553a916ef2f495d26a907cc54d96ed840d7bda71e73194bf5a9df7a76b90905f90a2505050565b60085460ff16156109415760405162461bcd60e51b81526004016105e290612073565b600354819081106109645760405162461bcd60e51b81526004016105e290611ed6565b816003818154811061097857610978611f1a565b5f91825260209091206003600590920201015460ff16156109ab5760405162461bcd60e51b81526004016105e2906120b5565b5f838152600460209081526040808320338452909152902054839060ff16610a215760405162461bcd60e51b815260206004820152602360248201527f5472616e73616374696f6e4d616e616765723a206f6e61792062756c756e616d60448201526261646960e81b60648201526084016105e2565b335f9081526020819052604090205460ff16610a4f5760405162461bcd60e51b81526004016105e2906120fe565b5f8481526004602090815260408083203384529091529020805460ff19169055600380546001919086908110610a8757610a87611f1a565b905f5260205f2090600502016004015f828254610aa4919061202e565b9091555050604051339085907f7f8ce8e4f5a5b480ff78c18404639350996fd63efc83ace55b1d6a3e12158e24905f90a350505050565b5f8060605f80856003805490508110610b065760405162461bcd60e51b81526004016105e290611ed6565b5f60038881548110610b1a57610b1a611f1a565b5f918252602090912060059091020180546001820154600383015460048401546002850180549596506001600160a01b039094169492939260ff909216918390610b6390611f2e565b80601f0160208091040260200160405190810160405280929190818152602001828054610b8f90611f2e565b8015610bda5780601f10610bb157610100808354040283529160200191610bda565b820191905f5260205f20905b815481529060010190602001808311610bbd57829003601f168201915b5050505050925096509650965096509650505091939590929450565b335f9081526020819052604090205460ff16610c245760405162461bcd60e51b81526004016105e2906120fe565b60085460ff16610c765760405162461bcd60e51b815260206004820152601b60248201527f4d756c746953696757616c6c65743a207a6174656e20616b746966000000000060448201526064016105e2565b6008805460ff1916905560405133907ff5cbf596165cc457b2cd92e8d8450827ee314968160a5696402d75766fc52caf905f90a2565b333014610ccb5760405162461bcd60e51b81526004016105e290611fd2565b6001600160a01b0381165f90815260208190526040902054819060ff1615610d315760405162461bcd60e51b815260206004820152601960248201527804f776e65724d616e616765723a207a6174656e20736168697603c1b60448201526064016105e2565b816001600160a01b038116610d845760405162461bcd60e51b81526020600482015260196024820152784f776e65724d616e616765723a20736966697220616472657360381b60448201526064016105e2565b60018054610d9191612142565b6002548015801590610da257508115155b8015610dae5750818111155b8015610dc4575081610dc1826002612155565b10155b610de05760405162461bcd60e51b81526004016105e29061216c565b6001600160a01b0385165f81815260208190526040808220805460ff19166001908117909155805480820182559083527fb10e2d527612073b26eecdfd717e6a320cf44b4afac2b0732d9fcbe2b7fa0cf60180546001600160a01b03191684179055517ff39e6e1eb0edcf53c221607b54b00cd28f3196fed0a24994dc308b8f611b682d9190a25050505050565b6003545f9082908110610e935760405162461bcd60e51b81526004016105e290611ed6565b60025460038481548110610ea957610ea9611f1a565b905f5260205f209060050201600401541015915050919050565b6003545f9083908110610ee85760405162461bcd60e51b81526004016105e290611ed6565b50505f9182526004602090815260408084206001600160a01b0393909316845291905290205460ff1690565b335f9081526020819052604090205460ff16610f425760405162461bcd60e51b81526004016105e2906120fe565b60085460ff1615610f955760405162461bcd60e51b815260206004820181905260248201527f4d756c746953696757616c6c65743a207a6174656e20647572647572756c647560448201526064016105e2565b6008805460ff1916600117905560405133907fb8fad2fa0ed7a383e747c309ef2c4391d7b65592a48893e57ccc1fab70791456905f90a2565b6060600180548060200260200160405190810160405280929190818152602001828054801561102457602002820191905f5260205f20905b81546001600160a01b03168152600190910190602001808311611006575b5050505050905090565b33301461104d5760405162461bcd60e51b81526004016105e290611fd2565b60015481801580159061105f57508115155b801561106b5750818111155b801561108157508161107e826002612155565b10155b61109d5760405162461bcd60e51b81526004016105e29061216c565b60028390556040518381527fa3f1ee9126a074d9326c682f561767f710e927faa811f7a99829d49dc421797a9060200160405180910390a1505050565b6110e2611a6e565b60085460ff16156111055760405162461bcd60e51b81526004016105e290612073565b600354819081106111285760405162461bcd60e51b81526004016105e290611ed6565b816003818154811061113c5761113c611f1a565b5f91825260209091206003600590920201015460ff161561116f5760405162461bcd60e51b81526004016105e2906120b5565b5f838152600460209081526040808320338452909152902054839060ff16156111e65760405162461bcd60e51b8152602060048201526024808201527f5472616e73616374696f6e4d616e616765723a207a6174656e206f6e61796c616044820152636e6d697360e01b60648201526084016105e2565b335f9081526020819052604090205460ff166112145760405162461bcd60e51b81526004016105e2906120fe565b5f8481526004602090815260408083203384529091529020805460ff19166001908117909155600380548690811061124e5761124e611f1a565b905f5260205f2090600502016004015f82825461126b9190612142565b92505081905550336001600160a01b0316847ffc56ac631a1b9d8326c2a92d7c3e87a2bb05dafe8cdead39bcd8fd53291c20c1600387815481106112b1576112b1611f1a565b905f5260205f209060050201600401546040516112d091815260200190565b60405180910390a3600254600385815481106112ee576112ee611f1a565b905f5260205f209060050201600401541061130c5761130c84611a89565b50505061132560015f805160206122f483398151915255565b50565b5f611331611a6e565b60085460ff16156113545760405162461bcd60e51b81526004016105e290612073565b335f9081526020819052604090205460ff166113825760405162461bcd60e51b81526004016105e2906120fe565b6001600160a01b0384166113e25760405162461bcd60e51b815260206004820152602160248201527f4d756c746953696757616c6c65743a20736966697220686564656620616472656044820152607360f81b60648201526084016105e2565b6113ed848484611b16565b905061140560015f805160206122f483398151915255565b9392505050565b33301461142b5760405162461bcd60e51b81526004016105e290611fd2565b60068190556040518181527f9f612377cda61e4cab2ecdcc38839d6e27832dbc0add9b1cbca8aad006c16f4d9060200160405180910390a150565b3330146114855760405162461bcd60e51b81526004016105e290611fd2565b6001600160a01b0382165f90815260208190526040902054829060ff166114ee5760405162461bcd60e51b815260206004820152601e60248201527f4f776e65724d616e616765723a2073616869702062756c756e616d616469000060448201526064016105e2565b6001600160a01b0382165f90815260208190526040902054829060ff16156115545760405162461bcd60e51b815260206004820152601960248201527804f776e65724d616e616765723a207a6174656e20736168697603c1b60448201526064016105e2565b826001600160a01b0381166115a75760405162461bcd60e51b81526020600482015260196024820152784f776e65724d616e616765723a20736966697220616472657360381b60448201526064016105e2565b6001545f5b8181101561164057866001600160a01b0316600182815481106115d1576115d1611f1a565b5f918252602090912001546001600160a01b03160361162e5785600182815481106115fe576115fe611f1a565b905f5260205f20015f6101000a8154816001600160a01b0302191690836001600160a01b03160217905550611640565b8061163881612047565b9150506115ac565b506001600160a01b038087165f81815260208190526040808220805460ff1990811690915593891682528082208054909416600117909355915190917f8001553a916ef2f495d26a907cc54d96ed840d7bda71e73194bf5a9df7a76b9091a26040516001600160a01b038616907ff39e6e1eb0edcf53c221607b54b00cd28f3196fed0a24994dc308b8f611b682d905f90a2505050505050565b6116e2611a6e565b60085460ff16156117055760405162461bcd60e51b81526004016105e290612073565b600354819081106117285760405162461bcd60e51b81526004016105e290611ed6565b816003818154811061173c5761173c611f1a565b5f91825260209091206003600590920201015460ff161561176f5760405162461bcd60e51b81526004016105e2906120b5565b5f83815260076020526040902054839060ff16801561179b57505f818152600560205260409020544210155b6117fc5760405162461bcd60e51b815260206004820152602c60248201527f5472616e73616374696f6e4d616e616765723a2074696d652d6c6f636b20737560448201526b7265736920646f6c6d61646960a01b60648201526084016105e2565b335f9081526020819052604090205460ff1661182a5760405162461bcd60e51b81526004016105e2906120fe565b6002546003858154811061184057611840611f1a565b905f5260205f2090600502016004015410156118aa5760405162461bcd60e51b8152602060048201526024808201527f4d756c746953696757616c6c65743a20796574657273697a206f6e61792073616044820152637969736960e01b60648201526084016105e2565b7f000000000000000000000000000000000000000000000000000000000000000046146119195760405162461bcd60e51b815260206004820152601d60248201527f4d756c746953696757616c6c65743a2079616e6c6973207a696e63697200000060448201526064016105e2565b5f6003858154811061192d5761192d611f1a565b5f918252602082206003600590920201908101805460ff1916600117905560098054919350909161195d83612047565b9091555050805460018201546040515f926001600160a01b03169190611987906002860190611f60565b5f6040518083038185875af1925050503d805f81146119c1576040519150601f19603f3d011682016040523d82523d5f602084013e6119c6565b606091505b5050905080611a275760405162461bcd60e51b815260206004820152602760248201527f4d756c746953696757616c6c65743a2069736c656d2079757275746d6520626160448201526639b0b934b9b4bd60c91b60648201526084016105e2565b604051339087907fff0d827e815551ef359e2272c2751de1c593cdff65e6e59efab752e10e9ef6d2905f90a3505050505061132560015f805160206122f483398151915255565b611a76611c67565b60025f805160206122f483398151915255565b5f8181526007602052604090205460ff16611325575f818152600760205260408120805460ff19166001179055600654611ac39042612142565b5f83815260056020526040908190208290555190915082907fd09d8a4004de7142808df13dd454366f187019080b2fe2d5875f9a84f248b64990611b0a9084815260200190565b60405180910390a25050565b600380546040805160a0810182526001600160a01b038781168252602082018781529282018681525f60608401819052608084018190526001860187559590955281517fc2575a0e9e593c00f959f8c92f12db2869c3395a3b0502d05e2516446f71f85b6005860290810180546001600160a01b0319169290931691909117825592517fc2575a0e9e593c00f959f8c92f12db2869c3395a3b0502d05e2516446f71f85c84015593519293909290917fc2575a0e9e593c00f959f8c92f12db2869c3395a3b0502d05e2516446f71f85d0190611bf29082612217565b50606082015160038201805460ff19169115159190911790556080909101516004909101556040516001600160a01b03851690339083907fb7d255440cb386ffe845e52783c32a06625c034e8a0d98615481af247ed802c390611c5890889088906122d3565b60405180910390a49392505050565b5f805160206122f483398151915254600203611c9657604051633ee5aeb560e01b815260040160405180910390fd5b565b5f60208284031215611ca8575f80fd5b5035919050565b80356001600160a01b0381168114611cc5575f80fd5b919050565b5f60208284031215611cda575f80fd5b61140582611caf565b5f81518084525f5b81811015611d0757602081850181015186830182015201611ceb565b505f602082860101526020601f19601f83011685010191505092915050565b60018060a01b038616815284602082015260a060408201525f611d4c60a0830186611ce3565b931515606083015250608001529392505050565b5f8060408385031215611d71575f80fd5b82359150611d8160208401611caf565b90509250929050565b602080825282518282018190525f9190848201906040850190845b81811015611dca5783516001600160a01b031683529284019291840191600101611da5565b50909695505050505050565b634e487b7160e01b5f52604160045260245ffd5b5f805f60608486031215611dfc575f80fd5b611e0584611caf565b925060208401359150604084013567ffffffffffffffff80821115611e28575f80fd5b818601915086601f830112611e3b575f80fd5b813581811115611e4d57611e4d611dd6565b604051601f8201601f19908116603f01168101908382118183101715611e7557611e75611dd6565b81604052828152896020848701011115611e8d575f80fd5b826020860160208301375f6020848301015280955050505050509250925092565b5f8060408385031215611ebf575f80fd5b611ec883611caf565b9150611d8160208401611caf565b60208082526024908201527f5472616e73616374696f6e4d616e616765723a2069736c656d2062756c756e616040820152636d61646960e01b606082015260800190565b634e487b7160e01b5f52603260045260245ffd5b600181811c90821680611f4257607f821691505b60208210810361071957634e487b7160e01b5f52602260045260245ffd5b5f808354611f6d81611f2e565b60018281168015611f855760018114611f9a57611fc6565b60ff1984168752821515830287019450611fc6565b875f526020805f205f5b85811015611fbd5781548a820152908401908201611fa4565b50505082870194505b50929695505050505050565b60208082526028908201527f4f776e65724d616e616765723a20736164656365206b6f6e747261742063616760408201526734b930b134b634b960c11b606082015260800190565b634e487b7160e01b5f52601160045260245ffd5b818103818111156120415761204161201a565b92915050565b5f600182016120585761205861201a565b5060010190565b634e487b7160e01b5f52603160045260245ffd5b60208082526022908201527f4d756c746953696757616c6c65743a2063757a6364616e20647572647572756c604082015261647560f01b606082015260800190565b60208082526029908201527f5472616e73616374696f6e4d616e616765723a2069736c656d207a6174656e206040820152687975727574756c647560b81b606082015260800190565b60208082526024908201527f4d756c746953696757616c6c65743a207361646563652073616869702063616760408201526334b934b960e11b606082015260800190565b808201808211156120415761204161201a565b80820281158282048414176120415761204161201a565b60208082526037908201527f4f776e65724d616e616765723a20676563657273697a204d2076657961204e2060408201527f64656765726920284d203e3d204e2f3220736172746929000000000000000000606082015260800190565b601f821115612212575f81815260208120601f850160051c810160208610156121ef5750805b601f850160051c820191505b8181101561220e578281556001016121fb565b5050505b505050565b815167ffffffffffffffff81111561223157612231611dd6565b6122458161223f8454611f2e565b846121c9565b602080601f831160018114612278575f84156122615750858301515b5f19600386901b1c1916600185901b17855561220e565b5f85815260208120601f198616915b828110156122a657888601518255948401946001909101908401612287565b50858210156122c357878501515f19600388901b60f8161c191681555b5050505050600190811b01905550565b828152604060208201525f6122eb6040830184611ce3565b94935050505056fe9b779b17422d0df92223018b32b4d1fa46e071723d6817e2486d003becc55f00a264697066735822122026ff112f54d29aeff9aa07fb08c574fb8d0462fe832b4a9f0f66672211a76a6564736f6c63430008140033","opcodes":"PUSH1 0xC0 PUSH1 0x40 MSTORE PUSH2 0x12C PUSH1 0x6 SSTORE CALLVALUE DUP1 ISZERO PUSH3 0x16 JUMPI PUSH0 DUP1 REVERT JUMPDEST POP PUSH1 0x40 MLOAD PUSH3 0x289A CODESIZE SUB DUP1 PUSH3 0x289A DUP4 CODECOPY DUP2 ADD PUSH1 0x40 DUP2 SWAP1 MSTORE PUSH3 0x39 SWAP2 PUSH3 0x3F0 JUMP JUMPDEST PUSH1 0x1 PUSH32 0x9B779B17422D0DF92223018B32B4D1FA46E071723D6817E2486D003BECC55F00 SSTORE DUP2 MLOAD PUSH3 0xBF JUMPI PUSH1 0x40 MLOAD PUSH3 0x461BCD PUSH1 0xE5 SHL DUP2 MSTORE PUSH1 0x20 PUSH1 0x4 DUP3 ADD MSTORE PUSH1 0x25 PUSH1 0x24 DUP3 ADD MSTORE PUSH32 0x4D756C746953696757616C6C65743A20656E20617A2031207361686970206765 PUSH1 0x44 DUP3 ADD MSTORE PUSH5 0x72656B6C69 PUSH1 0xD8 SHL PUSH1 0x64 DUP3 ADD MSTORE PUSH1 0x84 ADD JUMPDEST PUSH1 0x40 MLOAD DUP1 SWAP2 SUB SWAP1 REVERT JUMPDEST PUSH0 DUP2 GT DUP1 ISZERO PUSH3 0xD0 JUMPI POP DUP2 MLOAD DUP2 GT ISZERO JUMPDEST DUP1 ISZERO PUSH3 0xEA JUMPI POP DUP2 MLOAD PUSH3 0xE7 DUP3 PUSH1 0x2 PUSH3 0x4D9 JUMP JUMPDEST LT ISZERO JUMPDEST PUSH3 0x15E JUMPI PUSH1 0x40 MLOAD PUSH3 0x461BCD PUSH1 0xE5 SHL DUP2 MSTORE PUSH1 0x20 PUSH1 0x4 DUP3 ADD MSTORE PUSH1 0x39 PUSH1 0x24 DUP3 ADD MSTORE PUSH32 0x4D756C746953696757616C6C65743A20676563657273697A204D207665796120 PUSH1 0x44 DUP3 ADD MSTORE PUSH32 0x4E2064656765726920284D203E3D204E2F322073617274692900000000000000 PUSH1 0x64 DUP3 ADD MSTORE PUSH1 0x84 ADD PUSH3 0xB6 JUMP JUMPDEST PUSH0 JUMPDEST DUP3 MLOAD DUP2 LT ISZERO PUSH3 0x2DF JUMPI PUSH0 DUP4 DUP3 DUP2 MLOAD DUP2 LT PUSH3 0x180 JUMPI PUSH3 0x180 PUSH3 0x4F9 JUMP JUMPDEST PUSH1 0x20 MUL PUSH1 0x20 ADD ADD MLOAD SWAP1 POP PUSH0 PUSH1 0x1 PUSH1 0x1 PUSH1 0xA0 SHL SUB AND DUP2 PUSH1 0x1 PUSH1 0x1 PUSH1 0xA0 SHL SUB AND SUB PUSH3 0x1ED JUMPI PUSH1 0x40 MLOAD PUSH3 0x461BCD PUSH1 0xE5 SHL DUP2 MSTORE PUSH1 0x20 PUSH1 0x4 DUP3 ADD MSTORE PUSH1 0x1B PUSH1 0x24 DUP3 ADD MSTORE PUSH32 0x4D756C746953696757616C6C65743A2073696669722061647265730000000000 PUSH1 0x44 DUP3 ADD MSTORE PUSH1 0x64 ADD PUSH3 0xB6 JUMP JUMPDEST PUSH1 0x1 PUSH1 0x1 PUSH1 0xA0 SHL SUB DUP2 AND PUSH0 SWAP1 DUP2 MSTORE PUSH1 0x20 DUP2 SWAP1 MSTORE PUSH1 0x40 SWAP1 KECCAK256 SLOAD PUSH1 0xFF AND ISZERO PUSH3 0x26A JUMPI PUSH1 0x40 MLOAD PUSH3 0x461BCD PUSH1 0xE5 SHL DUP2 MSTORE PUSH1 0x20 PUSH1 0x4 DUP3 ADD MSTORE PUSH1 0x2A PUSH1 0x24 DUP3 ADD MSTORE PUSH32 0x4D756C746953696757616C6C65743A207361686970206164726573692074656B PUSH1 0x44 DUP3 ADD MSTORE PUSH10 0x3930B93630B730B6B0BD PUSH1 0xB1 SHL PUSH1 0x64 DUP3 ADD MSTORE PUSH1 0x84 ADD PUSH3 0xB6 JUMP JUMPDEST PUSH1 0x1 PUSH1 0x1 PUSH1 0xA0 SHL SUB AND PUSH0 DUP2 DUP2 MSTORE PUSH1 0x20 DUP2 SWAP1 MSTORE PUSH1 0x40 DUP2 KECCAK256 DUP1 SLOAD PUSH1 0xFF NOT AND PUSH1 0x1 SWAP1 DUP2 OR SWAP1 SWAP2 SSTORE DUP1 SLOAD DUP1 DUP3 ADD DUP3 SSTORE SWAP2 MSTORE PUSH32 0xB10E2D527612073B26EECDFD717E6A320CF44B4AFAC2B0732D9FCBE2B7FA0CF6 ADD DUP1 SLOAD PUSH1 0x1 PUSH1 0x1 PUSH1 0xA0 SHL SUB NOT AND SWAP1 SWAP2 OR SWAP1 SSTORE DUP1 PUSH3 0x2D6 DUP2 PUSH3 0x50D JUMP JUMPDEST SWAP2 POP POP PUSH3 0x160 JUMP JUMPDEST POP PUSH1 0x2 SSTORE POP CHAINID PUSH1 0xA0 DUP2 DUP2 MSTORE PUSH1 0x40 DUP1 MLOAD DUP1 DUP3 ADD DUP3 MSTORE PUSH1 0xE DUP2 MSTORE PUSH14 0x135D5B1D1A54DA59D5D85B1B195D PUSH1 0x92 SHL PUSH1 0x20 SWAP2 DUP3 ADD MSTORE DUP2 MLOAD DUP1 DUP4 ADD DUP4 MSTORE PUSH1 0x1 DUP2 MSTORE PUSH1 0x31 PUSH1 0xF8 SHL SWAP1 DUP3 ADD MSTORE DUP2 MLOAD PUSH32 0x8B73C3C69BB8FE3D512ECC4CF759CC79239F7B179B0FFACAA9A75D522B39400F DUP2 DUP4 ADD MSTORE PUSH32 0xD224391E05BEA8DF3D0CD26822C30D350D1E6173F271E8862B4F063B01773BEC DUP2 DUP5 ADD MSTORE PUSH32 0xC89EFDAA54C0F20C7ADF612882DF0950F5A951637E0307CDCB4C672F298B8BC6 PUSH1 0x60 DUP3 ADD MSTORE PUSH1 0x80 DUP1 DUP3 ADD SWAP6 SWAP1 SWAP6 MSTORE ADDRESS DUP2 DUP6 ADD MSTORE DUP3 MLOAD DUP1 DUP3 SUB SWAP1 SWAP5 ADD DUP5 MSTORE PUSH1 0xC0 ADD SWAP1 SWAP2 MSTORE DUP2 MLOAD SWAP2 ADD KECCAK256 SWAP1 MSTORE PUSH3 0x528 JUMP JUMPDEST PUSH4 0x4E487B71 PUSH1 0xE0 SHL PUSH0 MSTORE PUSH1 0x41 PUSH1 0x4 MSTORE PUSH1 0x24 PUSH0 REVERT JUMPDEST DUP1 MLOAD PUSH1 0x1 PUSH1 0x1 PUSH1 0xA0 SHL SUB DUP2 AND DUP2 EQ PUSH3 0x3EB JUMPI PUSH0 DUP1 REVERT JUMPDEST SWAP2 SWAP1 POP JUMP JUMPDEST PUSH0 DUP1 PUSH1 0x40 DUP4 DUP6 SUB SLT ISZERO PUSH3 0x402 JUMPI PUSH0 DUP1 REVERT JUMPDEST DUP3 MLOAD PUSH1 0x1 PUSH1 0x1 PUSH1 0x40 SHL SUB DUP1 DUP3 GT ISZERO PUSH3 0x419 JUMPI PUSH0 DUP1 REVERT JUMPDEST DUP2 DUP6 ADD SWAP2 POP DUP6 PUSH1 0x1F DUP4 ADD SLT PUSH3 0x42D JUMPI PUSH0 DUP1 REVERT JUMPDEST DUP2 MLOAD PUSH1 0x20 DUP3 DUP3 GT ISZERO PUSH3 0x444 JUMPI PUSH3 0x444 PUSH3 0x3C0 JUMP JUMPDEST DUP2 PUSH1 0x5 SHL PUSH1 0x40 MLOAD PUSH1 0x1F NOT PUSH1 0x3F DUP4 ADD AND DUP2 ADD DUP2 DUP2 LT DUP7 DUP3 GT OR ISZERO PUSH3 0x46C JUMPI PUSH3 0x46C PUSH3 0x3C0 JUMP JUMPDEST PUSH1 0x40 MSTORE SWAP3 DUP4 MSTORE DUP2 DUP4 ADD SWAP4 POP DUP5 DUP2 ADD DUP3 ADD SWAP3 DUP10 DUP5 GT ISZERO PUSH3 0x48A JUMPI PUSH0 DUP1 REVERT JUMPDEST SWAP5 DUP3 ADD SWAP5 JUMPDEST DUP4 DUP7 LT ISZERO PUSH3 0x4B3 JUMPI PUSH3 0x4A3 DUP7 PUSH3 0x3D4 JUMP JUMPDEST DUP6 MSTORE SWAP5 DUP3 ADD SWAP5 SWAP4 DUP3 ADD SWAP4 PUSH3 0x48F JUMP JUMPDEST SWAP8 SWAP1 SWAP2 ADD MLOAD SWAP7 SWAP9 SWAP7 SWAP8 POP POP POP POP POP POP POP JUMP JUMPDEST PUSH4 0x4E487B71 PUSH1 0xE0 SHL PUSH0 MSTORE PUSH1 0x11 PUSH1 0x4 MSTORE PUSH1 0x24 PUSH0 REVERT JUMPDEST DUP1 DUP3 MUL DUP2 ISZERO DUP3 DUP3 DIV DUP5 EQ OR PUSH3 0x4F3 JUMPI PUSH3 0x4F3 PUSH3 0x4C5 JUMP JUMPDEST SWAP3 SWAP2 POP POP JUMP JUMPDEST PUSH4 0x4E487B71 PUSH1 0xE0 SHL PUSH0 MSTORE PUSH1 0x32 PUSH1 0x4 MSTORE PUSH1 0x24 PUSH0 REVERT JUMPDEST PUSH0 PUSH1 0x1 DUP3 ADD PUSH3 0x521 JUMPI PUSH3 0x521 PUSH3 0x4C5 JUMP JUMPDEST POP PUSH1 0x1 ADD SWAP1 JUMP JUMPDEST PUSH1 0x80 MLOAD PUSH1 0xA0 MLOAD PUSH2 0x2349 PUSH3 0x551 PUSH0 CODECOPY PUSH0 PUSH2 0x18AC ADD MSTORE PUSH0 DUP2 DUP2 PUSH2 0x382 ADD MSTORE PUSH2 0x61D ADD MSTORE PUSH2 0x2349 PUSH0 RETURN INVALID PUSH1 0x80 PUSH1 0x40 MSTORE PUSH1 0x4 CALLDATASIZE LT PUSH2 0x1B2 JUMPI PUSH0 CALLDATALOAD PUSH1 0xE0 SHR DUP1 PUSH4 0x784547A7 GT PUSH2 0xE7 JUMPI DUP1 PUSH4 0xC01A8C84 GT PUSH2 0x87 JUMPI DUP1 PUSH4 0xD0549B85 GT PUSH2 0x62 JUMPI DUP1 PUSH4 0xD0549B85 EQ PUSH2 0x52D JUMPI DUP1 PUSH4 0xE20056E6 EQ PUSH2 0x542 JUMPI DUP1 PUSH4 0xEE22610B EQ PUSH2 0x561 JUMPI DUP1 PUSH4 0xFF96DF44 EQ PUSH2 0x580 JUMPI PUSH0 DUP1 REVERT JUMPDEST DUP1 PUSH4 0xC01A8C84 EQ PUSH2 0x4D0 JUMPI DUP1 PUSH4 0xC6427474 EQ PUSH2 0x4EF JUMPI DUP1 PUSH4 0xCD105B32 EQ PUSH2 0x50E JUMPI PUSH0 DUP1 REVERT JUMPDEST DUP1 PUSH4 0x8790C1DE GT PUSH2 0xC2 JUMPI DUP1 PUSH4 0x8790C1DE EQ PUSH2 0x442 JUMPI DUP1 PUSH4 0xA0E67E2B EQ PUSH2 0x47B JUMPI DUP1 PUSH4 0xAFFED0E0 EQ PUSH2 0x49C JUMPI DUP1 PUSH4 0xBA51A6DF EQ PUSH2 0x4B1 JUMPI PUSH0 DUP1 REVERT JUMPDEST DUP1 PUSH4 0x784547A7 EQ PUSH2 0x3F0 JUMPI DUP1 PUSH4 0x78810A3B EQ PUSH2 0x40F JUMPI DUP1 PUSH4 0x8456CB59 EQ PUSH2 0x42E JUMPI PUSH0 DUP1 REVERT JUMPDEST DUP1 PUSH4 0x2F54BF6E GT PUSH2 0x152 JUMPI DUP1 PUSH4 0x3644E515 GT PUSH2 0x12D JUMPI DUP1 PUSH4 0x3644E515 EQ PUSH2 0x371 JUMPI DUP1 PUSH4 0x3F4BA83A EQ PUSH2 0x3A4 JUMPI DUP1 PUSH4 0x5C975ABB EQ PUSH2 0x3B8 JUMPI DUP1 PUSH4 0x7065CB48 EQ PUSH2 0x3D1 JUMPI PUSH0 DUP1 REVERT JUMPDEST DUP1 PUSH4 0x2F54BF6E EQ PUSH2 0x2F1 JUMPI DUP1 PUSH4 0x33EA3DC8 EQ PUSH2 0x32F JUMPI DUP1 PUSH4 0x3408E470 EQ PUSH2 0x35F JUMPI PUSH0 DUP1 REVERT JUMPDEST DUP1 PUSH4 0x173825D9 GT PUSH2 0x18D JUMPI DUP1 PUSH4 0x173825D9 EQ PUSH2 0x272 JUMPI DUP1 PUSH4 0x19E24D12 EQ PUSH2 0x293 JUMPI DUP1 PUSH4 0x20EA8D86 EQ PUSH2 0x2BE JUMPI DUP1 PUSH4 0x2E7700F0 EQ PUSH2 0x2DD JUMPI PUSH0 DUP1 REVERT JUMPDEST DUP1 PUSH4 0x25E7C27 EQ PUSH2 0x1F7 JUMPI DUP1 PUSH4 0x11134384 EQ PUSH2 0x233 JUMPI DUP1 PUSH4 0x12065FE0 EQ PUSH2 0x260 JUMPI PUSH0 DUP1 REVERT JUMPDEST CALLDATASIZE PUSH2 0x1F3 JUMPI PUSH1 0x40 DUP1 MLOAD CALLVALUE DUP2 MSTORE SELFBALANCE PUSH1 0x20 DUP3 ADD MSTORE CALLER SWAP2 PUSH32 0x90890809C654F11D6E72A28FA60149770A0D11EC6C92319D6CEB2BB0A4EA1A15 SWAP2 ADD PUSH1 0x40 MLOAD DUP1 SWAP2 SUB SWAP1 LOG2 STOP JUMPDEST PUSH0 DUP1 REVERT JUMPDEST CALLVALUE DUP1 ISZERO PUSH2 0x202 JUMPI PUSH0 DUP1 REVERT JUMPDEST POP PUSH2 0x216 PUSH2 0x211 CALLDATASIZE PUSH1 0x4 PUSH2 0x1C98 JUMP JUMPDEST PUSH2 0x595 JUMP JUMPDEST PUSH1 0x40 MLOAD PUSH1 0x1 PUSH1 0x1 PUSH1 0xA0 SHL SUB SWAP1 SWAP2 AND DUP2 MSTORE PUSH1 0x20 ADD JUMPDEST PUSH1 0x40 MLOAD DUP1 SWAP2 SUB SWAP1 RETURN JUMPDEST CALLVALUE DUP1 ISZERO PUSH2 0x23E JUMPI PUSH0 DUP1 REVERT JUMPDEST POP PUSH2 0x252 PUSH2 0x24D CALLDATASIZE PUSH1 0x4 PUSH2 0x1C98 JUMP JUMPDEST PUSH2 0x5BD JUMP JUMPDEST PUSH1 0x40 MLOAD SWAP1 DUP2 MSTORE PUSH1 0x20 ADD PUSH2 0x22A JUMP JUMPDEST CALLVALUE DUP1 ISZERO PUSH2 0x26B JUMPI PUSH0 DUP1 REVERT JUMPDEST POP SELFBALANCE PUSH2 0x252 JUMP JUMPDEST CALLVALUE DUP1 ISZERO PUSH2 0x27D JUMPI PUSH0 DUP1 REVERT JUMPDEST POP PUSH2 0x291 PUSH2 0x28C CALLDATASIZE PUSH1 0x4 PUSH2 0x1CCA JUMP JUMPDEST PUSH2 0x71F JUMP JUMPDEST STOP JUMPDEST CALLVALUE DUP1 ISZERO PUSH2 0x29E JUMPI PUSH0 DUP1 REVERT JUMPDEST POP PUSH2 0x252 PUSH2 0x2AD CALLDATASIZE PUSH1 0x4 PUSH2 0x1C98 JUMP JUMPDEST PUSH1 0x5 PUSH1 0x20 MSTORE PUSH0 SWAP1 DUP2 MSTORE PUSH1 0x40 SWAP1 KECCAK256 SLOAD DUP2 JUMP JUMPDEST CALLVALUE DUP1 ISZERO PUSH2 0x2C9 JUMPI PUSH0 DUP1 REVERT JUMPDEST POP PUSH2 0x291 PUSH2 0x2D8 CALLDATASIZE PUSH1 0x4 PUSH2 0x1C98 JUMP JUMPDEST PUSH2 0x91E JUMP JUMPDEST CALLVALUE DUP1 ISZERO PUSH2 0x2E8 JUMPI PUSH0 DUP1 REVERT JUMPDEST POP PUSH1 0x3 SLOAD PUSH2 0x252 JUMP JUMPDEST CALLVALUE DUP1 ISZERO PUSH2 0x2FC JUMPI PUSH0 DUP1 REVERT JUMPDEST POP PUSH2 0x31F PUSH2 0x30B CALLDATASIZE PUSH1 0x4 PUSH2 0x1CCA JUMP JUMPDEST PUSH0 PUSH1 0x20 DUP2 SWAP1 MSTORE SWAP1 DUP2 MSTORE PUSH1 0x40 SWAP1 KECCAK256 SLOAD PUSH1 0xFF AND DUP2 JUMP JUMPDEST PUSH1 0x40 MLOAD SWAP1 ISZERO ISZERO DUP2 MSTORE PUSH1 0x20 ADD PUSH2 0x22A JUMP JUMPDEST CALLVALUE DUP1 ISZERO PUSH2 0x33A JUMPI PUSH0 DUP1 REVERT JUMPDEST POP PUSH2 0x34E PUSH2 0x349 CALLDATASIZE PUSH1 0x4 PUSH2 0x1C98 JUMP JUMPDEST PUSH2 0xADB JUMP JUMPDEST PUSH1 0x40 MLOAD PUSH2 0x22A SWAP6 SWAP5 SWAP4 SWAP3 SWAP2 SWAP1 PUSH2 0x1D26 JUMP JUMPDEST CALLVALUE DUP1 ISZERO PUSH2 0x36A JUMPI PUSH0 DUP1 REVERT JUMPDEST POP CHAINID PUSH2 0x252 JUMP JUMPDEST CALLVALUE DUP1 ISZERO PUSH2 0x37C JUMPI PUSH0 DUP1 REVERT JUMPDEST POP PUSH2 0x252 PUSH32 0x0 DUP2 JUMP JUMPDEST CALLVALUE DUP1 ISZERO PUSH2 0x3AF JUMPI PUSH0 DUP1 REVERT JUMPDEST POP PUSH2 0x291 PUSH2 0xBF6 JUMP JUMPDEST CALLVALUE DUP1 ISZERO PUSH2 0x3C3 JUMPI PUSH0 DUP1 REVERT JUMPDEST POP PUSH1 0x8 SLOAD PUSH2 0x31F SWAP1 PUSH1 0xFF AND DUP2 JUMP JUMPDEST CALLVALUE DUP1 ISZERO PUSH2 0x3DC JUMPI PUSH0 DUP1 REVERT JUMPDEST POP PUSH2 0x291 PUSH2 0x3EB CALLDATASIZE PUSH1 0x4 PUSH2 0x1CCA JUMP JUMPDEST PUSH2 0xCAC JUMP JUMPDEST CALLVALUE DUP1 ISZERO PUSH2 0x3FB JUMPI PUSH0 DUP1 REVERT JUMPDEST POP PUSH2 0x31F PUSH2 0x40A CALLDATASIZE PUSH1 0x4 PUSH2 0x1C98 JUMP JUMPDEST PUSH2 0xE6E JUMP JUMPDEST CALLVALUE DUP1 ISZERO PUSH2 0x41A JUMPI PUSH0 DUP1 REVERT JUMPDEST POP PUSH2 0x31F PUSH2 0x429 CALLDATASIZE PUSH1 0x4 PUSH2 0x1D60 JUMP JUMPDEST PUSH2 0xEC3 JUMP JUMPDEST CALLVALUE DUP1 ISZERO PUSH2 0x439 JUMPI PUSH0 DUP1 REVERT JUMPDEST POP PUSH2 0x291 PUSH2 0xF14 JUMP JUMPDEST CALLVALUE DUP1 ISZERO PUSH2 0x44D JUMPI PUSH0 DUP1 REVERT JUMPDEST POP PUSH2 0x31F PUSH2 0x45C CALLDATASIZE PUSH1 0x4 PUSH2 0x1D60 JUMP JUMPDEST PUSH1 0x4 PUSH1 0x20 SWAP1 DUP2 MSTORE PUSH0 SWAP3 DUP4 MSTORE PUSH1 0x40 DUP1 DUP5 KECCAK256 SWAP1 SWAP2 MSTORE SWAP1 DUP3 MSTORE SWAP1 KECCAK256 SLOAD PUSH1 0xFF AND DUP2 JUMP JUMPDEST CALLVALUE DUP1 ISZERO PUSH2 0x486 JUMPI PUSH0 DUP1 REVERT JUMPDEST POP PUSH2 0x48F PUSH2 0xFCE JUMP JUMPDEST PUSH1 0x40 MLOAD PUSH2 0x22A SWAP2 SWAP1 PUSH2 0x1D8A JUMP JUMPDEST CALLVALUE DUP1 ISZERO PUSH2 0x4A7 JUMPI PUSH0 DUP1 REVERT JUMPDEST POP PUSH2 0x252 PUSH1 0x9 SLOAD DUP2 JUMP JUMPDEST CALLVALUE DUP1 ISZERO PUSH2 0x4BC JUMPI PUSH0 DUP1 REVERT JUMPDEST POP PUSH2 0x291 PUSH2 0x4CB CALLDATASIZE PUSH1 0x4 PUSH2 0x1C98 JUMP JUMPDEST PUSH2 0x102E JUMP JUMPDEST CALLVALUE DUP1 ISZERO PUSH2 0x4DB JUMPI PUSH0 DUP1 REVERT JUMPDEST POP PUSH2 0x291 PUSH2 0x4EA CALLDATASIZE PUSH1 0x4 PUSH2 0x1C98 JUMP JUMPDEST PUSH2 0x10DA JUMP JUMPDEST CALLVALUE DUP1 ISZERO PUSH2 0x4FA JUMPI PUSH0 DUP1 REVERT JUMPDEST POP PUSH2 0x252 PUSH2 0x509 CALLDATASIZE PUSH1 0x4 PUSH2 0x1DEA JUMP JUMPDEST PUSH2 0x1328 JUMP JUMPDEST CALLVALUE DUP1 ISZERO PUSH2 0x519 JUMPI PUSH0 DUP1 REVERT JUMPDEST POP PUSH2 0x291 PUSH2 0x528 CALLDATASIZE PUSH1 0x4 PUSH2 0x1C98 JUMP JUMPDEST PUSH2 0x140C JUMP JUMPDEST CALLVALUE DUP1 ISZERO PUSH2 0x538 JUMPI PUSH0 DUP1 REVERT JUMPDEST POP PUSH2 0x252 PUSH1 0x2 SLOAD DUP2 JUMP JUMPDEST CALLVALUE DUP1 ISZERO PUSH2 0x54D JUMPI PUSH0 DUP1 REVERT JUMPDEST POP PUSH2 0x291 PUSH2 0x55C CALLDATASIZE PUSH1 0x4 PUSH2 0x1EAE JUMP JUMPDEST PUSH2 0x1466 JUMP JUMPDEST CALLVALUE DUP1 ISZERO PUSH2 0x56C JUMPI PUSH0 DUP1 REVERT JUMPDEST POP PUSH2 0x291 PUSH2 0x57B CALLDATASIZE PUSH1 0x4 PUSH2 0x1C98 JUMP JUMPDEST PUSH2 0x16DA JUMP JUMPDEST CALLVALUE DUP1 ISZERO PUSH2 0x58B JUMPI PUSH0 DUP1 REVERT JUMPDEST POP PUSH2 0x252 PUSH1 0x6 SLOAD DUP2 JUMP JUMPDEST PUSH1 0x1 DUP2 DUP2 SLOAD DUP2 LT PUSH2 0x5A4 JUMPI PUSH0 DUP1 REVERT JUMPDEST PUSH0 SWAP2 DUP3 MSTORE PUSH1 0x20 SWAP1 SWAP2 KECCAK256 ADD SLOAD PUSH1 0x1 PUSH1 0x1 PUSH1 0xA0 SHL SUB AND SWAP1 POP DUP2 JUMP JUMPDEST PUSH1 0x3 SLOAD PUSH0 SWAP1 DUP3 SWAP1 DUP2 LT PUSH2 0x5EB JUMPI PUSH1 0x40 MLOAD PUSH3 0x461BCD PUSH1 0xE5 SHL DUP2 MSTORE PUSH1 0x4 ADD PUSH2 0x5E2 SWAP1 PUSH2 0x1ED6 JUMP JUMPDEST PUSH1 0x40 MLOAD DUP1 SWAP2 SUB SWAP1 REVERT JUMPDEST PUSH0 PUSH1 0x3 DUP5 DUP2 SLOAD DUP2 LT PUSH2 0x5FF JUMPI PUSH2 0x5FF PUSH2 0x1F1A JUMP JUMPDEST PUSH0 SWAP2 DUP3 MSTORE PUSH1 0x20 SWAP1 SWAP2 KECCAK256 PUSH1 0x5 SWAP1 SWAP2 MUL ADD DUP1 SLOAD PUSH1 0x1 DUP3 ADD SLOAD PUSH1 0x40 MLOAD SWAP3 SWAP4 POP PUSH32 0x0 SWAP3 PUSH32 0xFF7F6369725038DC5CAE3C299D1DC292462F576F01405FD379B65BE89FE6E0F2 SWAP3 PUSH1 0x1 PUSH1 0x1 PUSH1 0xA0 SHL SUB AND SWAP2 SWAP1 PUSH2 0x678 SWAP1 PUSH1 0x2 DUP8 ADD SWAP1 PUSH2 0x1F60 JUMP JUMPDEST PUSH1 0x40 MLOAD SWAP1 DUP2 SWAP1 SUB DUP2 KECCAK256 PUSH1 0x9 SLOAD PUSH2 0x6C2 SWAP6 SWAP5 SWAP4 SWAP3 DUP12 SWAP2 SWAP1 PUSH1 0x20 ADD SWAP6 DUP7 MSTORE PUSH1 0x1 PUSH1 0x1 PUSH1 0xA0 SHL SUB SWAP5 SWAP1 SWAP5 AND PUSH1 0x20 DUP7 ADD MSTORE PUSH1 0x40 DUP6 ADD SWAP3 SWAP1 SWAP3 MSTORE PUSH1 0x60 DUP5 ADD MSTORE PUSH1 0x80 DUP4 ADD MSTORE PUSH1 0xA0 DUP3 ADD MSTORE PUSH1 0xC0 ADD SWAP1 JUMP JUMPDEST PUSH1 0x40 MLOAD PUSH1 0x20 DUP2 DUP4 SUB SUB DUP2 MSTORE SWAP1 PUSH1 0x40 MSTORE DUP1 MLOAD SWAP1 PUSH1 0x20 ADD KECCAK256 PUSH1 0x40 MLOAD PUSH1 0x20 ADD PUSH2 0x6FF SWAP3 SWAP2 SWAP1 PUSH2 0x1901 PUSH1 0xF0 SHL DUP2 MSTORE PUSH1 0x2 DUP2 ADD SWAP3 SWAP1 SWAP3 MSTORE PUSH1 0x22 DUP3 ADD MSTORE PUSH1 0x42 ADD SWAP1 JUMP JUMPDEST PUSH1 0x40 MLOAD PUSH1 0x20 DUP2 DUP4 SUB SUB DUP2 MSTORE SWAP1 PUSH1 0x40 MSTORE DUP1 MLOAD SWAP1 PUSH1 0x20 ADD KECCAK256 SWAP3 POP POP JUMPDEST POP SWAP2 SWAP1 POP JUMP JUMPDEST CALLER ADDRESS EQ PUSH2 0x73E JUMPI PUSH1 0x40 MLOAD PUSH3 0x461BCD PUSH1 0xE5 SHL DUP2 MSTORE PUSH1 0x4 ADD PUSH2 0x5E2 SWAP1 PUSH2 0x1FD2 JUMP JUMPDEST PUSH1 0x1 PUSH1 0x1 PUSH1 0xA0 SHL SUB DUP2 AND PUSH0 SWAP1 DUP2 MSTORE PUSH1 0x20 DUP2 SWAP1 MSTORE PUSH1 0x40 SWAP1 KECCAK256 SLOAD DUP2 SWAP1 PUSH1 0xFF AND PUSH2 0x7A7 JUMPI PUSH1 0x40 MLOAD PUSH3 0x461BCD PUSH1 0xE5 SHL DUP2 MSTORE PUSH1 0x20 PUSH1 0x4 DUP3 ADD MSTORE PUSH1 0x1E PUSH1 0x24 DUP3 ADD MSTORE PUSH32 0x4F776E65724D616E616765723A2073616869702062756C756E616D6164690000 PUSH1 0x44 DUP3 ADD MSTORE PUSH1 0x64 ADD PUSH2 0x5E2 JUMP JUMPDEST PUSH1 0x1 PUSH1 0x1 PUSH1 0xA0 SHL SUB DUP3 AND PUSH0 SWAP1 DUP2 MSTORE PUSH1 0x20 DUP2 SWAP1 MSTORE PUSH1 0x40 DUP2 KECCAK256 DUP1 SLOAD PUSH1 0xFF NOT AND SWAP1 SSTORE PUSH1 0x1 SLOAD SWAP1 JUMPDEST PUSH2 0x7D6 PUSH1 0x1 DUP4 PUSH2 0x202E JUMP JUMPDEST DUP2 LT ISZERO PUSH2 0x89C JUMPI DUP4 PUSH1 0x1 PUSH1 0x1 PUSH1 0xA0 SHL SUB AND PUSH1 0x1 DUP3 DUP2 SLOAD DUP2 LT PUSH2 0x7FA JUMPI PUSH2 0x7FA PUSH2 0x1F1A JUMP JUMPDEST PUSH0 SWAP2 DUP3 MSTORE PUSH1 0x20 SWAP1 SWAP2 KECCAK256 ADD SLOAD PUSH1 0x1 PUSH1 0x1 PUSH1 0xA0 SHL SUB AND SUB PUSH2 0x88A JUMPI PUSH1 0x1 PUSH2 0x81F DUP2 DUP5 PUSH2 0x202E JUMP JUMPDEST DUP2 SLOAD DUP2 LT PUSH2 0x82F JUMPI PUSH2 0x82F PUSH2 0x1F1A JUMP JUMPDEST PUSH0 SWAP2 DUP3 MSTORE PUSH1 0x20 SWAP1 SWAP2 KECCAK256 ADD SLOAD PUSH1 0x1 DUP1 SLOAD PUSH1 0x1 PUSH1 0x1 PUSH1 0xA0 SHL SUB SWAP1 SWAP3 AND SWAP2 DUP4 SWAP1 DUP2 LT PUSH2 0x85A JUMPI PUSH2 0x85A PUSH2 0x1F1A JUMP JUMPDEST SWAP1 PUSH0 MSTORE PUSH1 0x20 PUSH0 KECCAK256 ADD PUSH0 PUSH2 0x100 EXP DUP2 SLOAD DUP2 PUSH1 0x1 PUSH1 0x1 PUSH1 0xA0 SHL SUB MUL NOT AND SWAP1 DUP4 PUSH1 0x1 PUSH1 0x1 PUSH1 0xA0 SHL SUB AND MUL OR SWAP1 SSTORE POP PUSH2 0x89C JUMP JUMPDEST DUP1 PUSH2 0x894 DUP2 PUSH2 0x2047 JUMP JUMPDEST SWAP2 POP POP PUSH2 0x7CB JUMP JUMPDEST POP PUSH1 0x1 DUP1 SLOAD DUP1 PUSH2 0x8AE JUMPI PUSH2 0x8AE PUSH2 0x205F JUMP JUMPDEST PUSH0 DUP3 DUP2 MSTORE PUSH1 0x20 SWAP1 KECCAK256 DUP2 ADD PUSH0 NOT SWAP1 DUP2 ADD DUP1 SLOAD PUSH1 0x1 PUSH1 0x1 PUSH1 0xA0 SHL SUB NOT AND SWAP1 SSTORE ADD SWAP1 SSTORE PUSH1 0x1 SLOAD PUSH1 0x2 SLOAD GT ISZERO PUSH2 0x8E6 JUMPI PUSH1 0x1 SLOAD PUSH2 0x8E6 SWAP1 PUSH2 0x102E JUMP JUMPDEST PUSH1 0x40 MLOAD PUSH1 0x1 PUSH1 0x1 PUSH1 0xA0 SHL SUB DUP5 AND SWAP1 PUSH32 0x8001553A916EF2F495D26A907CC54D96ED840D7BDA71E73194BF5A9DF7A76B90 SWAP1 PUSH0 SWAP1 LOG2 POP POP POP JUMP JUMPDEST PUSH1 0x8 SLOAD PUSH1 0xFF AND ISZERO PUSH2 0x941 JUMPI PUSH1 0x40 MLOAD PUSH3 0x461BCD PUSH1 0xE5 SHL DUP2 MSTORE PUSH1 0x4 ADD PUSH2 0x5E2 SWAP1 PUSH2 0x2073 JUMP JUMPDEST PUSH1 0x3 SLOAD DUP2 SWAP1 DUP2 LT PUSH2 0x964 JUMPI PUSH1 0x40 MLOAD PUSH3 0x461BCD PUSH1 0xE5 SHL DUP2 MSTORE PUSH1 0x4 ADD PUSH2 0x5E2 SWAP1 PUSH2 0x1ED6 JUMP JUMPDEST DUP2 PUSH1 0x3 DUP2 DUP2 SLOAD DUP2 LT PUSH2 0x978 JUMPI PUSH2 0x978 PUSH2 0x1F1A JUMP JUMPDEST PUSH0 SWAP2 DUP3 MSTORE PUSH1 0x20 SWAP1 SWAP2 KECCAK256 PUSH1 0x3 PUSH1 0x5 SWAP1 SWAP3 MUL ADD ADD SLOAD PUSH1 0xFF AND ISZERO PUSH2 0x9AB JUMPI PUSH1 0x40 MLOAD PUSH3 0x461BCD PUSH1 0xE5 SHL DUP2 MSTORE PUSH1 0x4 ADD PUSH2 0x5E2 SWAP1 PUSH2 0x20B5 JUMP JUMPDEST PUSH0 DUP4 DUP2 MSTORE PUSH1 0x4 PUSH1 0x20 SWAP1 DUP2 MSTORE PUSH1 0x40 DUP1 DUP4 KECCAK256 CALLER DUP5 MSTORE SWAP1 SWAP2 MSTORE SWAP1 KECCAK256 SLOAD DUP4 SWAP1 PUSH1 0xFF AND PUSH2 0xA21 JUMPI PUSH1 0x40 MLOAD PUSH3 0x461BCD PUSH1 0xE5 SHL DUP2 MSTORE PUSH1 0x20 PUSH1 0x4 DUP3 ADD MSTORE PUSH1 0x23 PUSH1 0x24 DUP3 ADD MSTORE PUSH32 0x5472616E73616374696F6E4D616E616765723A206F6E61792062756C756E616D PUSH1 0x44 DUP3 ADD MSTORE PUSH3 0x616469 PUSH1 0xE8 SHL PUSH1 0x64 DUP3 ADD MSTORE PUSH1 0x84 ADD PUSH2 0x5E2 JUMP JUMPDEST CALLER PUSH0 SWAP1 DUP2 MSTORE PUSH1 0x20 DUP2 SWAP1 MSTORE PUSH1 0x40 SWAP1 KECCAK256 SLOAD PUSH1 0xFF AND PUSH2 0xA4F JUMPI PUSH1 0x40 MLOAD PUSH3 0x461BCD PUSH1 0xE5 SHL DUP2 MSTORE PUSH1 0x4 ADD PUSH2 0x5E2 SWAP1 PUSH2 0x20FE JUMP JUMPDEST PUSH0 DUP5 DUP2 MSTORE PUSH1 0x4 PUSH1 0x20 SWAP1 DUP2 MSTORE PUSH1 0x40 DUP1 DUP4 KECCAK256 CALLER DUP5 MSTORE SWAP1 SWAP2 MSTORE SWAP1 KECCAK256 DUP1 SLOAD PUSH1 0xFF NOT AND SWAP1 SSTORE PUSH1 0x3 DUP1 SLOAD PUSH1 0x1 SWAP2 SWAP1 DUP7 SWAP1 DUP2 LT PUSH2 0xA87 JUMPI PUSH2 0xA87 PUSH2 0x1F1A JUMP JUMPDEST SWAP1 PUSH0 MSTORE PUSH1 0x20 PUSH0 KECCAK256 SWAP1 PUSH1 0x5 MUL ADD PUSH1 0x4 ADD PUSH0 DUP3 DUP3 SLOAD PUSH2 0xAA4 SWAP2 SWAP1 PUSH2 0x202E JUMP JUMPDEST SWAP1 SWAP2 SSTORE POP POP PUSH1 0x40 MLOAD CALLER SWAP1 DUP6 SWAP1 PUSH32 0x7F8CE8E4F5A5B480FF78C18404639350996FD63EFC83ACE55B1D6A3E12158E24 SWAP1 PUSH0 SWAP1 LOG3 POP POP POP POP JUMP JUMPDEST PUSH0 DUP1 PUSH1 0x60 PUSH0 DUP1 DUP6 PUSH1 0x3 DUP1 SLOAD SWAP1 POP DUP2 LT PUSH2 0xB06 JUMPI PUSH1 0x40 MLOAD PUSH3 0x461BCD PUSH1 0xE5 SHL DUP2 MSTORE PUSH1 0x4 ADD PUSH2 0x5E2 SWAP1 PUSH2 0x1ED6 JUMP JUMPDEST PUSH0 PUSH1 0x3 DUP9 DUP2 SLOAD DUP2 LT PUSH2 0xB1A JUMPI PUSH2 0xB1A PUSH2 0x1F1A JUMP JUMPDEST PUSH0 SWAP2 DUP3 MSTORE PUSH1 0x20 SWAP1 SWAP2 KECCAK256 PUSH1 0x5 SWAP1 SWAP2 MUL ADD DUP1 SLOAD PUSH1 0x1 DUP3 ADD SLOAD PUSH1 0x3 DUP4 ADD SLOAD PUSH1 0x4 DUP5 ADD SLOAD PUSH1 0x2 DUP6 ADD DUP1 SLOAD SWAP6 SWAP7 POP PUSH1 0x1 PUSH1 0x1 PUSH1 0xA0 SHL SUB SWAP1 SWAP5 AND SWAP5 SWAP3 SWAP4 SWAP3 PUSH1 0xFF SWAP1 SWAP3 AND SWAP2 DUP4 SWAP1 PUSH2 0xB63 SWAP1 PUSH2 0x1F2E JUMP JUMPDEST DUP1 PUSH1 0x1F ADD PUSH1 0x20 DUP1 SWAP2 DIV MUL PUSH1 0x20 ADD PUSH1 0x40 MLOAD SWAP1 DUP2 ADD PUSH1 0x40 MSTORE DUP1 SWAP3 SWAP2 SWAP1 DUP2 DUP2 MSTORE PUSH1 0x20 ADD DUP3 DUP1 SLOAD PUSH2 0xB8F SWAP1 PUSH2 0x1F2E JUMP JUMPDEST DUP1 ISZERO PUSH2 0xBDA JUMPI DUP1 PUSH1 0x1F LT PUSH2 0xBB1 JUMPI PUSH2 0x100 DUP1 DUP4 SLOAD DIV MUL DUP4 MSTORE SWAP2 PUSH1 0x20 ADD SWAP2 PUSH2 0xBDA JUMP JUMPDEST DUP3 ADD SWAP2 SWAP1 PUSH0 MSTORE PUSH1 0x20 PUSH0 KECCAK256 SWAP1 JUMPDEST DUP2 SLOAD DUP2 MSTORE SWAP1 PUSH1 0x1 ADD SWAP1 PUSH1 0x20 ADD DUP1 DUP4 GT PUSH2 0xBBD JUMPI DUP3 SWAP1 SUB PUSH1 0x1F AND DUP3 ADD SWAP2 JUMPDEST POP POP POP POP POP SWAP3 POP SWAP7 POP SWAP7 POP SWAP7 POP SWAP7 POP SWAP7 POP POP POP SWAP2 SWAP4 SWAP6 SWAP1 SWAP3 SWAP5 POP JUMP JUMPDEST CALLER PUSH0 SWAP1 DUP2 MSTORE PUSH1 0x20 DUP2 SWAP1 MSTORE PUSH1 0x40 SWAP1 KECCAK256 SLOAD PUSH1 0xFF AND PUSH2 0xC24 JUMPI PUSH1 0x40 MLOAD PUSH3 0x461BCD PUSH1 0xE5 SHL DUP2 MSTORE PUSH1 0x4 ADD PUSH2 0x5E2 SWAP1 PUSH2 0x20FE JUMP JUMPDEST PUSH1 0x8 SLOAD PUSH1 0xFF AND PUSH2 0xC76 JUMPI PUSH1 0x40 MLOAD PUSH3 0x461BCD PUSH1 0xE5 SHL DUP2 MSTORE PUSH1 0x20 PUSH1 0x4 DUP3 ADD MSTORE PUSH1 0x1B PUSH1 0x24 DUP3 ADD MSTORE PUSH32 0x4D756C746953696757616C6C65743A207A6174656E20616B7469660000000000 PUSH1 0x44 DUP3 ADD MSTORE PUSH1 0x64 ADD PUSH2 0x5E2 JUMP JUMPDEST PUSH1 0x8 DUP1 SLOAD PUSH1 0xFF NOT AND SWAP1 SSTORE PUSH1 0x40 MLOAD CALLER SWAP1 PUSH32 0xF5CBF596165CC457B2CD92E8D8450827EE314968160A5696402D75766FC52CAF SWAP1 PUSH0 SWAP1 LOG2 JUMP JUMPDEST CALLER ADDRESS EQ PUSH2 0xCCB JUMPI PUSH1 0x40 MLOAD PUSH3 0x461BCD PUSH1 0xE5 SHL DUP2 MSTORE PUSH1 0x4 ADD PUSH2 0x5E2 SWAP1 PUSH2 0x1FD2 JUMP JUMPDEST PUSH1 0x1 PUSH1 0x1 PUSH1 0xA0 SHL SUB DUP2 AND PUSH0 SWAP1 DUP2 MSTORE PUSH1 0x20 DUP2 SWAP1 MSTORE PUSH1 0x40 SWAP1 KECCAK256 SLOAD DUP2 SWAP1 PUSH1 0xFF AND ISZERO PUSH2 0xD31 JUMPI PUSH1 0x40 MLOAD PUSH3 0x461BCD PUSH1 0xE5 SHL DUP2 MSTORE PUSH1 0x20 PUSH1 0x4 DUP3 ADD MSTORE PUSH1 0x19 PUSH1 0x24 DUP3 ADD MSTORE PUSH25 0x4F776E65724D616E616765723A207A6174656E20736168697 PUSH1 0x3C SHL PUSH1 0x44 DUP3 ADD MSTORE PUSH1 0x64 ADD PUSH2 0x5E2 JUMP JUMPDEST DUP2 PUSH1 0x1 PUSH1 0x1 PUSH1 0xA0 SHL SUB DUP2 AND PUSH2 0xD84 JUMPI PUSH1 0x40 MLOAD PUSH3 0x461BCD PUSH1 0xE5 SHL DUP2 MSTORE PUSH1 0x20 PUSH1 0x4 DUP3 ADD MSTORE PUSH1 0x19 PUSH1 0x24 DUP3 ADD MSTORE PUSH25 0x4F776E65724D616E616765723A207369666972206164726573 PUSH1 0x38 SHL PUSH1 0x44 DUP3 ADD MSTORE PUSH1 0x64 ADD PUSH2 0x5E2 JUMP JUMPDEST PUSH1 0x1 DUP1 SLOAD PUSH2 0xD91 SWAP2 PUSH2 0x2142 JUMP JUMPDEST PUSH1 0x2 SLOAD DUP1 ISZERO DUP1 ISZERO SWAP1 PUSH2 0xDA2 JUMPI POP DUP2 ISZERO ISZERO JUMPDEST DUP1 ISZERO PUSH2 0xDAE JUMPI POP DUP2 DUP2 GT ISZERO JUMPDEST DUP1 ISZERO PUSH2 0xDC4 JUMPI POP DUP2 PUSH2 0xDC1 DUP3 PUSH1 0x2 PUSH2 0x2155 JUMP JUMPDEST LT ISZERO JUMPDEST PUSH2 0xDE0 JUMPI PUSH1 0x40 MLOAD PUSH3 0x461BCD PUSH1 0xE5 SHL DUP2 MSTORE PUSH1 0x4 ADD PUSH2 0x5E2 SWAP1 PUSH2 0x216C JUMP JUMPDEST PUSH1 0x1 PUSH1 0x1 PUSH1 0xA0 SHL SUB DUP6 AND PUSH0 DUP2 DUP2 MSTORE PUSH1 0x20 DUP2 SWAP1 MSTORE PUSH1 0x40 DUP1 DUP3 KECCAK256 DUP1 SLOAD PUSH1 0xFF NOT AND PUSH1 0x1 SWAP1 DUP2 OR SWAP1 SWAP2 SSTORE DUP1 SLOAD DUP1 DUP3 ADD DUP3 SSTORE SWAP1 DUP4 MSTORE PUSH32 0xB10E2D527612073B26EECDFD717E6A320CF44B4AFAC2B0732D9FCBE2B7FA0CF6 ADD DUP1 SLOAD PUSH1 0x1 PUSH1 0x1 PUSH1 0xA0 SHL SUB NOT AND DUP5 OR SWAP1 SSTORE MLOAD PUSH32 0xF39E6E1EB0EDCF53C221607B54B00CD28F3196FED0A24994DC308B8F611B682D SWAP2 SWAP1 LOG2 POP POP POP POP POP JUMP JUMPDEST PUSH1 0x3 SLOAD PUSH0 SWAP1 DUP3 SWAP1 DUP2 LT PUSH2 0xE93 JUMPI PUSH1 0x40 MLOAD PUSH3 0x461BCD PUSH1 0xE5 SHL DUP2 MSTORE PUSH1 0x4 ADD PUSH2 0x5E2 SWAP1 PUSH2 0x1ED6 JUMP JUMPDEST PUSH1 0x2 SLOAD PUSH1 0x3 DUP5 DUP2 SLOAD DUP2 LT PUSH2 0xEA9 JUMPI PUSH2 0xEA9 PUSH2 0x1F1A JUMP JUMPDEST SWAP1 PUSH0 MSTORE PUSH1 0x20 PUSH0 KECCAK256 SWAP1 PUSH1 0x5 MUL ADD PUSH1 0x4 ADD SLOAD LT ISZERO SWAP2 POP POP SWAP2 SWAP1 POP JUMP JUMPDEST PUSH1 0x3 SLOAD PUSH0 SWAP1 DUP4 SWAP1 DUP2 LT PUSH2 0xEE8 JUMPI PUSH1 0x40 MLOAD PUSH3 0x461BCD PUSH1 0xE5 SHL DUP2 MSTORE PUSH1 0x4 ADD PUSH2 0x5E2 SWAP1 PUSH2 0x1ED6 JUMP JUMPDEST POP POP PUSH0 SWAP2 DUP3 MSTORE PUSH1 0x4 PUSH1 0x20 SWAP1 DUP2 MSTORE PUSH1 0x40 DUP1 DUP5 KECCAK256 PUSH1 0x1 PUSH1 0x1 PUSH1 0xA0 SHL SUB SWAP4 SWAP1 SWAP4 AND DUP5 MSTORE SWAP2 SWAP1 MSTORE SWAP1 KECCAK256 SLOAD PUSH1 0xFF AND SWAP1 JUMP JUMPDEST CALLER PUSH0 SWAP1 DUP2 MSTORE PUSH1 0x20 DUP2 SWAP1 MSTORE PUSH1 0x40 SWAP1 KECCAK256 SLOAD PUSH1 0xFF AND PUSH2 0xF42 JUMPI PUSH1 0x40 MLOAD PUSH3 0x461BCD PUSH1 0xE5 SHL DUP2 MSTORE PUSH1 0x4 ADD PUSH2 0x5E2 SWAP1 PUSH2 0x20FE JUMP JUMPDEST PUSH1 0x8 SLOAD PUSH1 0xFF AND ISZERO PUSH2 0xF95 JUMPI PUSH1 0x40 MLOAD PUSH3 0x461BCD PUSH1 0xE5 SHL DUP2 MSTORE PUSH1 0x20 PUSH1 0x4 DUP3 ADD DUP2 SWAP1 MSTORE PUSH1 0x24 DUP3 ADD MSTORE PUSH32 0x4D756C746953696757616C6C65743A207A6174656E20647572647572756C6475 PUSH1 0x44 DUP3 ADD MSTORE PUSH1 0x64 ADD PUSH2 0x5E2 JUMP JUMPDEST PUSH1 0x8 DUP1 SLOAD PUSH1 0xFF NOT AND PUSH1 0x1 OR SWAP1 SSTORE PUSH1 0x40 MLOAD CALLER SWAP1 PUSH32 0xB8FAD2FA0ED7A383E747C309EF2C4391D7B65592A48893E57CCC1FAB70791456 SWAP1 PUSH0 SWAP1 LOG2 JUMP JUMPDEST PUSH1 0x60 PUSH1 0x1 DUP1 SLOAD DUP1 PUSH1 0x20 MUL PUSH1 0x20 ADD PUSH1 0x40 MLOAD SWAP1 DUP2 ADD PUSH1 0x40 MSTORE DUP1 SWAP3 SWAP2 SWAP1 DUP2 DUP2 MSTORE PUSH1 0x20 ADD DUP3 DUP1 SLOAD DUP1 ISZERO PUSH2 0x1024 JUMPI PUSH1 0x20 MUL DUP3 ADD SWAP2 SWAP1 PUSH0 MSTORE PUSH1 0x20 PUSH0 KECCAK256 SWAP1 JUMPDEST DUP2 SLOAD PUSH1 0x1 PUSH1 0x1 PUSH1 0xA0 SHL SUB AND DUP2 MSTORE PUSH1 0x1 SWAP1 SWAP2 ADD SWAP1 PUSH1 0x20 ADD DUP1 DUP4 GT PUSH2 0x1006 JUMPI JUMPDEST POP POP POP POP POP SWAP1 POP SWAP1 JUMP JUMPDEST CALLER ADDRESS EQ PUSH2 0x104D JUMPI PUSH1 0x40 MLOAD PUSH3 0x461BCD PUSH1 0xE5 SHL DUP2 MSTORE PUSH1 0x4 ADD PUSH2 0x5E2 SWAP1 PUSH2 0x1FD2 JUMP JUMPDEST PUSH1 0x1 SLOAD DUP2 DUP1 ISZERO DUP1 ISZERO SWAP1 PUSH2 0x105F JUMPI POP DUP2 ISZERO ISZERO JUMPDEST DUP1 ISZERO PUSH2 0x106B JUMPI POP DUP2 DUP2 GT ISZERO JUMPDEST DUP1 ISZERO PUSH2 0x1081 JUMPI POP DUP2 PUSH2 0x107E DUP3 PUSH1 0x2 PUSH2 0x2155 JUMP JUMPDEST LT ISZERO JUMPDEST PUSH2 0x109D JUMPI PUSH1 0x40 MLOAD PUSH3 0x461BCD PUSH1 0xE5 SHL DUP2 MSTORE PUSH1 0x4 ADD PUSH2 0x5E2 SWAP1 PUSH2 0x216C JUMP JUMPDEST PUSH1 0x2 DUP4 SWAP1 SSTORE PUSH1 0x40 MLOAD DUP4 DUP2 MSTORE PUSH32 0xA3F1EE9126A074D9326C682F561767F710E927FAA811F7A99829D49DC421797A SWAP1 PUSH1 0x20 ADD PUSH1 0x40 MLOAD DUP1 SWAP2 SUB SWAP1 LOG1 POP POP POP JUMP JUMPDEST PUSH2 0x10E2 PUSH2 0x1A6E JUMP JUMPDEST PUSH1 0x8 SLOAD PUSH1 0xFF AND ISZERO PUSH2 0x1105 JUMPI PUSH1 0x40 MLOAD PUSH3 0x461BCD PUSH1 0xE5 SHL DUP2 MSTORE PUSH1 0x4 ADD PUSH2 0x5E2 SWAP1 PUSH2 0x2073 JUMP JUMPDEST PUSH1 0x3 SLOAD DUP2 SWAP1 DUP2 LT PUSH2 0x1128 JUMPI PUSH1 0x40 MLOAD PUSH3 0x461BCD PUSH1 0xE5 SHL DUP2 MSTORE PUSH1 0x4 ADD PUSH2 0x5E2 SWAP1 PUSH2 0x1ED6 JUMP JUMPDEST DUP2 PUSH1 0x3 DUP2 DUP2 SLOAD DUP2 LT PUSH2 0x113C JUMPI PUSH2 0x113C PUSH2 0x1F1A JUMP JUMPDEST PUSH0 SWAP2 DUP3 MSTORE PUSH1 0x20 SWAP1 SWAP2 KECCAK256 PUSH1 0x3 PUSH1 0x5 SWAP1 SWAP3 MUL ADD ADD SLOAD PUSH1 0xFF AND ISZERO PUSH2 0x116F JUMPI PUSH1 0x40 MLOAD PUSH3 0x461BCD PUSH1 0xE5 SHL DUP2 MSTORE PUSH1 0x4 ADD PUSH2 0x5E2 SWAP1 PUSH2 0x20B5 JUMP JUMPDEST PUSH0 DUP4 DUP2 MSTORE PUSH1 0x4 PUSH1 0x20 SWAP1 DUP2 MSTORE PUSH1 0x40 DUP1 DUP4 KECCAK256 CALLER DUP5 MSTORE SWAP1 SWAP2 MSTORE SWAP1 KECCAK256 SLOAD DUP4 SWAP1 PUSH1 0xFF AND ISZERO PUSH2 0x11E6 JUMPI PUSH1 0x40 MLOAD PUSH3 0x461BCD PUSH1 0xE5 SHL DUP2 MSTORE PUSH1 0x20 PUSH1 0x4 DUP3 ADD MSTORE PUSH1 0x24 DUP1 DUP3 ADD MSTORE PUSH32 0x5472616E73616374696F6E4D616E616765723A207A6174656E206F6E61796C61 PUSH1 0x44 DUP3 ADD MSTORE PUSH4 0x6E6D6973 PUSH1 0xE0 SHL PUSH1 0x64 DUP3 ADD MSTORE PUSH1 0x84 ADD PUSH2 0x5E2 JUMP JUMPDEST CALLER PUSH0 SWAP1 DUP2 MSTORE PUSH1 0x20 DUP2 SWAP1 MSTORE PUSH1 0x40 SWAP1 KECCAK256 SLOAD PUSH1 0xFF AND PUSH2 0x1214 JUMPI PUSH1 0x40 MLOAD PUSH3 0x461BCD PUSH1 0xE5 SHL DUP2 MSTORE PUSH1 0x4 ADD PUSH2 0x5E2 SWAP1 PUSH2 0x20FE JUMP JUMPDEST PUSH0 DUP5 DUP2 MSTORE PUSH1 0x4 PUSH1 0x20 SWAP1 DUP2 MSTORE PUSH1 0x40 DUP1 DUP4 KECCAK256 CALLER DUP5 MSTORE SWAP1 SWAP2 MSTORE SWAP1 KECCAK256 DUP1 SLOAD PUSH1 0xFF NOT AND PUSH1 0x1 SWAP1 DUP2 OR SWAP1 SWAP2 SSTORE PUSH1 0x3 DUP1 SLOAD DUP7 SWAP1 DUP2 LT PUSH2 0x124E JUMPI PUSH2 0x124E PUSH2 0x1F1A JUMP JUMPDEST SWAP1 PUSH0 MSTORE PUSH1 0x20 PUSH0 KECCAK256 SWAP1 PUSH1 0x5 MUL ADD PUSH1 0x4 ADD PUSH0 DUP3 DUP3 SLOAD PUSH2 0x126B SWAP2 SWAP1 PUSH2 0x2142 JUMP JUMPDEST SWAP3 POP POP DUP2 SWAP1 SSTORE POP CALLER PUSH1 0x1 PUSH1 0x1 PUSH1 0xA0 SHL SUB AND DUP5 PUSH32 0xFC56AC631A1B9D8326C2A92D7C3E87A2BB05DAFE8CDEAD39BCD8FD53291C20C1 PUSH1 0x3 DUP8 DUP2 SLOAD DUP2 LT PUSH2 0x12B1 JUMPI PUSH2 0x12B1 PUSH2 0x1F1A JUMP JUMPDEST SWAP1 PUSH0 MSTORE PUSH1 0x20 PUSH0 KECCAK256 SWAP1 PUSH1 0x5 MUL ADD PUSH1 0x4 ADD SLOAD PUSH1 0x40 MLOAD PUSH2 0x12D0 SWAP2 DUP2 MSTORE PUSH1 0x20 ADD SWAP1 JUMP JUMPDEST PUSH1 0x40 MLOAD DUP1 SWAP2 SUB SWAP1 LOG3 PUSH1 0x2 SLOAD PUSH1 0x3 DUP6 DUP2 SLOAD DUP2 LT PUSH2 0x12EE JUMPI PUSH2 0x12EE PUSH2 0x1F1A JUMP JUMPDEST SWAP1 PUSH0 MSTORE PUSH1 0x20 PUSH0 KECCAK256 SWAP1 PUSH1 0x5 MUL ADD PUSH1 0x4 ADD SLOAD LT PUSH2 0x130C JUMPI PUSH2 0x130C DUP5 PUSH2 0x1A89 JUMP JUMPDEST POP POP POP PUSH2 0x1325 PUSH1 0x1 PUSH0 DUP1 MLOAD PUSH1 0x20 PUSH2 0x22F4 DUP4 CODECOPY DUP2 MLOAD SWAP2 MSTORE SSTORE JUMP JUMPDEST POP JUMP JUMPDEST PUSH0 PUSH2 0x1331 PUSH2 0x1A6E JUMP JUMPDEST PUSH1 0x8 SLOAD PUSH1 0xFF AND ISZERO PUSH2 0x1354 JUMPI PUSH1 0x40 MLOAD PUSH3 0x461BCD PUSH1 0xE5 SHL DUP2 MSTORE PUSH1 0x4 ADD PUSH2 0x5E2 SWAP1 PUSH2 0x2073 JUMP JUMPDEST CALLER PUSH0 SWAP1 DUP2 MSTORE PUSH1 0x20 DUP2 SWAP1 MSTORE PUSH1 0x40 SWAP1 KECCAK256 SLOAD PUSH1 0xFF AND PUSH2 0x1382 JUMPI PUSH1 0x40 MLOAD PUSH3 0x461BCD PUSH1 0xE5 SHL DUP2 MSTORE PUSH1 0x4 ADD PUSH2 0x5E2 SWAP1 PUSH2 0x20FE JUMP JUMPDEST PUSH1 0x1 PUSH1 0x1 PUSH1 0xA0 SHL SUB DUP5 AND PUSH2 0x13E2 JUMPI PUSH1 0x40 MLOAD PUSH3 0x461BCD PUSH1 0xE5 SHL DUP2 MSTORE PUSH1 0x20 PUSH1 0x4 DUP3 ADD MSTORE PUSH1 0x21 PUSH1 0x24 DUP3 ADD MSTORE PUSH32 0x4D756C746953696757616C6C65743A2073696669722068656465662061647265 PUSH1 0x44 DUP3 ADD MSTORE PUSH1 0x73 PUSH1 0xF8 SHL PUSH1 0x64 DUP3 ADD MSTORE PUSH1 0x84 ADD PUSH2 0x5E2 JUMP JUMPDEST PUSH2 0x13ED DUP5 DUP5 DUP5 PUSH2 0x1B16 JUMP JUMPDEST SWAP1 POP PUSH2 0x1405 PUSH1 0x1 PUSH0 DUP1 MLOAD PUSH1 0x20 PUSH2 0x22F4 DUP4 CODECOPY DUP2 MLOAD SWAP2 MSTORE SSTORE JUMP JUMPDEST SWAP4 SWAP3 POP POP POP JUMP JUMPDEST CALLER ADDRESS EQ PUSH2 0x142B JUMPI PUSH1 0x40 MLOAD PUSH3 0x461BCD PUSH1 0xE5 SHL DUP2 MSTORE PUSH1 0x4 ADD PUSH2 0x5E2 SWAP1 PUSH2 0x1FD2 JUMP JUMPDEST PUSH1 0x6 DUP2 SWAP1 SSTORE PUSH1 0x40 MLOAD DUP2 DUP2 MSTORE PUSH32 0x9F612377CDA61E4CAB2ECDCC38839D6E27832DBC0ADD9B1CBCA8AAD006C16F4D SWAP1 PUSH1 0x20 ADD PUSH1 0x40 MLOAD DUP1 SWAP2 SUB SWAP1 LOG1 POP JUMP JUMPDEST CALLER ADDRESS EQ PUSH2 0x1485 JUMPI PUSH1 0x40 MLOAD PUSH3 0x461BCD PUSH1 0xE5 SHL DUP2 MSTORE PUSH1 0x4 ADD PUSH2 0x5E2 SWAP1 PUSH2 0x1FD2 JUMP JUMPDEST PUSH1 0x1 PUSH1 0x1 PUSH1 0xA0 SHL SUB DUP3 AND PUSH0 SWAP1 DUP2 MSTORE PUSH1 0x20 DUP2 SWAP1 MSTORE PUSH1 0x40 SWAP1 KECCAK256 SLOAD DUP3 SWAP1 PUSH1 0xFF AND PUSH2 0x14EE JUMPI PUSH1 0x40 MLOAD PUSH3 0x461BCD PUSH1 0xE5 SHL DUP2 MSTORE PUSH1 0x20 PUSH1 0x4 DUP3 ADD MSTORE PUSH1 0x1E PUSH1 0x24 DUP3 ADD MSTORE PUSH32 0x4F776E65724D616E616765723A2073616869702062756C756E616D6164690000 PUSH1 0x44 DUP3 ADD MSTORE PUSH1 0x64 ADD PUSH2 0x5E2 JUMP JUMPDEST PUSH1 0x1 PUSH1 0x1 PUSH1 0xA0 SHL SUB DUP3 AND PUSH0 SWAP1 DUP2 MSTORE PUSH1 0x20 DUP2 SWAP1 MSTORE PUSH1 0x40 SWAP1 KECCAK256 SLOAD DUP3 SWAP1 PUSH1 0xFF AND ISZERO PUSH2 0x1554 JUMPI PUSH1 0x40 MLOAD PUSH3 0x461BCD PUSH1 0xE5 SHL DUP2 MSTORE PUSH1 0x20 PUSH1 0x4 DUP3 ADD MSTORE PUSH1 0x19 PUSH1 0x24 DUP3 ADD MSTORE PUSH25 0x4F776E65724D616E616765723A207A6174656E20736168697 PUSH1 0x3C SHL PUSH1 0x44 DUP3 ADD MSTORE PUSH1 0x64 ADD PUSH2 0x5E2 JUMP JUMPDEST DUP3 PUSH1 0x1 PUSH1 0x1 PUSH1 0xA0 SHL SUB DUP2 AND PUSH2 0x15A7 JUMPI PUSH1 0x40 MLOAD PUSH3 0x461BCD PUSH1 0xE5 SHL DUP2 MSTORE PUSH1 0x20 PUSH1 0x4 DUP3 ADD MSTORE PUSH1 0x19 PUSH1 0x24 DUP3 ADD MSTORE PUSH25 0x4F776E65724D616E616765723A207369666972206164726573 PUSH1 0x38 SHL PUSH1 0x44 DUP3 ADD MSTORE PUSH1 0x64 ADD PUSH2 0x5E2 JUMP JUMPDEST PUSH1 0x1 SLOAD PUSH0 JUMPDEST DUP2 DUP2 LT ISZERO PUSH2 0x1640 JUMPI DUP7 PUSH1 0x1 PUSH1 0x1 PUSH1 0xA0 SHL SUB AND PUSH1 0x1 DUP3 DUP2 SLOAD DUP2 LT PUSH2 0x15D1 JUMPI PUSH2 0x15D1 PUSH2 0x1F1A JUMP JUMPDEST PUSH0 SWAP2 DUP3 MSTORE PUSH1 0x20 SWAP1 SWAP2 KECCAK256 ADD SLOAD PUSH1 0x1 PUSH1 0x1 PUSH1 0xA0 SHL SUB AND SUB PUSH2 0x162E JUMPI DUP6 PUSH1 0x1 DUP3 DUP2 SLOAD DUP2 LT PUSH2 0x15FE JUMPI PUSH2 0x15FE PUSH2 0x1F1A JUMP JUMPDEST SWAP1 PUSH0 MSTORE PUSH1 0x20 PUSH0 KECCAK256 ADD PUSH0 PUSH2 0x100 EXP DUP2 SLOAD DUP2 PUSH1 0x1 PUSH1 0x1 PUSH1 0xA0 SHL SUB MUL NOT AND SWAP1 DUP4 PUSH1 0x1 PUSH1 0x1 PUSH1 0xA0 SHL SUB AND MUL OR SWAP1 SSTORE POP PUSH2 0x1640 JUMP JUMPDEST DUP1 PUSH2 0x1638 DUP2 PUSH2 0x2047 JUMP JUMPDEST SWAP2 POP POP PUSH2 0x15AC JUMP JUMPDEST POP PUSH1 0x1 PUSH1 0x1 PUSH1 0xA0 SHL SUB DUP1 DUP8 AND PUSH0 DUP2 DUP2 MSTORE PUSH1 0x20 DUP2 SWAP1 MSTORE PUSH1 0x40 DUP1 DUP3 KECCAK256 DUP1 SLOAD PUSH1 0xFF NOT SWAP1 DUP2 AND SWAP1 SWAP2 SSTORE SWAP4 DUP10 AND DUP3 MSTORE DUP1 DUP3 KECCAK256 DUP1 SLOAD SWAP1 SWAP5 AND PUSH1 0x1 OR SWAP1 SWAP4 SSTORE SWAP2 MLOAD SWAP1 SWAP2 PUSH32 0x8001553A916EF2F495D26A907CC54D96ED840D7BDA71E73194BF5A9DF7A76B90 SWAP2 LOG2 PUSH1 0x40 MLOAD PUSH1 0x1 PUSH1 0x1 PUSH1 0xA0 SHL SUB DUP7 AND SWAP1 PUSH32 0xF39E6E1EB0EDCF53C221607B54B00CD28F3196FED0A24994DC308B8F611B682D SWAP1 PUSH0 SWAP1 LOG2 POP POP POP POP POP POP JUMP JUMPDEST PUSH2 0x16E2 PUSH2 0x1A6E JUMP JUMPDEST PUSH1 0x8 SLOAD PUSH1 0xFF AND ISZERO PUSH2 0x1705 JUMPI PUSH1 0x40 MLOAD PUSH3 0x461BCD PUSH1 0xE5 SHL DUP2 MSTORE PUSH1 0x4 ADD PUSH2 0x5E2 SWAP1 PUSH2 0x2073 JUMP JUMPDEST PUSH1 0x3 SLOAD DUP2 SWAP1 DUP2 LT PUSH2 0x1728 JUMPI PUSH1 0x40 MLOAD PUSH3 0x461BCD PUSH1 0xE5 SHL DUP2 MSTORE PUSH1 0x4 ADD PUSH2 0x5E2 SWAP1 PUSH2 0x1ED6 JUMP JUMPDEST DUP2 PUSH1 0x3 DUP2 DUP2 SLOAD DUP2 LT PUSH2 0x173C JUMPI PUSH2 0x173C PUSH2 0x1F1A JUMP JUMPDEST PUSH0 SWAP2 DUP3 MSTORE PUSH1 0x20 SWAP1 SWAP2 KECCAK256 PUSH1 0x3 PUSH1 0x5 SWAP1 SWAP3 MUL ADD ADD SLOAD PUSH1 0xFF AND ISZERO PUSH2 0x176F JUMPI PUSH1 0x40 MLOAD PUSH3 0x461BCD PUSH1 0xE5 SHL DUP2 MSTORE PUSH1 0x4 ADD PUSH2 0x5E2 SWAP1 PUSH2 0x20B5 JUMP JUMPDEST PUSH0 DUP4 DUP2 MSTORE PUSH1 0x7 PUSH1 0x20 MSTORE PUSH1 0x40 SWAP1 KECCAK256 SLOAD DUP4 SWAP1 PUSH1 0xFF AND DUP1 ISZERO PUSH2 0x179B JUMPI POP PUSH0 DUP2 DUP2 MSTORE PUSH1 0x5 PUSH1 0x20 MSTORE PUSH1 0x40 SWAP1 KECCAK256 SLOAD TIMESTAMP LT ISZERO JUMPDEST PUSH2 0x17FC JUMPI PUSH1 0x40 MLOAD PUSH3 0x461BCD PUSH1 0xE5 SHL DUP2 MSTORE PUSH1 0x20 PUSH1 0x4 DUP3 ADD MSTORE PUSH1 0x2C PUSH1 0x24 DUP3 ADD MSTORE PUSH32 0x5472616E73616374696F6E4D616E616765723A2074696D652D6C6F636B207375 PUSH1 0x44 DUP3 ADD MSTORE PUSH12 0x7265736920646F6C6D616469 PUSH1 0xA0 SHL PUSH1 0x64 DUP3 ADD MSTORE PUSH1 0x84 ADD PUSH2 0x5E2 JUMP JUMPDEST CALLER PUSH0 SWAP1 DUP2 MSTORE PUSH1 0x20 DUP2 SWAP1 MSTORE PUSH1 0x40 SWAP1 KECCAK256 SLOAD PUSH1 0xFF AND PUSH2 0x182A JUMPI PUSH1 0x40 MLOAD PUSH3 0x461BCD PUSH1 0xE5 SHL DUP2 MSTORE PUSH1 0x4 ADD PUSH2 0x5E2 SWAP1 PUSH2 0x20FE JUMP JUMPDEST PUSH1 0x2 SLOAD PUSH1 0x3 DUP6 DUP2 SLOAD DUP2 LT PUSH2 0x1840 JUMPI PUSH2 0x1840 PUSH2 0x1F1A JUMP JUMPDEST SWAP1 PUSH0 MSTORE PUSH1 0x20 PUSH0 KECCAK256 SWAP1 PUSH1 0x5 MUL ADD PUSH1 0x4 ADD SLOAD LT ISZERO PUSH2 0x18AA JUMPI PUSH1 0x40 MLOAD PUSH3 0x461BCD PUSH1 0xE5 SHL DUP2 MSTORE PUSH1 0x20 PUSH1 0x4 DUP3 ADD MSTORE PUSH1 0x24 DUP1 DUP3 ADD MSTORE PUSH32 0x4D756C746953696757616C6C65743A20796574657273697A206F6E6179207361 PUSH1 0x44 DUP3 ADD MSTORE PUSH4 0x79697369 PUSH1 0xE0 SHL PUSH1 0x64 DUP3 ADD MSTORE PUSH1 0x84 ADD PUSH2 0x5E2 JUMP JUMPDEST PUSH32 0x0 CHAINID EQ PUSH2 0x1919 JUMPI PUSH1 0x40 MLOAD PUSH3 0x461BCD PUSH1 0xE5 SHL DUP2 MSTORE PUSH1 0x20 PUSH1 0x4 DUP3 ADD MSTORE PUSH1 0x1D PUSH1 0x24 DUP3 ADD MSTORE PUSH32 0x4D756C746953696757616C6C65743A2079616E6C6973207A696E636972000000 PUSH1 0x44 DUP3 ADD MSTORE PUSH1 0x64 ADD PUSH2 0x5E2 JUMP JUMPDEST PUSH0 PUSH1 0x3 DUP6 DUP2 SLOAD DUP2 LT PUSH2 0x192D JUMPI PUSH2 0x192D PUSH2 0x1F1A JUMP JUMPDEST PUSH0 SWAP2 DUP3 MSTORE PUSH1 0x20 DUP3 KECCAK256 PUSH1 0x3 PUSH1 0x5 SWAP1 SWAP3 MUL ADD SWAP1 DUP2 ADD DUP1 SLOAD PUSH1 0xFF NOT AND PUSH1 0x1 OR SWAP1 SSTORE PUSH1 0x9 DUP1 SLOAD SWAP2 SWAP4 POP SWAP1 SWAP2 PUSH2 0x195D DUP4 PUSH2 0x2047 JUMP JUMPDEST SWAP1 SWAP2 SSTORE POP POP DUP1 SLOAD PUSH1 0x1 DUP3 ADD SLOAD PUSH1 0x40 MLOAD PUSH0 SWAP3 PUSH1 0x1 PUSH1 0x1 PUSH1 0xA0 SHL SUB AND SWAP2 SWAP1 PUSH2 0x1987 SWAP1 PUSH1 0x2 DUP7 ADD SWAP1 PUSH2 0x1F60 JUMP JUMPDEST PUSH0 PUSH1 0x40 MLOAD DUP1 DUP4 SUB DUP2 DUP6 DUP8 GAS CALL SWAP3 POP POP POP RETURNDATASIZE DUP1 PUSH0 DUP2 EQ PUSH2 0x19C1 JUMPI PUSH1 0x40 MLOAD SWAP2 POP PUSH1 0x1F NOT PUSH1 0x3F RETURNDATASIZE ADD AND DUP3 ADD PUSH1 0x40 MSTORE RETURNDATASIZE DUP3 MSTORE RETURNDATASIZE PUSH0 PUSH1 0x20 DUP5 ADD RETURNDATACOPY PUSH2 0x19C6 JUMP JUMPDEST PUSH1 0x60 SWAP2 POP JUMPDEST POP POP SWAP1 POP DUP1 PUSH2 0x1A27 JUMPI PUSH1 0x40 MLOAD PUSH3 0x461BCD PUSH1 0xE5 SHL DUP2 MSTORE PUSH1 0x20 PUSH1 0x4 DUP3 ADD MSTORE PUSH1 0x27 PUSH1 0x24 DUP3 ADD MSTORE PUSH32 0x4D756C746953696757616C6C65743A2069736C656D2079757275746D65206261 PUSH1 0x44 DUP3 ADD MSTORE PUSH7 0x39B0B934B9B4BD PUSH1 0xC9 SHL PUSH1 0x64 DUP3 ADD MSTORE PUSH1 0x84 ADD PUSH2 0x5E2 JUMP JUMPDEST PUSH1 0x40 MLOAD CALLER SWAP1 DUP8 SWAP1 PUSH32 0xFF0D827E815551EF359E2272C2751DE1C593CDFF65E6E59EFAB752E10E9EF6D2 SWAP1 PUSH0 SWAP1 LOG3 POP POP POP POP POP PUSH2 0x1325 PUSH1 0x1 PUSH0 DUP1 MLOAD PUSH1 0x20 PUSH2 0x22F4 DUP4 CODECOPY DUP2 MLOAD SWAP2 MSTORE SSTORE JUMP JUMPDEST PUSH2 0x1A76 PUSH2 0x1C67 JUMP JUMPDEST PUSH1 0x2 PUSH0 DUP1 MLOAD PUSH1 0x20 PUSH2 0x22F4 DUP4 CODECOPY DUP2 MLOAD SWAP2 MSTORE SSTORE JUMP JUMPDEST PUSH0 DUP2 DUP2 MSTORE PUSH1 0x7 PUSH1 0x20 MSTORE PUSH1 0x40 SWAP1 KECCAK256 SLOAD PUSH1 0xFF AND PUSH2 0x1325 JUMPI PUSH0 DUP2 DUP2 MSTORE PUSH1 0x7 PUSH1 0x20 MSTORE PUSH1 0x40 DUP2 KECCAK256 DUP1 SLOAD PUSH1 0xFF NOT AND PUSH1 0x1 OR SWAP1 SSTORE PUSH1 0x6 SLOAD PUSH2 0x1AC3 SWAP1 TIMESTAMP PUSH2 0x2142 JUMP JUMPDEST PUSH0 DUP4 DUP2 MSTORE PUSH1 0x5 PUSH1 0x20 MSTORE PUSH1 0x40 SWAP1 DUP2 SWAP1 KECCAK256 DUP3 SWAP1 SSTORE MLOAD SWAP1 SWAP2 POP DUP3 SWAP1 PUSH32 0xD09D8A4004DE7142808DF13DD454366F187019080B2FE2D5875F9A84F248B649 SWAP1 PUSH2 0x1B0A SWAP1 DUP5 DUP2 MSTORE PUSH1 0x20 ADD SWAP1 JUMP JUMPDEST PUSH1 0x40 MLOAD DUP1 SWAP2 SUB SWAP1 LOG2 POP POP JUMP JUMPDEST PUSH1 0x3 DUP1 SLOAD PUSH1 0x40 DUP1 MLOAD PUSH1 0xA0 DUP2 ADD DUP3 MSTORE PUSH1 0x1 PUSH1 0x1 PUSH1 0xA0 SHL SUB DUP8 DUP2 AND DUP3 MSTORE PUSH1 0x20 DUP3 ADD DUP8 DUP2 MSTORE SWAP3 DUP3 ADD DUP7 DUP2 MSTORE PUSH0 PUSH1 0x60 DUP5 ADD DUP2 SWAP1 MSTORE PUSH1 0x80 DUP5 ADD DUP2 SWAP1 MSTORE PUSH1 0x1 DUP7 ADD DUP8 SSTORE SWAP6 SWAP1 SWAP6 MSTORE DUP2 MLOAD PUSH32 0xC2575A0E9E593C00F959F8C92F12DB2869C3395A3B0502D05E2516446F71F85B PUSH1 0x5 DUP7 MUL SWAP1 DUP2 ADD DUP1 SLOAD PUSH1 0x1 PUSH1 0x1 PUSH1 0xA0 SHL SUB NOT AND SWAP3 SWAP1 SWAP4 AND SWAP2 SWAP1 SWAP2 OR DUP3 SSTORE SWAP3 MLOAD PUSH32 0xC2575A0E9E593C00F959F8C92F12DB2869C3395A3B0502D05E2516446F71F85C DUP5 ADD SSTORE SWAP4 MLOAD SWAP3 SWAP4 SWAP1 SWAP3 SWAP1 SWAP2 PUSH32 0xC2575A0E9E593C00F959F8C92F12DB2869C3395A3B0502D05E2516446F71F85D ADD SWAP1 PUSH2 0x1BF2 SWAP1 DUP3 PUSH2 0x2217 JUMP JUMPDEST POP PUSH1 0x60 DUP3 ADD MLOAD PUSH1 0x3 DUP3 ADD DUP1 SLOAD PUSH1 0xFF NOT AND SWAP2 ISZERO ISZERO SWAP2 SWAP1 SWAP2 OR SWAP1 SSTORE PUSH1 0x80 SWAP1 SWAP2 ADD MLOAD PUSH1 0x4 SWAP1 SWAP2 ADD SSTORE PUSH1 0x40 MLOAD PUSH1 0x1 PUSH1 0x1 PUSH1 0xA0 SHL SUB DUP6 AND SWAP1 CALLER SWAP1 DUP4 SWAP1 PUSH32 0xB7D255440CB386FFE845E52783C32A06625C034E8A0D98615481AF247ED802C3 SWAP1 PUSH2 0x1C58 SWAP1 DUP9 SWAP1 DUP9 SWAP1 PUSH2 0x22D3 JUMP JUMPDEST PUSH1 0x40 MLOAD DUP1 SWAP2 SUB SWAP1 LOG4 SWAP4 SWAP3 POP POP POP JUMP JUMPDEST PUSH0 DUP1 MLOAD PUSH1 0x20 PUSH2 0x22F4 DUP4 CODECOPY DUP2 MLOAD SWAP2 MSTORE SLOAD PUSH1 0x2 SUB PUSH2 0x1C96 JUMPI PUSH1 0x40 MLOAD PUSH4 0x3EE5AEB5 PUSH1 0xE0 SHL DUP2 MSTORE PUSH1 0x4 ADD PUSH1 0x40 MLOAD DUP1 SWAP2 SUB SWAP1 REVERT JUMPDEST JUMP JUMPDEST PUSH0 PUSH1 0x20 DUP3 DUP5 SUB SLT ISZERO PUSH2 0x1CA8 JUMPI PUSH0 DUP1 REVERT JUMPDEST POP CALLDATALOAD SWAP2 SWAP1 POP JUMP JUMPDEST DUP1 CALLDATALOAD PUSH1 0x1 PUSH1 0x1 PUSH1 0xA0 SHL SUB DUP2 AND DUP2 EQ PUSH2 0x1CC5 JUMPI PUSH0 DUP1 REVERT JUMPDEST SWAP2 SWAP1 POP JUMP JUMPDEST PUSH0 PUSH1 0x20 DUP3 DUP5 SUB SLT ISZERO PUSH2 0x1CDA JUMPI PUSH0 DUP1 REVERT JUMPDEST PUSH2 0x1405 DUP3 PUSH2 0x1CAF JUMP JUMPDEST PUSH0 DUP2 MLOAD DUP1 DUP5 MSTORE PUSH0 JUMPDEST DUP2 DUP2 LT ISZERO PUSH2 0x1D07 JUMPI PUSH1 0x20 DUP2 DUP6 ADD DUP2 ADD MLOAD DUP7 DUP4 ADD DUP3 ADD MSTORE ADD PUSH2 0x1CEB JUMP JUMPDEST POP PUSH0 PUSH1 0x20 DUP3 DUP7 ADD ADD MSTORE PUSH1 0x20 PUSH1 0x1F NOT PUSH1 0x1F DUP4 ADD AND DUP6 ADD ADD SWAP2 POP POP SWAP3 SWAP2 POP POP JUMP JUMPDEST PUSH1 0x1 DUP1 PUSH1 0xA0 SHL SUB DUP7 AND DUP2 MSTORE DUP5 PUSH1 0x20 DUP3 ADD MSTORE PUSH1 0xA0 PUSH1 0x40 DUP3 ADD MSTORE PUSH0 PUSH2 0x1D4C PUSH1 0xA0 DUP4 ADD DUP7 PUSH2 0x1CE3 JUMP JUMPDEST SWAP4 ISZERO ISZERO PUSH1 0x60 DUP4 ADD MSTORE POP PUSH1 0x80 ADD MSTORE SWAP4 SWAP3 POP POP POP JUMP JUMPDEST PUSH0 DUP1 PUSH1 0x40 DUP4 DUP6 SUB SLT ISZERO PUSH2 0x1D71 JUMPI PUSH0 DUP1 REVERT JUMPDEST DUP3 CALLDATALOAD SWAP2 POP PUSH2 0x1D81 PUSH1 0x20 DUP5 ADD PUSH2 0x1CAF JUMP JUMPDEST SWAP1 POP SWAP3 POP SWAP3 SWAP1 POP JUMP JUMPDEST PUSH1 0x20 DUP1 DUP3 MSTORE DUP3 MLOAD DUP3 DUP3 ADD DUP2 SWAP1 MSTORE PUSH0 SWAP2 SWAP1 DUP5 DUP3 ADD SWAP1 PUSH1 0x40 DUP6 ADD SWAP1 DUP5 JUMPDEST DUP2 DUP2 LT ISZERO PUSH2 0x1DCA JUMPI DUP4 MLOAD PUSH1 0x1 PUSH1 0x1 PUSH1 0xA0 SHL SUB AND DUP4 MSTORE SWAP3 DUP5 ADD SWAP3 SWAP2 DUP5 ADD SWAP2 PUSH1 0x1 ADD PUSH2 0x1DA5 JUMP JUMPDEST POP SWAP1 SWAP7 SWAP6 POP POP POP POP POP POP JUMP JUMPDEST PUSH4 0x4E487B71 PUSH1 0xE0 SHL PUSH0 MSTORE PUSH1 0x41 PUSH1 0x4 MSTORE PUSH1 0x24 PUSH0 REVERT JUMPDEST PUSH0 DUP1 PUSH0 PUSH1 0x60 DUP5 DUP7 SUB SLT ISZERO PUSH2 0x1DFC JUMPI PUSH0 DUP1 REVERT JUMPDEST PUSH2 0x1E05 DUP5 PUSH2 0x1CAF JUMP JUMPDEST SWAP3 POP PUSH1 0x20 DUP5 ADD CALLDATALOAD SWAP2 POP PUSH1 0x40 DUP5 ADD CALLDATALOAD PUSH8 0xFFFFFFFFFFFFFFFF DUP1 DUP3 GT ISZERO PUSH2 0x1E28 JUMPI PUSH0 DUP1 REVERT JUMPDEST DUP2 DUP7 ADD SWAP2 POP DUP7 PUSH1 0x1F DUP4 ADD SLT PUSH2 0x1E3B JUMPI PUSH0 DUP1 REVERT JUMPDEST DUP2 CALLDATALOAD DUP2 DUP2 GT ISZERO PUSH2 0x1E4D JUMPI PUSH2 0x1E4D PUSH2 0x1DD6 JUMP JUMPDEST PUSH1 0x40 MLOAD PUSH1 0x1F DUP3 ADD PUSH1 0x1F NOT SWAP1 DUP2 AND PUSH1 0x3F ADD AND DUP2 ADD SWAP1 DUP4 DUP3 GT DUP2 DUP4 LT OR ISZERO PUSH2 0x1E75 JUMPI PUSH2 0x1E75 PUSH2 0x1DD6 JUMP JUMPDEST DUP2 PUSH1 0x40 MSTORE DUP3 DUP2 MSTORE DUP10 PUSH1 0x20 DUP5 DUP8 ADD ADD GT ISZERO PUSH2 0x1E8D JUMPI PUSH0 DUP1 REVERT JUMPDEST DUP3 PUSH1 0x20 DUP7 ADD PUSH1 0x20 DUP4 ADD CALLDATACOPY PUSH0 PUSH1 0x20 DUP5 DUP4 ADD ADD MSTORE DUP1 SWAP6 POP POP POP POP POP POP SWAP3 POP SWAP3 POP SWAP3 JUMP JUMPDEST PUSH0 DUP1 PUSH1 0x40 DUP4 DUP6 SUB SLT ISZERO PUSH2 0x1EBF JUMPI PUSH0 DUP1 REVERT JUMPDEST PUSH2 0x1EC8 DUP4 PUSH2 0x1CAF JUMP JUMPDEST SWAP2 POP PUSH2 0x1D81 PUSH1 0x20 DUP5 ADD PUSH2 0x1CAF JUMP JUMPDEST PUSH1 0x20 DUP1 DUP3 MSTORE PUSH1 0x24 SWAP1 DUP3 ADD MSTORE PUSH32 0x5472616E73616374696F6E4D616E616765723A2069736C656D2062756C756E61 PUSH1 0x40 DUP3 ADD MSTORE PUSH4 0x6D616469 PUSH1 0xE0 SHL PUSH1 0x60 DUP3 ADD MSTORE PUSH1 0x80 ADD SWAP1 JUMP JUMPDEST PUSH4 0x4E487B71 PUSH1 0xE0 SHL PUSH0 MSTORE PUSH1 0x32 PUSH1 0x4 MSTORE PUSH1 0x24 PUSH0 REVERT JUMPDEST PUSH1 0x1 DUP2 DUP2 SHR SWAP1 DUP3 AND DUP1 PUSH2 0x1F42 JUMPI PUSH1 0x7F DUP3 AND SWAP2 POP JUMPDEST PUSH1 0x20 DUP3 LT DUP2 SUB PUSH2 0x719 JUMPI PUSH4 0x4E487B71 PUSH1 0xE0 SHL PUSH0 MSTORE PUSH1 0x22 PUSH1 0x4 MSTORE PUSH1 0x24 PUSH0 REVERT JUMPDEST PUSH0 DUP1 DUP4 SLOAD PUSH2 0x1F6D DUP2 PUSH2 0x1F2E JUMP JUMPDEST PUSH1 0x1 DUP3 DUP2 AND DUP1 ISZERO PUSH2 0x1F85 JUMPI PUSH1 0x1 DUP2 EQ PUSH2 0x1F9A JUMPI PUSH2 0x1FC6 JUMP JUMPDEST PUSH1 0xFF NOT DUP5 AND DUP8 MSTORE DUP3 ISZERO ISZERO DUP4 MUL DUP8 ADD SWAP5 POP PUSH2 0x1FC6 JUMP JUMPDEST DUP8 PUSH0 MSTORE PUSH1 0x20 DUP1 PUSH0 KECCAK256 PUSH0 JUMPDEST DUP6 DUP2 LT ISZERO PUSH2 0x1FBD JUMPI DUP2 SLOAD DUP11 DUP3 ADD MSTORE SWAP1 DUP5 ADD SWAP1 DUP3 ADD PUSH2 0x1FA4 JUMP JUMPDEST POP POP POP DUP3 DUP8 ADD SWAP5 POP JUMPDEST POP SWAP3 SWAP7 SWAP6 POP POP POP POP POP POP JUMP JUMPDEST PUSH1 0x20 DUP1 DUP3 MSTORE PUSH1 0x28 SWAP1 DUP3 ADD MSTORE PUSH32 0x4F776E65724D616E616765723A20736164656365206B6F6E7472617420636167 PUSH1 0x40 DUP3 ADD MSTORE PUSH8 0x34B930B134B634B9 PUSH1 0xC1 SHL PUSH1 0x60 DUP3 ADD MSTORE PUSH1 0x80 ADD SWAP1 JUMP JUMPDEST PUSH4 0x4E487B71 PUSH1 0xE0 SHL PUSH0 MSTORE PUSH1 0x11 PUSH1 0x4 MSTORE PUSH1 0x24 PUSH0 REVERT JUMPDEST DUP2 DUP2 SUB DUP2 DUP2 GT ISZERO PUSH2 0x2041 JUMPI PUSH2 0x2041 PUSH2 0x201A JUMP JUMPDEST SWAP3 SWAP2 POP POP JUMP JUMPDEST PUSH0 PUSH1 0x1 DUP3 ADD PUSH2 0x2058 JUMPI PUSH2 0x2058 PUSH2 0x201A JUMP JUMPDEST POP PUSH1 0x1 ADD SWAP1 JUMP JUMPDEST PUSH4 0x4E487B71 PUSH1 0xE0 SHL PUSH0 MSTORE PUSH1 0x31 PUSH1 0x4 MSTORE PUSH1 0x24 PUSH0 REVERT JUMPDEST PUSH1 0x20 DUP1 DUP3 MSTORE PUSH1 0x22 SWAP1 DUP3 ADD MSTORE PUSH32 0x4D756C746953696757616C6C65743A2063757A6364616E20647572647572756C PUSH1 0x40 DUP3 ADD MSTORE PUSH2 0x6475 PUSH1 0xF0 SHL PUSH1 0x60 DUP3 ADD MSTORE PUSH1 0x80 ADD SWAP1 JUMP JUMPDEST PUSH1 0x20 DUP1 DUP3 MSTORE PUSH1 0x29 SWAP1 DUP3 ADD MSTORE PUSH32 0x5472616E73616374696F6E4D616E616765723A2069736C656D207A6174656E20 PUSH1 0x40 DUP3 ADD MSTORE PUSH9 0x7975727574756C6475 PUSH1 0xB8 SHL PUSH1 0x60 DUP3 ADD MSTORE PUSH1 0x80 ADD SWAP1 JUMP JUMPDEST PUSH1 0x20 DUP1 DUP3 MSTORE PUSH1 0x24 SWAP1 DUP3 ADD MSTORE PUSH32 0x4D756C746953696757616C6C65743A2073616465636520736168697020636167 PUSH1 0x40 DUP3 ADD MSTORE PUSH4 0x34B934B9 PUSH1 0xE1 SHL PUSH1 0x60 DUP3 ADD MSTORE PUSH1 0x80 ADD SWAP1 JUMP JUMPDEST DUP1 DUP3 ADD DUP1 DUP3 GT ISZERO PUSH2 0x2041 JUMPI PUSH2 0x2041 PUSH2 0x201A JUMP JUMPDEST DUP1 DUP3 MUL DUP2 ISZERO DUP3 DUP3 DIV DUP5 EQ OR PUSH2 0x2041 JUMPI PUSH2 0x2041 PUSH2 0x201A JUMP JUMPDEST PUSH1 0x20 DUP1 DUP3 MSTORE PUSH1 0x37 SWAP1 DUP3 ADD MSTORE PUSH32 0x4F776E65724D616E616765723A20676563657273697A204D2076657961204E20 PUSH1 0x40 DUP3 ADD MSTORE PUSH32 0x64656765726920284D203E3D204E2F3220736172746929000000000000000000 PUSH1 0x60 DUP3 ADD MSTORE PUSH1 0x80 ADD SWAP1 JUMP JUMPDEST PUSH1 0x1F DUP3 GT ISZERO PUSH2 0x2212 JUMPI PUSH0 DUP2 DUP2 MSTORE PUSH1 0x20 DUP2 KECCAK256 PUSH1 0x1F DUP6 ADD PUSH1 0x5 SHR DUP2 ADD PUSH1 0x20 DUP7 LT ISZERO PUSH2 0x21EF JUMPI POP DUP1 JUMPDEST PUSH1 0x1F DUP6 ADD PUSH1 0x5 SHR DUP3 ADD SWAP2 POP JUMPDEST DUP2 DUP2 LT ISZERO PUSH2 0x220E JUMPI DUP3 DUP2 SSTORE PUSH1 0x1 ADD PUSH2 0x21FB JUMP JUMPDEST POP POP POP JUMPDEST POP POP POP JUMP JUMPDEST DUP2 MLOAD PUSH8 0xFFFFFFFFFFFFFFFF DUP2 GT ISZERO PUSH2 0x2231 JUMPI PUSH2 0x2231 PUSH2 0x1DD6 JUMP JUMPDEST PUSH2 0x2245 DUP2 PUSH2 0x223F DUP5 SLOAD PUSH2 0x1F2E JUMP JUMPDEST DUP5 PUSH2 0x21C9 JUMP JUMPDEST PUSH1 0x20 DUP1 PUSH1 0x1F DUP4 GT PUSH1 0x1 DUP2 EQ PUSH2 0x2278 JUMPI PUSH0 DUP5 ISZERO PUSH2 0x2261 JUMPI POP DUP6 DUP4 ADD MLOAD JUMPDEST PUSH0 NOT PUSH1 0x3 DUP7 SWAP1 SHL SHR NOT AND PUSH1 0x1 DUP6 SWAP1 SHL OR DUP6 SSTORE PUSH2 0x220E JUMP JUMPDEST PUSH0 DUP6 DUP2 MSTORE PUSH1 0x20 DUP2 KECCAK256 PUSH1 0x1F NOT DUP7 AND SWAP2 JUMPDEST DUP3 DUP2 LT ISZERO PUSH2 0x22A6 JUMPI DUP9 DUP7 ADD MLOAD DUP3 SSTORE SWAP5 DUP5 ADD SWAP5 PUSH1 0x1 SWAP1 SWAP2 ADD SWAP1 DUP5 ADD PUSH2 0x2287 JUMP JUMPDEST POP DUP6 DUP3 LT ISZERO PUSH2 0x22C3 JUMPI DUP8 DUP6 ADD MLOAD PUSH0 NOT PUSH1 0x3 DUP9 SWAP1 SHL PUSH1 0xF8 AND SHR NOT AND DUP2 SSTORE JUMPDEST POP POP POP POP POP PUSH1 0x1 SWAP1 DUP2 SHL ADD SWAP1 SSTORE POP JUMP JUMPDEST DUP3 DUP2 MSTORE PUSH1 0x40 PUSH1 0x20 DUP3 ADD MSTORE PUSH0 PUSH2 0x22EB PUSH1 0x40 DUP4 ADD DUP5 PUSH2 0x1CE3 JUMP JUMPDEST SWAP5 SWAP4 POP POP POP POP JUMP INVALID SWAP12 PUSH24 0x9B17422D0DF92223018B32B4D1FA46E071723D6817E2486D STOP EXTCODESIZE 0xEC 0xC5 PUSH0 STOP LOG2 PUSH5 0x6970667358 0x22 SLT KECCAK256 0x26 SELFDESTRUCT GT 0x2F SLOAD 0xD2 SWAP11 0xEF 0xF9 0xAA SMOD 0xFB ADDMOD 0xC5 PUSH21 0xFB8D0462FE832B4A9F0F66672211A76A6564736F6C PUSH4 0x43000814 STOP CALLER "},"methodIdentifiers":{"DOMAIN_SEPARATOR()":"3644e515","addOwner(address)":"7065cb48","changeRequirement(uint256)":"ba51a6df","changeTimeLockDuration(uint256)":"cd105b32","confirmTransaction(uint256)":"c01a8c84","confirmed(uint256,address)":"8790c1de","executeTransaction(uint256)":"ee22610b","getBalance()":"12065fe0","getChainId()":"3408e470","getConfirmationStatus(uint256,address)":"78810a3b","getOwners()":"a0e67e2b","getTransaction(uint256)":"33ea3dc8","getTransactionCount()":"2e7700f0","getTransactionHash(uint256)":"11134384","isConfirmed(uint256)":"784547a7","isOwner(address)":"2f54bf6e","nonce()":"affed0e0","numConfirmationsRequired()":"d0549b85","owners(uint256)":"025e7c27","pause()":"8456cb59","paused()":"5c975abb","readyTime(uint256)":"19e24d12","removeOwner(address)":"173825d9","replaceOwner(address,address)":"e20056e6","revokeConfirmation(uint256)":"20ea8d86","submitTransaction(address,uint256,bytes)":"c6427474","timeLockDuration()":"ff96df44","unpause()":"3f4ba83a"}}}}}