{
  "_format": "hh3-artifact-1",
  "contractName": "MultiSigWallet",
  "sourceName": "contracts/MultiSigWallet.sol",
  "abi": [
    {
      "inputs": [
        {
          "internalType": "address[]",
          "name": "_owners",
          "type": "address[]"
        },
        {
          "internalType": "uint256",
          "name": "_numConfirmationsRequired",
          "type": "uint256"
        }
      ],
      "stateMutability": "nonpayable",
      "type": "constructor"
    },
    {
      "inputs": [],
      "name": "ReentrancyGuardReentrantCall",
      "type": "error"
    },
    {
      "anonymous": false,
      "inputs": [
        {
          "indexed": true,
          "internalType": "uint256",
          "name": "txIndex",
          "type": "uint256"
        },
        {
          "indexed": true,
          "internalType": "address",
          "name": "confirmer",
          "type": "address"
        },
        {
          "indexed": false,
          "internalType": "uint256",
          "name": "confirmationCount",
          "type": "uint256"
        }
      ],
      "name": "ConfirmTransaction",
      "type": "event"
    },
    {
      "anonymous": false,
      "inputs": [
        {
          "indexed": true,
          "internalType": "address",
          "name": "sender",
          "type": "address"
        },
        {
          "indexed": false,
          "internalType": "uint256",
          "name": "amount",
          "type": "uint256"
        },
        {
          "indexed": false,
          "internalType": "uint256",
          "name": "balance",
          "type": "uint256"
        }
      ],
      "name": "Deposit",
      "type": "event"
    },
    {
      "anonymous": false,
      "inputs": [
        {
          "indexed": true,
          "internalType": "address",
          "name": "triggeredBy",
          "type": "address"
        }
      ],
      "name": "EmergencyPaused",
      "type": "event"
    },
    {
      "anonymous": false,
      "inputs": [
        {
          "indexed": true,
          "internalType": "address",
          "name": "triggeredBy",
          "type": "address"
        }
      ],
      "name": "EmergencyUnpaused",
      "type": "event"
    },
    {
      "anonymous": false,
      "inputs": [
        {
          "indexed": true,
          "internalType": "uint256",
          "name": "txIndex",
          "type": "uint256"
        },
        {
          "indexed": true,
          "internalType": "address",
          "name": "executor",
          "type": "address"
        }
      ],
      "name": "ExecuteTransaction",
      "type": "event"
    },
    {
      "anonymous": false,
      "inputs": [
        {
          "indexed": true,
          "internalType": "address",
          "name": "owner",
          "type": "address"
        }
      ],
      "name": "OwnerAddition",
      "type": "event"
    },
    {
      "anonymous": false,
      "inputs": [
        {
          "indexed": true,
          "internalType": "address",
          "name": "owner",
          "type": "address"
        }
      ],
      "name": "OwnerRemoval",
      "type": "event"
    },
    {
      "anonymous": false,
      "inputs": [
        {
          "indexed": false,
          "internalType": "uint256",
          "name": "required",
          "type": "uint256"
        }
      ],
      "name": "RequirementChange",
      "type": "event"
    },
    {
      "anonymous": false,
      "inputs": [
        {
          "indexed": true,
          "internalType": "uint256",
          "name": "txIndex",
          "type": "uint256"
        },
        {
          "indexed": true,
          "internalType": "address",
          "name": "revoker",
          "type": "address"
        }
      ],
      "name": "RevokeConfirmation",
      "type": "event"
    },
    {
      "anonymous": false,
      "inputs": [
        {
          "indexed": true,
          "internalType": "uint256",
          "name": "txIndex",
          "type": "uint256"
        },
        {
          "indexed": true,
          "internalType": "address",
          "name": "submitter",
          "type": "address"
        },
        {
          "indexed": true,
          "internalType": "address",
          "name": "to",
          "type": "address"
        },
        {
          "indexed": false,
          "internalType": "uint256",
          "name": "value",
          "type": "uint256"
        },
        {
          "indexed": false,
          "internalType": "bytes",
          "name": "data",
          "type": "bytes"
        }
      ],
      "name": "SubmitTransaction",
      "type": "event"
    },
    {
      "anonymous": false,
      "inputs": [
        {
          "indexed": false,
          "internalType": "uint256",
          "name": "newDuration",
          "type": "uint256"
        }
      ],
      "name": "TimeLockDurationChanged",
      "type": "event"
    },
    {
      "anonymous": false,
      "inputs": [
        {
          "indexed": true,
          "internalType": "uint256",
          "name": "txIndex",
          "type": "uint256"
        },
        {
          "indexed": false,
          "internalType": "uint256",
          "name": "unlockTime",
          "type": "uint256"
        }
      ],
      "name": "TimeLockTriggered",
      "type": "event"
    },
    {
      "inputs": [],
      "name": "DOMAIN_SEPARATOR",
      "outputs": [
        {
          "internalType": "bytes32",
          "name": "",
          "type": "bytes32"
        }
      ],
      "stateMutability": "view",
      "type": "function"
    },
    {
      "inputs": [
        {
          "internalType": "address",
          "name": "owner",
          "type": "address"
        }
      ],
      "name": "addOwner",
      "outputs": [],
      "stateMutability": "nonpayable",
      "type": "function"
    },
    {
      "inputs": [
        {
          "internalType": "uint256",
          "name": "_required",
          "type": "uint256"
        }
      ],
      "name": "changeRequirement",
      "outputs": [],
      "stateMutability": "nonpayable",
      "type": "function"
    },
    {
      "inputs": [
        {
          "internalType": "uint256",
          "name": "_duration",
          "type": "uint256"
        }
      ],
      "name": "changeTimeLockDuration",
      "outputs": [],
      "stateMutability": "nonpayable",
      "type": "function"
    },
    {
      "inputs": [
        {
          "internalType": "uint256",
          "name": "_txIndex",
          "type": "uint256"
        }
      ],
      "name": "confirmTransaction",
      "outputs": [],
      "stateMutability": "nonpayable",
      "type": "function"
    },
    {
      "inputs": [
        {
          "internalType": "uint256",
          "name": "",
          "type": "uint256"
        },
        {
          "internalType": "address",
          "name": "",
          "type": "address"
        }
      ],
      "name": "confirmed",
      "outputs": [
        {
          "internalType": "bool",
          "name": "",
          "type": "bool"
        }
      ],
      "stateMutability": "view",
      "type": "function"
    },
    {
      "inputs": [
        {
          "internalType": "uint256",
          "name": "_txIndex",
          "type": "uint256"
        }
      ],
      "name": "executeTransaction",
      "outputs": [],
      "stateMutability": "nonpayable",
      "type": "function"
    },
    {
      "inputs": [],
      "name": "getBalance",
      "outputs": [
        {
          "internalType": "uint256",
          "name": "",
          "type": "uint256"
        }
      ],
      "stateMutability": "view",
      "type": "function"
    },
    {
      "inputs": [],
      "name": "getChainId",
      "outputs": [
        {
          "internalType": "uint256",
          "name": "",
          "type": "uint256"
        }
      ],
      "stateMutability": "view",
      "type": "function"
    },
    {
      "inputs": [
        {
          "internalType": "uint256",
          "name": "_txIndex",
          "type": "uint256"
        },
        {
          "internalType": "address",
          "name": "_owner",
          "type": "address"
        }
      ],
      "name": "getConfirmationStatus",
      "outputs": [
        {
          "internalType": "bool",
          "name": "",
          "type": "bool"
        }
      ],
      "stateMutability": "view",
      "type": "function"
    },
    {
      "inputs": [],
      "name": "getOwners",
      "outputs": [
        {
          "internalType": "address[]",
          "name": "",
          "type": "address[]"
        }
      ],
      "stateMutability": "view",
      "type": "function"
    },
    {
      "inputs": [
        {
          "internalType": "uint256",
          "name": "_txIndex",
          "type": "uint256"
        }
      ],
      "name": "getTransaction",
      "outputs": [
        {
          "internalType": "address",
          "name": "to",
          "type": "address"
        },
        {
          "internalType": "uint256",
          "name": "value",
          "type": "uint256"
        },
        {
          "internalType": "bytes",
          "name": "data",
          "type": "bytes"
        },
        {
          "internalType": "bool",
          "name": "executed",
          "type": "bool"
        },
        {
          "internalType": "uint256",
          "name": "numConfirmations",
          "type": "uint256"
        }
      ],
      "stateMutability": "view",
      "type": "function"
    },
    {
      "inputs": [],
      "name": "getTransactionCount",
      "outputs": [
        {
          "internalType": "uint256",
          "name": "",
          "type": "uint256"
        }
      ],
      "stateMutability": "view",
      "type": "function"
    },
    {
      "inputs": [
        {
          "internalType": "uint256",
          "name": "_txIndex",
          "type": "uint256"
        }
      ],
      "name": "getTransactionHash",
      "outputs": [
        {
          "internalType": "bytes32",
          "name": "",
          "type": "bytes32"
        }
      ],
      "stateMutability": "view",
      "type": "function"
    },
    {
      "inputs": [
        {
          "internalType": "uint256",
          "name": "_txIndex",
          "type": "uint256"
        }
      ],
      "name": "isConfirmed",
      "outputs": [
        {
          "internalType": "bool",
          "name": "",
          "type": "bool"
        }
      ],
      "stateMutability": "view",
      "type": "function"
    },
    {
      "inputs": [
        {
          "internalType": "address",
          "name": "",
          "type": "address"
        }
      ],
      "name": "isOwner",
      "outputs": [
        {
          "internalType": "bool",
          "name": "",
          "type": "bool"
        }
      ],
      "stateMutability": "view",
      "type": "function"
    },
    {
      "inputs": [],
      "name": "nonce",
      "outputs": [
        {
          "internalType": "uint256",
          "name": "",
          "type": "uint256"
        }
      ],
      "stateMutability": "view",
      "type": "function"
    },
    {
      "inputs": [],
      "name": "numConfirmationsRequired",
      "outputs": [
        {
          "internalType": "uint256",
          "name": "",
          "type": "uint256"
        }
      ],
      "stateMutability": "view",
      "type": "function"
    },
    {
      "inputs": [
        {
          "internalType": "uint256",
          "name": "",
          "type": "uint256"
        }
      ],
      "name": "owners",
      "outputs": [
        {
          "internalType": "address",
          "name": "",
          "type": "address"
        }
      ],
      "stateMutability": "view",
      "type": "function"
    },
    {
      "inputs": [],
      "name": "pause",
      "outputs": [],
      "stateMutability": "nonpayable",
      "type": "function"
    },
    {
      "inputs": [],
      "name": "paused",
      "outputs": [
        {
          "internalType": "bool",
          "name": "",
          "type": "bool"
        }
      ],
      "stateMutability": "view",
      "type": "function"
    },
    {
      "inputs": [
        {
          "internalType": "uint256",
          "name": "",
          "type": "uint256"
        }
      ],
      "name": "readyTime",
      "outputs": [
        {
          "internalType": "uint256",
          "name": "",
          "type": "uint256"
        }
      ],
      "stateMutability": "view",
      "type": "function"
    },
    {
      "inputs": [
        {
          "internalType": "address",
          "name": "owner",
          "type": "address"
        }
      ],
      "name": "removeOwner",
      "outputs": [],
      "stateMutability": "nonpayable",
      "type": "function"
    },
    {
      "inputs": [
        {
          "internalType": "address",
          "name": "owner",
          "type": "address"
        },
        {
          "internalType": "address",
          "name": "newOwner",
          "type": "address"
        }
      ],
      "name": "replaceOwner",
      "outputs": [],
      "stateMutability": "nonpayable",
      "type": "function"
    },
    {
      "inputs": [
        {
          "internalType": "uint256",
          "name": "_txIndex",
          "type": "uint256"
        }
      ],
      "name": "revokeConfirmation",
      "outputs": [],
      "stateMutability": "nonpayable",
      "type": "function"
    },
    {
      "inputs": [
        {
          "internalType": "address",
          "name": "_to",
          "type": "address"
        },
        {
          "internalType": "uint256",
          "name": "_value",
          "type": "uint256"
        },
        {
          "internalType": "bytes",
          "name": "_data",
          "type": "bytes"
        }
      ],
      "name": "submitTransaction",
      "outputs": [
        {
          "internalType": "uint256",
          "name": "txIndex",
          "type": "uint256"
        }
      ],
      "stateMutability": "nonpayable",
      "type": "function"
    },
    {
      "inputs": [],
      "name": "timeLockDuration",
      "outputs": [
        {
          "internalType": "uint256",
          "name": "",
          "type": "uint256"
        }
      ],
      "stateMutability": "view",
      "type": "function"
    },
    {
      "inputs": [],
      "name": "unpause",
      "outputs": [],
      "stateMutability": "nonpayable",
      "type": "function"
    },
    {
      "stateMutability": "payable",
      "type": "receive"
    }
  ],
  "bytecode": "0x60c06040526201518060065534801562000017575f80fd5b506040516200289b3803806200289b8339810160408190526200003a91620003f1565b60017f9b779b17422d0df92223018b32b4d1fa46e071723d6817e2486d003becc55f00558151620000c05760405162461bcd60e51b815260206004820152602560248201527f4d756c746953696757616c6c65743a20656e20617a203120736168697020676560448201526472656b6c6960d81b60648201526084015b60405180910390fd5b5f81118015620000d1575081518111155b8015620000eb57508151620000e8826002620004da565b10155b6200015f5760405162461bcd60e51b815260206004820152603960248201527f4d756c746953696757616c6c65743a20676563657273697a204d20766579612060448201527f4e2064656765726920284d203e3d204e2f3220736172746929000000000000006064820152608401620000b7565b5f5b8251811015620002e0575f838281518110620001815762000181620004fa565b602002602001015190505f6001600160a01b0316816001600160a01b031603620001ee5760405162461bcd60e51b815260206004820152601b60248201527f4d756c746953696757616c6c65743a20736966697220616472657300000000006044820152606401620000b7565b6001600160a01b0381165f9081526020819052604090205460ff16156200026b5760405162461bcd60e51b815260206004820152602a60248201527f4d756c746953696757616c6c65743a207361686970206164726573692074656b6044820152693930b93630b730b6b0bd60b11b6064820152608401620000b7565b6001600160a01b03165f818152602081905260408120805460ff191660019081179091558054808201825591527fb10e2d527612073b26eecdfd717e6a320cf44b4afac2b0732d9fcbe2b7fa0cf60180546001600160a01b031916909117905580620002d7816200050e565b91505062000161565b50600255504660a0818152604080518082018252600e81526d135d5b1d1a54da59d5d85b1b195d60921b6020918201528151808301835260018152603160f81b9082015281517f8b73c3c69bb8fe3d512ecc4cf759cc79239f7b179b0ffacaa9a75d522b39400f818301527fd224391e05bea8df3d0cd26822c30d350d1e6173f271e8862b4f063b01773bec818401527fc89efdaa54c0f20c7adf612882df0950f5a951637e0307cdcb4c672f298b8bc6606082015260808082019590955230818501528251808203909401845260c0019091528151910120905262000529565b634e487b7160e01b5f52604160045260245ffd5b80516001600160a01b0381168114620003ec575f80fd5b919050565b5f806040838503121562000403575f80fd5b82516001600160401b03808211156200041a575f80fd5b818501915085601f8301126200042e575f80fd5b8151602082821115620004455762000445620003c1565b8160051b604051601f19603f830116810181811086821117156200046d576200046d620003c1565b6040529283528183019350848101820192898411156200048b575f80fd5b948201945b83861015620004b457620004a486620003d5565b8552948201949382019362000490565b97909101519698969750505050505050565b634e487b7160e01b5f52601160045260245ffd5b8082028115828204841417620004f457620004f4620004c6565b92915050565b634e487b7160e01b5f52603260045260245ffd5b5f60018201620005225762000522620004c6565b5060010190565b60805160a051612349620005525f395f6118ac01525f8181610382015261061d01526123495ff3fe6080604052600436106101b2575f3560e01c8063784547a7116100e7578063c01a8c8411610087578063d0549b8511610062578063d0549b851461052d578063e20056e614610542578063ee22610b14610561578063ff96df4414610580575f80fd5b8063c01a8c84146104d0578063c6427474146104ef578063cd105b321461050e575f80fd5b80638790c1de116100c25780638790c1de14610442578063a0e67e2b1461047b578063affed0e01461049c578063ba51a6df146104b1575f80fd5b8063784547a7146103f057806378810a3b1461040f5780638456cb591461042e575f80fd5b80632f54bf6e116101525780633644e5151161012d5780633644e515146103715780633f4ba83a146103a45780635c975abb146103b85780637065cb48146103d1575f80fd5b80632f54bf6e146102f157806333ea3dc81461032f5780633408e4701461035f575f80fd5b8063173825d91161018d578063173825d91461027257806319e24d121461029357806320ea8d86146102be5780632e7700f0146102dd575f80fd5b8063025e7c27146101f7578063111343841461023357806312065fe014610260575f80fd5b366101f3576040805134815247602082015233917f90890809c654f11d6e72a28fa60149770a0d11ec6c92319d6ceb2bb0a4ea1a15910160405180910390a2005b5f80fd5b348015610202575f80fd5b50610216610211366004611c98565b610595565b6040516001600160a01b0390911681526020015b60405180910390f35b34801561023e575f80fd5b5061025261024d366004611c98565b6105bd565b60405190815260200161022a565b34801561026b575f80fd5b5047610252565b34801561027d575f80fd5b5061029161028c366004611cca565b61071f565b005b34801561029e575f80fd5b506102526102ad366004611c98565b60056020525f908152604090205481565b3480156102c9575f80fd5b506102916102d8366004611c98565b61091e565b3480156102e8575f80fd5b50600354610252565b3480156102fc575f80fd5b5061031f61030b366004611cca565b5f6020819052908152604090205460ff1681565b604051901515815260200161022a565b34801561033a575f80fd5b5061034e610349366004611c98565b610adb565b60405161022a959493929190611d26565b34801561036a575f80fd5b5046610252565b34801561037c575f80fd5b506102527f000000000000000000000000000000000000000000000000000000000000000081565b3480156103af575f80fd5b50610291610bf6565b3480156103c3575f80fd5b5060085461031f9060ff1681565b3480156103dc575f80fd5b506102916103eb366004611cca565b610cac565b3480156103fb575f80fd5b5061031f61040a366004611c98565b610e6e565b34801561041a575f80fd5b5061031f610429366004611d60565b610ec3565b348015610439575f80fd5b50610291610f14565b34801561044d575f80fd5b5061031f61045c366004611d60565b600460209081525f928352604080842090915290825290205460ff1681565b348015610486575f80fd5b5061048f610fce565b60405161022a9190611d8a565b3480156104a7575f80fd5b5061025260095481565b3480156104bc575f80fd5b506102916104cb366004611c98565b61102e565b3480156104db575f80fd5b506102916104ea366004611c98565b6110da565b3480156104fa575f80fd5b50610252610509366004611dea565b611328565b348015610519575f80fd5b50610291610528366004611c98565b61140c565b348015610538575f80fd5b5061025260025481565b34801561054d575f80fd5b5061029161055c366004611eae565b611466565b34801561056c575f80fd5b5061029161057b366004611c98565b6116da565b34801561058b575f80fd5b5061025260065481565b600181815481106105a4575f80fd5b5f918252602090912001546001600160a01b0316905081565b6003545f90829081106105eb5760405162461bcd60e51b81526004016105e290611ed6565b60405180910390fd5b5f600384815481106105ff576105ff611f1a565b5f9182526020909120600590910201805460018201546040519293507f0000000000000000000000000000000000000000000000000000000000000000927fff7f6369725038dc5cae3c299d1dc292462f576f01405fd379b65be89fe6e0f2926001600160a01b03169190610678906002870190611f60565b6040519081900381206009546106c2959493928b91906020019586526001600160a01b0394909416602086015260408501929092526060840152608083015260a082015260c00190565b604051602081830303815290604052805190602001206040516020016106ff92919061190160f01b81526002810192909252602282015260420190565b604051602081830303815290604052805190602001209250505b50919050565b33301461073e5760405162461bcd60e51b81526004016105e290611fd2565b6001600160a01b0381165f90815260208190526040902054819060ff166107a75760405162461bcd60e51b815260206004820152601e60248201527f4f776e65724d616e616765723a2073616869702062756c756e616d616469000060448201526064016105e2565b6001600160a01b0382165f908152602081905260408120805460ff19169055600154905b6107d660018361202e565b81101561089c57836001600160a01b0316600182815481106107fa576107fa611f1a565b5f918252602090912001546001600160a01b03160361088a57600161081f818461202e565b8154811061082f5761082f611f1a565b5f91825260209091200154600180546001600160a01b03909216918390811061085a5761085a611f1a565b905f5260205f20015f6101000a8154816001600160a01b0302191690836001600160a01b0316021790555061089c565b8061089481612047565b9150506107cb565b5060018054806108ae576108ae61205f565b5f8281526020902081015f1990810180546001600160a01b031916905501905560015460025411156108e6576001546108e69061102e565b6040516001600160a01b038416907f8001553a916ef2f495d26a907cc54d96ed840d7bda71e73194bf5a9df7a76b90905f90a2505050565b60085460ff16156109415760405162461bcd60e51b81526004016105e290612073565b600354819081106109645760405162461bcd60e51b81526004016105e290611ed6565b816003818154811061097857610978611f1a565b5f91825260209091206003600590920201015460ff16156109ab5760405162461bcd60e51b81526004016105e2906120b5565b5f838152600460209081526040808320338452909152902054839060ff16610a215760405162461bcd60e51b815260206004820152602360248201527f5472616e73616374696f6e4d616e616765723a206f6e61792062756c756e616d60448201526261646960e81b60648201526084016105e2565b335f9081526020819052604090205460ff16610a4f5760405162461bcd60e51b81526004016105e2906120fe565b5f8481526004602090815260408083203384529091529020805460ff19169055600380546001919086908110610a8757610a87611f1a565b905f5260205f2090600502016004015f828254610aa4919061202e565b9091555050604051339085907f7f8ce8e4f5a5b480ff78c18404639350996fd63efc83ace55b1d6a3e12158e24905f90a350505050565b5f8060605f80856003805490508110610b065760405162461bcd60e51b81526004016105e290611ed6565b5f60038881548110610b1a57610b1a611f1a565b5f918252602090912060059091020180546001820154600383015460048401546002850180549596506001600160a01b039094169492939260ff909216918390610b6390611f2e565b80601f0160208091040260200160405190810160405280929190818152602001828054610b8f90611f2e565b8015610bda5780601f10610bb157610100808354040283529160200191610bda565b820191905f5260205f20905b815481529060010190602001808311610bbd57829003601f168201915b5050505050925096509650965096509650505091939590929450565b335f9081526020819052604090205460ff16610c245760405162461bcd60e51b81526004016105e2906120fe565b60085460ff16610c765760405162461bcd60e51b815260206004820152601b60248201527f4d756c746953696757616c6c65743a207a6174656e20616b746966000000000060448201526064016105e2565b6008805460ff1916905560405133907ff5cbf596165cc457b2cd92e8d8450827ee314968160a5696402d75766fc52caf905f90a2565b333014610ccb5760405162461bcd60e51b81526004016105e290611fd2565b6001600160a01b0381165f90815260208190526040902054819060ff1615610d315760405162461bcd60e51b815260206004820152601960248201527804f776e65724d616e616765723a207a6174656e20736168697603c1b60448201526064016105e2565b816001600160a01b038116610d845760405162461bcd60e51b81526020600482015260196024820152784f776e65724d616e616765723a20736966697220616472657360381b60448201526064016105e2565b60018054610d9191612142565b6002548015801590610da257508115155b8015610dae5750818111155b8015610dc4575081610dc1826002612155565b10155b610de05760405162461bcd60e51b81526004016105e29061216c565b6001600160a01b0385165f81815260208190526040808220805460ff19166001908117909155805480820182559083527fb10e2d527612073b26eecdfd717e6a320cf44b4afac2b0732d9fcbe2b7fa0cf60180546001600160a01b03191684179055517ff39e6e1eb0edcf53c221607b54b00cd28f3196fed0a24994dc308b8f611b682d9190a25050505050565b6003545f9082908110610e935760405162461bcd60e51b81526004016105e290611ed6565b60025460038481548110610ea957610ea9611f1a565b905f5260205f209060050201600401541015915050919050565b6003545f9083908110610ee85760405162461bcd60e51b81526004016105e290611ed6565b50505f9182526004602090815260408084206001600160a01b0393909316845291905290205460ff1690565b335f9081526020819052604090205460ff16610f425760405162461bcd60e51b81526004016105e2906120fe565b60085460ff1615610f955760405162461bcd60e51b815260206004820181905260248201527f4d756c746953696757616c6c65743a207a6174656e20647572647572756c647560448201526064016105e2565b6008805460ff1916600117905560405133907fb8fad2fa0ed7a383e747c309ef2c4391d7b65592a48893e57ccc1fab70791456905f90a2565b6060600180548060200260200160405190810160405280929190818152602001828054801561102457602002820191905f5260205f20905b81546001600160a01b03168152600190910190602001808311611006575b5050505050905090565b33301461104d5760405162461bcd60e51b81526004016105e290611fd2565b60015481801580159061105f57508115155b801561106b5750818111155b801561108157508161107e826002612155565b10155b61109d5760405162461bcd60e51b81526004016105e29061216c565b60028390556040518381527fa3f1ee9126a074d9326c682f561767f710e927faa811f7a99829d49dc421797a9060200160405180910390a1505050565b6110e2611a6e565b60085460ff16156111055760405162461bcd60e51b81526004016105e290612073565b600354819081106111285760405162461bcd60e51b81526004016105e290611ed6565b816003818154811061113c5761113c611f1a565b5f91825260209091206003600590920201015460ff161561116f5760405162461bcd60e51b81526004016105e2906120b5565b5f838152600460209081526040808320338452909152902054839060ff16156111e65760405162461bcd60e51b8152602060048201526024808201527f5472616e73616374696f6e4d616e616765723a207a6174656e206f6e61796c616044820152636e6d697360e01b60648201526084016105e2565b335f9081526020819052604090205460ff166112145760405162461bcd60e51b81526004016105e2906120fe565b5f8481526004602090815260408083203384529091529020805460ff19166001908117909155600380548690811061124e5761124e611f1a565b905f5260205f2090600502016004015f82825461126b9190612142565b92505081905550336001600160a01b0316847ffc56ac631a1b9d8326c2a92d7c3e87a2bb05dafe8cdead39bcd8fd53291c20c1600387815481106112b1576112b1611f1a565b905f5260205f209060050201600401546040516112d091815260200190565b60405180910390a3600254600385815481106112ee576112ee611f1a565b905f5260205f209060050201600401541061130c5761130c84611a89565b50505061132560015f805160206122f483398151915255565b50565b5f611331611a6e565b60085460ff16156113545760405162461bcd60e51b81526004016105e290612073565b335f9081526020819052604090205460ff166113825760405162461bcd60e51b81526004016105e2906120fe565b6001600160a01b0384166113e25760405162461bcd60e51b815260206004820152602160248201527f4d756c746953696757616c6c65743a20736966697220686564656620616472656044820152607360f81b60648201526084016105e2565b6113ed848484611b16565b905061140560015f805160206122f483398151915255565b9392505050565b33301461142b5760405162461bcd60e51b81526004016105e290611fd2565b60068190556040518181527f9f612377cda61e4cab2ecdcc38839d6e27832dbc0add9b1cbca8aad006c16f4d9060200160405180910390a150565b3330146114855760405162461bcd60e51b81526004016105e290611fd2565b6001600160a01b0382165f90815260208190526040902054829060ff166114ee5760405162461bcd60e51b815260206004820152601e60248201527f4f776e65724d616e616765723a2073616869702062756c756e616d616469000060448201526064016105e2565b6001600160a01b0382165f90815260208190526040902054829060ff16156115545760405162461bcd60e51b815260206004820152601960248201527804f776e65724d616e616765723a207a6174656e20736168697603c1b60448201526064016105e2565b826001600160a01b0381166115a75760405162461bcd60e51b81526020600482015260196024820152784f776e65724d616e616765723a20736966697220616472657360381b60448201526064016105e2565b6001545f5b8181101561164057866001600160a01b0316600182815481106115d1576115d1611f1a565b5f918252602090912001546001600160a01b03160361162e5785600182815481106115fe576115fe611f1a565b905f5260205f20015f6101000a8154816001600160a01b0302191690836001600160a01b03160217905550611640565b8061163881612047565b9150506115ac565b506001600160a01b038087165f81815260208190526040808220805460ff1990811690915593891682528082208054909416600117909355915190917f8001553a916ef2f495d26a907cc54d96ed840d7bda71e73194bf5a9df7a76b9091a26040516001600160a01b038616907ff39e6e1eb0edcf53c221607b54b00cd28f3196fed0a24994dc308b8f611b682d905f90a2505050505050565b6116e2611a6e565b60085460ff16156117055760405162461bcd60e51b81526004016105e290612073565b600354819081106117285760405162461bcd60e51b81526004016105e290611ed6565b816003818154811061173c5761173c611f1a565b5f91825260209091206003600590920201015460ff161561176f5760405162461bcd60e51b81526004016105e2906120b5565b5f83815260076020526040902054839060ff16801561179b57505f818152600560205260409020544210155b6117fc5760405162461bcd60e51b815260206004820152602c60248201527f5472616e73616374696f6e4d616e616765723a2074696d652d6c6f636b20737560448201526b7265736920646f6c6d61646960a01b60648201526084016105e2565b335f9081526020819052604090205460ff1661182a5760405162461bcd60e51b81526004016105e2906120fe565b6002546003858154811061184057611840611f1a565b905f5260205f2090600502016004015410156118aa5760405162461bcd60e51b8152602060048201526024808201527f4d756c746953696757616c6c65743a20796574657273697a206f6e61792073616044820152637969736960e01b60648201526084016105e2565b7f000000000000000000000000000000000000000000000000000000000000000046146119195760405162461bcd60e51b815260206004820152601d60248201527f4d756c746953696757616c6c65743a2079616e6c6973207a696e63697200000060448201526064016105e2565b5f6003858154811061192d5761192d611f1a565b5f918252602082206003600590920201908101805460ff1916600117905560098054919350909161195d83612047565b9091555050805460018201546040515f926001600160a01b03169190611987906002860190611f60565b5f6040518083038185875af1925050503d805f81146119c1576040519150601f19603f3d011682016040523d82523d5f602084013e6119c6565b606091505b5050905080611a275760405162461bcd60e51b815260206004820152602760248201527f4d756c746953696757616c6c65743a2069736c656d2079757275746d6520626160448201526639b0b934b9b4bd60c91b60648201526084016105e2565b604051339087907fff0d827e815551ef359e2272c2751de1c593cdff65e6e59efab752e10e9ef6d2905f90a3505050505061132560015f805160206122f483398151915255565b611a76611c67565b60025f805160206122f483398151915255565b5f8181526007602052604090205460ff16611325575f818152600760205260408120805460ff19166001179055600654611ac39042612142565b5f83815260056020526040908190208290555190915082907fd09d8a4004de7142808df13dd454366f187019080b2fe2d5875f9a84f248b64990611b0a9084815260200190565b60405180910390a25050565b600380546040805160a0810182526001600160a01b038781168252602082018781529282018681525f60608401819052608084018190526001860187559590955281517fc2575a0e9e593c00f959f8c92f12db2869c3395a3b0502d05e2516446f71f85b6005860290810180546001600160a01b0319169290931691909117825592517fc2575a0e9e593c00f959f8c92f12db2869c3395a3b0502d05e2516446f71f85c84015593519293909290917fc2575a0e9e593c00f959f8c92f12db2869c3395a3b0502d05e2516446f71f85d0190611bf29082612217565b50606082015160038201805460ff19169115159190911790556080909101516004909101556040516001600160a01b03851690339083907fb7d255440cb386ffe845e52783c32a06625c034e8a0d98615481af247ed802c390611c5890889088906122d3565b60405180910390a49392505050565b5f805160206122f483398151915254600203611c9657604051633ee5aeb560e01b815260040160405180910390fd5b565b5f60208284031215611ca8575f80fd5b5035919050565b80356001600160a01b0381168114611cc5575f80fd5b919050565b5f60208284031215611cda575f80fd5b61140582611caf565b5f81518084525f5b81811015611d0757602081850181015186830182015201611ceb565b505f602082860101526020601f19601f83011685010191505092915050565b60018060a01b038616815284602082015260a060408201525f611d4c60a0830186611ce3565b931515606083015250608001529392505050565b5f8060408385031215611d71575f80fd5b82359150611d8160208401611caf565b90509250929050565b602080825282518282018190525f9190848201906040850190845b81811015611dca5783516001600160a01b031683529284019291840191600101611da5565b50909695505050505050565b634e487b7160e01b5f52604160045260245ffd5b5f805f60608486031215611dfc575f80fd5b611e0584611caf565b925060208401359150604084013567ffffffffffffffff80821115611e28575f80fd5b818601915086601f830112611e3b575f80fd5b813581811115611e4d57611e4d611dd6565b604051601f8201601f19908116603f01168101908382118183101715611e7557611e75611dd6565b81604052828152896020848701011115611e8d575f80fd5b826020860160208301375f6020848301015280955050505050509250925092565b5f8060408385031215611ebf575f80fd5b611ec883611caf565b9150611d8160208401611caf565b60208082526024908201527f5472616e73616374696f6e4d616e616765723a2069736c656d2062756c756e616040820152636d61646960e01b606082015260800190565b634e487b7160e01b5f52603260045260245ffd5b600181811c90821680611f4257607f821691505b60208210810361071957634e487b7160e01b5f52602260045260245ffd5b5f808354611f6d81611f2e565b60018281168015611f855760018114611f9a57611fc6565b60ff1984168752821515830287019450611fc6565b875f526020805f205f5b85811015611fbd5781548a820152908401908201611fa4565b50505082870194505b50929695505050505050565b60208082526028908201527f4f776e65724d616e616765723a20736164656365206b6f6e747261742063616760408201526734b930b134b634b960c11b606082015260800190565b634e487b7160e01b5f52601160045260245ffd5b818103818111156120415761204161201a565b92915050565b5f600182016120585761205861201a565b5060010190565b634e487b7160e01b5f52603160045260245ffd5b60208082526022908201527f4d756c746953696757616c6c65743a2063757a6364616e20647572647572756c604082015261647560f01b606082015260800190565b60208082526029908201527f5472616e73616374696f6e4d616e616765723a2069736c656d207a6174656e206040820152687975727574756c647560b81b606082015260800190565b60208082526024908201527f4d756c746953696757616c6c65743a207361646563652073616869702063616760408201526334b934b960e11b606082015260800190565b808201808211156120415761204161201a565b80820281158282048414176120415761204161201a565b60208082526037908201527f4f776e65724d616e616765723a20676563657273697a204d2076657961204e2060408201527f64656765726920284d203e3d204e2f3220736172746929000000000000000000606082015260800190565b601f821115612212575f81815260208120601f850160051c810160208610156121ef5750805b601f850160051c820191505b8181101561220e578281556001016121fb565b5050505b505050565b815167ffffffffffffffff81111561223157612231611dd6565b6122458161223f8454611f2e565b846121c9565b602080601f831160018114612278575f84156122615750858301515b5f19600386901b1c1916600185901b17855561220e565b5f85815260208120601f198616915b828110156122a657888601518255948401946001909101908401612287565b50858210156122c357878501515f19600388901b60f8161c191681555b5050505050600190811b01905550565b828152604060208201525f6122eb6040830184611ce3565b94935050505056fe9b779b17422d0df92223018b32b4d1fa46e071723d6817e2486d003becc55f00a2646970667358221220ecc43b532a9bee144267e9340452680812e41a7686c7d4927bd85a238ad614e564736f6c63430008140033",
  "linkReferences": {},
  "deployedLinkReferences": {},
  "immutableReferences": {
    "257": [
      {
        "length": 32,
        "start": 898
      },
      {
        "length": 32,
        "start": 1565
      }
    ],
    "260": [
      {
        "length": 32,
        "start": 6316
      }
    ]
  },
  "inputSourceName": "project/contracts/MultiSigWallet.sol",
  "buildInfoId": "solc-0_8_20-4cbb92970892958cdf33ed0398225e9eb5f2ae53"
}