{
  "_format": "hh3-artifact-1",
  "contractName": "MultiSigWallet",
  "sourceName": "contracts/MultiSigWallet.sol",
  "abi": [
    {
      "inputs": [
        {
          "internalType": "address[]",
          "name": "_owners",
          "type": "address[]"
        },
        {
          "internalType": "uint256",
          "name": "_numConfirmationsRequired",
          "type": "uint256"
        }
      ],
      "stateMutability": "nonpayable",
      "type": "constructor"
    },
    {
      "inputs": [],
      "name": "ReentrancyGuardReentrantCall",
      "type": "error"
    },
    {
      "anonymous": false,
      "inputs": [
        {
          "indexed": true,
          "internalType": "uint256",
          "name": "txIndex",
          "type": "uint256"
        },
        {
          "indexed": true,
          "internalType": "address",
          "name": "confirmer",
          "type": "address"
        },
        {
          "indexed": false,
          "internalType": "uint256",
          "name": "confirmationCount",
          "type": "uint256"
        }
      ],
      "name": "ConfirmTransaction",
      "type": "event"
    },
    {
      "anonymous": false,
      "inputs": [
        {
          "indexed": true,
          "internalType": "address",
          "name": "sender",
          "type": "address"
        },
        {
          "indexed": false,
          "internalType": "uint256",
          "name": "amount",
          "type": "uint256"
        },
        {
          "indexed": false,
          "internalType": "uint256",
          "name": "balance",
          "type": "uint256"
        }
      ],
      "name": "Deposit",
      "type": "event"
    },
    {
      "anonymous": false,
      "inputs": [
        {
          "indexed": true,
          "internalType": "uint256",
          "name": "txIndex",
          "type": "uint256"
        },
        {
          "indexed": true,
          "internalType": "address",
          "name": "executor",
          "type": "address"
        }
      ],
      "name": "ExecuteTransaction",
      "type": "event"
    },
    {
      "anonymous": false,
      "inputs": [
        {
          "indexed": true,
          "internalType": "address",
          "name": "owner",
          "type": "address"
        }
      ],
      "name": "OwnerAddition",
      "type": "event"
    },
    {
      "anonymous": false,
      "inputs": [
        {
          "indexed": true,
          "internalType": "address",
          "name": "owner",
          "type": "address"
        }
      ],
      "name": "OwnerRemoval",
      "type": "event"
    },
    {
      "anonymous": false,
      "inputs": [
        {
          "indexed": false,
          "internalType": "uint256",
          "name": "required",
          "type": "uint256"
        }
      ],
      "name": "RequirementChange",
      "type": "event"
    },
    {
      "anonymous": false,
      "inputs": [
        {
          "indexed": true,
          "internalType": "uint256",
          "name": "txIndex",
          "type": "uint256"
        },
        {
          "indexed": true,
          "internalType": "address",
          "name": "revoker",
          "type": "address"
        }
      ],
      "name": "RevokeConfirmation",
      "type": "event"
    },
    {
      "anonymous": false,
      "inputs": [
        {
          "indexed": true,
          "internalType": "uint256",
          "name": "txIndex",
          "type": "uint256"
        },
        {
          "indexed": true,
          "internalType": "address",
          "name": "submitter",
          "type": "address"
        },
        {
          "indexed": true,
          "internalType": "address",
          "name": "to",
          "type": "address"
        },
        {
          "indexed": false,
          "internalType": "uint256",
          "name": "value",
          "type": "uint256"
        },
        {
          "indexed": false,
          "internalType": "bytes",
          "name": "data",
          "type": "bytes"
        }
      ],
      "name": "SubmitTransaction",
      "type": "event"
    },
    {
      "inputs": [
        {
          "internalType": "address",
          "name": "owner",
          "type": "address"
        }
      ],
      "name": "addOwner",
      "outputs": [],
      "stateMutability": "nonpayable",
      "type": "function"
    },
    {
      "inputs": [
        {
          "internalType": "uint256",
          "name": "_required",
          "type": "uint256"
        }
      ],
      "name": "changeRequirement",
      "outputs": [],
      "stateMutability": "nonpayable",
      "type": "function"
    },
    {
      "inputs": [
        {
          "internalType": "uint256",
          "name": "_txIndex",
          "type": "uint256"
        }
      ],
      "name": "confirmTransaction",
      "outputs": [],
      "stateMutability": "nonpayable",
      "type": "function"
    },
    {
      "inputs": [
        {
          "internalType": "uint256",
          "name": "",
          "type": "uint256"
        },
        {
          "internalType": "address",
          "name": "",
          "type": "address"
        }
      ],
      "name": "confirmed",
      "outputs": [
        {
          "internalType": "bool",
          "name": "",
          "type": "bool"
        }
      ],
      "stateMutability": "view",
      "type": "function"
    },
    {
      "inputs": [
        {
          "internalType": "uint256",
          "name": "_txIndex",
          "type": "uint256"
        }
      ],
      "name": "executeTransaction",
      "outputs": [],
      "stateMutability": "nonpayable",
      "type": "function"
    },
    {
      "inputs": [],
      "name": "getBalance",
      "outputs": [
        {
          "internalType": "uint256",
          "name": "",
          "type": "uint256"
        }
      ],
      "stateMutability": "view",
      "type": "function"
    },
    {
      "inputs": [
        {
          "internalType": "uint256",
          "name": "_txIndex",
          "type": "uint256"
        },
        {
          "internalType": "address",
          "name": "_owner",
          "type": "address"
        }
      ],
      "name": "getConfirmationStatus",
      "outputs": [
        {
          "internalType": "bool",
          "name": "",
          "type": "bool"
        }
      ],
      "stateMutability": "view",
      "type": "function"
    },
    {
      "inputs": [],
      "name": "getOwners",
      "outputs": [
        {
          "internalType": "address[]",
          "name": "",
          "type": "address[]"
        }
      ],
      "stateMutability": "view",
      "type": "function"
    },
    {
      "inputs": [
        {
          "internalType": "uint256",
          "name": "_txIndex",
          "type": "uint256"
        }
      ],
      "name": "getTransaction",
      "outputs": [
        {
          "internalType": "address",
          "name": "to",
          "type": "address"
        },
        {
          "internalType": "uint256",
          "name": "value",
          "type": "uint256"
        },
        {
          "internalType": "bytes",
          "name": "data",
          "type": "bytes"
        },
        {
          "internalType": "bool",
          "name": "executed",
          "type": "bool"
        },
        {
          "internalType": "uint256",
          "name": "numConfirmations",
          "type": "uint256"
        }
      ],
      "stateMutability": "view",
      "type": "function"
    },
    {
      "inputs": [],
      "name": "getTransactionCount",
      "outputs": [
        {
          "internalType": "uint256",
          "name": "",
          "type": "uint256"
        }
      ],
      "stateMutability": "view",
      "type": "function"
    },
    {
      "inputs": [
        {
          "internalType": "uint256",
          "name": "_txIndex",
          "type": "uint256"
        }
      ],
      "name": "isConfirmed",
      "outputs": [
        {
          "internalType": "bool",
          "name": "",
          "type": "bool"
        }
      ],
      "stateMutability": "view",
      "type": "function"
    },
    {
      "inputs": [
        {
          "internalType": "address",
          "name": "",
          "type": "address"
        }
      ],
      "name": "isOwner",
      "outputs": [
        {
          "internalType": "bool",
          "name": "",
          "type": "bool"
        }
      ],
      "stateMutability": "view",
      "type": "function"
    },
    {
      "inputs": [],
      "name": "numConfirmationsRequired",
      "outputs": [
        {
          "internalType": "uint256",
          "name": "",
          "type": "uint256"
        }
      ],
      "stateMutability": "view",
      "type": "function"
    },
    {
      "inputs": [
        {
          "internalType": "uint256",
          "name": "",
          "type": "uint256"
        }
      ],
      "name": "owners",
      "outputs": [
        {
          "internalType": "address",
          "name": "",
          "type": "address"
        }
      ],
      "stateMutability": "view",
      "type": "function"
    },
    {
      "inputs": [
        {
          "internalType": "address",
          "name": "owner",
          "type": "address"
        }
      ],
      "name": "removeOwner",
      "outputs": [],
      "stateMutability": "nonpayable",
      "type": "function"
    },
    {
      "inputs": [
        {
          "internalType": "address",
          "name": "owner",
          "type": "address"
        },
        {
          "internalType": "address",
          "name": "newOwner",
          "type": "address"
        }
      ],
      "name": "replaceOwner",
      "outputs": [],
      "stateMutability": "nonpayable",
      "type": "function"
    },
    {
      "inputs": [
        {
          "internalType": "uint256",
          "name": "_txIndex",
          "type": "uint256"
        }
      ],
      "name": "revokeConfirmation",
      "outputs": [],
      "stateMutability": "nonpayable",
      "type": "function"
    },
    {
      "inputs": [
        {
          "internalType": "address",
          "name": "_to",
          "type": "address"
        },
        {
          "internalType": "uint256",
          "name": "_value",
          "type": "uint256"
        },
        {
          "internalType": "bytes",
          "name": "_data",
          "type": "bytes"
        }
      ],
      "name": "submitTransaction",
      "outputs": [
        {
          "internalType": "uint256",
          "name": "txIndex",
          "type": "uint256"
        }
      ],
      "stateMutability": "nonpayable",
      "type": "function"
    },
    {
      "stateMutability": "payable",
      "type": "receive"
    }
  ],
  "bytecode": "0x608060405234801562000010575f80fd5b506040516200201a3803806200201a833981016040819052620000339162000314565b60017f9b779b17422d0df92223018b32b4d1fa46e071723d6817e2486d003becc55f00558151620000b95760405162461bcd60e51b815260206004820152602560248201527f4d756c746953696757616c6c65743a20656e20617a203120736168697020676560448201526472656b6c6960d81b60648201526084015b60405180910390fd5b5f81118015620000ca575081518111155b8015620000e457508151620000e1826002620003fd565b10155b620001585760405162461bcd60e51b815260206004820152603960248201527f4d756c746953696757616c6c65743a20676563657273697a204d20766579612060448201527f4e2064656765726920284d203e3d204e2f3220736172746929000000000000006064820152608401620000b0565b5f5b8251811015620002d9575f8382815181106200017a576200017a6200041d565b602002602001015190505f6001600160a01b0316816001600160a01b031603620001e75760405162461bcd60e51b815260206004820152601b60248201527f4d756c746953696757616c6c65743a20736966697220616472657300000000006044820152606401620000b0565b6001600160a01b0381165f9081526020819052604090205460ff1615620002645760405162461bcd60e51b815260206004820152602a60248201527f4d756c746953696757616c6c65743a207361686970206164726573692074656b6044820152693930b93630b730b6b0bd60b11b6064820152608401620000b0565b6001600160a01b03165f818152602081905260408120805460ff191660019081179091558054808201825591527fb10e2d527612073b26eecdfd717e6a320cf44b4afac2b0732d9fcbe2b7fa0cf60180546001600160a01b031916909117905580620002d08162000431565b9150506200015a565b50600255506200044c565b634e487b7160e01b5f52604160045260245ffd5b80516001600160a01b03811681146200030f575f80fd5b919050565b5f806040838503121562000326575f80fd5b82516001600160401b03808211156200033d575f80fd5b818501915085601f83011262000351575f80fd5b8151602082821115620003685762000368620002e4565b8160051b604051601f19603f83011681018181108682111715620003905762000390620002e4565b604052928352818301935084810182019289841115620003ae575f80fd5b948201945b83861015620003d757620003c786620002f8565b85529482019493820193620003b3565b97909101519698969750505050505050565b634e487b7160e01b5f52601160045260245ffd5b8082028115828204841417620004175762000417620003e9565b92915050565b634e487b7160e01b5f52603260045260245ffd5b5f60018201620004455762000445620003e9565b5060010190565b611bc0806200045a5f395ff3fe608060405260043610610108575f3560e01c806378810a3b11610092578063c01a8c8411610062578063c01a8c841461033d578063c64274741461035c578063d0549b851461037b578063e20056e614610390578063ee22610b146103af575f80fd5b806378810a3b146102a55780638790c1de146102c4578063a0e67e2b146102fd578063ba51a6df1461031e575f80fd5b80632e7700f0116100d85780632e7700f0146101e55780632f54bf6e146101f957806333ea3dc8146102375780637065cb4814610267578063784547a714610286575f80fd5b8063025e7c271461014d57806312065fe014610189578063173825d9146101a557806320ea8d86146101c6575f80fd5b36610149576040805134815247602082015233917f90890809c654f11d6e72a28fa60149770a0d11ec6c92319d6ceb2bb0a4ea1a15910160405180910390a2005b5f80fd5b348015610158575f80fd5b5061016c610167366004611551565b6103ce565b6040516001600160a01b0390911681526020015b60405180910390f35b348015610194575f80fd5b50475b604051908152602001610180565b3480156101b0575f80fd5b506101c46101bf366004611583565b6103f6565b005b3480156101d1575f80fd5b506101c46101e0366004611551565b6105ff565b3480156101f0575f80fd5b50600354610197565b348015610204575f80fd5b50610227610213366004611583565b5f6020819052908152604090205460ff1681565b6040519015158152602001610180565b348015610242575f80fd5b50610256610251366004611551565b610799565b6040516101809594939291906115df565b348015610272575f80fd5b506101c4610281366004611583565b6108b4565b348015610291575f80fd5b506102276102a0366004611551565b610a76565b3480156102b0575f80fd5b506102276102bf366004611619565b610acc565b3480156102cf575f80fd5b506102276102de366004611619565b600460209081525f928352604080842090915290825290205460ff1681565b348015610308575f80fd5b50610311610b1d565b6040516101809190611643565b348015610329575f80fd5b506101c4610338366004611551565b610b7d565b348015610348575f80fd5b506101c4610357366004611551565b610c29565b348015610367575f80fd5b506101976103763660046116a3565b610e20565b348015610386575f80fd5b5061019760025481565b34801561039b575f80fd5b506101c46103aa366004611767565b610ee1565b3480156103ba575f80fd5b506101c46103c9366004611551565b611153565b600181815481106103dd575f80fd5b5f918252602090912001546001600160a01b0316905081565b33301461041e5760405162461bcd60e51b81526004016104159061178f565b60405180910390fd5b6001600160a01b0381165f90815260208190526040902054819060ff166104875760405162461bcd60e51b815260206004820152601e60248201527f4f776e65724d616e616765723a2073616869702062756c756e616d61646900006044820152606401610415565b6001600160a01b0382165f908152602081905260408120805460ff191690555b600180546104b591906117eb565b81101561057e57826001600160a01b0316600182815481106104d9576104d9611804565b5f918252602090912001546001600160a01b03160361056c57600180546105019082906117eb565b8154811061051157610511611804565b5f91825260209091200154600180546001600160a01b03909216918390811061053c5761053c611804565b905f5260205f20015f6101000a8154816001600160a01b0302191690836001600160a01b0316021790555061057e565b8061057681611818565b9150506104a7565b50600180548061059057610590611830565b5f8281526020902081015f1990810180546001600160a01b031916905501905560015460025411156105c8576001546105c890610b7d565b6040516001600160a01b038316907f8001553a916ef2f495d26a907cc54d96ed840d7bda71e73194bf5a9df7a76b90905f90a25050565b600354819081106106225760405162461bcd60e51b815260040161041590611844565b816003818154811061063657610636611804565b5f91825260209091206003600590920201015460ff16156106695760405162461bcd60e51b815260040161041590611888565b5f838152600460209081526040808320338452909152902054839060ff166106df5760405162461bcd60e51b815260206004820152602360248201527f5472616e73616374696f6e4d616e616765723a206f6e61792062756c756e616d60448201526261646960e81b6064820152608401610415565b335f9081526020819052604090205460ff1661070d5760405162461bcd60e51b8152600401610415906118d1565b5f8481526004602090815260408083203384529091529020805460ff1916905560038054600191908690811061074557610745611804565b905f5260205f2090600502016004015f82825461076291906117eb565b9091555050604051339085907f7f8ce8e4f5a5b480ff78c18404639350996fd63efc83ace55b1d6a3e12158e24905f90a350505050565b5f8060605f808560038054905081106107c45760405162461bcd60e51b815260040161041590611844565b5f600388815481106107d8576107d8611804565b5f918252602090912060059091020180546001820154600383015460048401546002850180549596506001600160a01b039094169492939260ff90921691839061082190611915565b80601f016020809104026020016040519081016040528092919081815260200182805461084d90611915565b80156108985780601f1061086f57610100808354040283529160200191610898565b820191905f5260205f20905b81548152906001019060200180831161087b57829003601f168201915b5050505050925096509650965096509650505091939590929450565b3330146108d35760405162461bcd60e51b81526004016104159061178f565b6001600160a01b0381165f90815260208190526040902054819060ff16156109395760405162461bcd60e51b815260206004820152601960248201527804f776e65724d616e616765723a207a6174656e20736168697603c1b6044820152606401610415565b816001600160a01b03811661098c5760405162461bcd60e51b81526020600482015260196024820152784f776e65724d616e616765723a20736966697220616472657360381b6044820152606401610415565b6001805461099991611947565b60025480158015906109aa57508115155b80156109b65750818111155b80156109cc5750816109c982600261195a565b10155b6109e85760405162461bcd60e51b815260040161041590611971565b6001600160a01b0385165f81815260208190526040808220805460ff19166001908117909155805480820182559083527fb10e2d527612073b26eecdfd717e6a320cf44b4afac2b0732d9fcbe2b7fa0cf60180546001600160a01b03191684179055517ff39e6e1eb0edcf53c221607b54b00cd28f3196fed0a24994dc308b8f611b682d9190a25050505050565b6003545f9082908110610a9b5760405162461bcd60e51b815260040161041590611844565b60025460038481548110610ab157610ab1611804565b905f5260205f20906005020160040154101591505b50919050565b6003545f9083908110610af15760405162461bcd60e51b815260040161041590611844565b50505f9182526004602090815260408084206001600160a01b0393909316845291905290205460ff1690565b60606001805480602002602001604051908101604052809291908181526020018280548015610b7357602002820191905f5260205f20905b81546001600160a01b03168152600190910190602001808311610b55575b5050505050905090565b333014610b9c5760405162461bcd60e51b81526004016104159061178f565b600154818015801590610bae57508115155b8015610bba5750818111155b8015610bd0575081610bcd82600261195a565b10155b610bec5760405162461bcd60e51b815260040161041590611971565b60028390556040518381527fa3f1ee9126a074d9326c682f561767f710e927faa811f7a99829d49dc421797a9060200160405180910390a1505050565b610c316113b4565b60035481908110610c545760405162461bcd60e51b815260040161041590611844565b8160038181548110610c6857610c68611804565b5f91825260209091206003600590920201015460ff1615610c9b5760405162461bcd60e51b815260040161041590611888565b5f838152600460209081526040808320338452909152902054839060ff1615610d125760405162461bcd60e51b8152602060048201526024808201527f5472616e73616374696f6e4d616e616765723a207a6174656e206f6e61796c616044820152636e6d697360e01b6064820152608401610415565b335f9081526020819052604090205460ff16610d405760405162461bcd60e51b8152600401610415906118d1565b5f8481526004602090815260408083203384529091529020805460ff191660019081179091556003805486908110610d7a57610d7a611804565b905f5260205f2090600502016004015f828254610d979190611947565b92505081905550336001600160a01b0316847ffc56ac631a1b9d8326c2a92d7c3e87a2bb05dafe8cdead39bcd8fd53291c20c160038781548110610ddd57610ddd611804565b905f5260205f20906005020160040154604051610dfc91815260200190565b60405180910390a3505050610e1d60015f80516020611b6b83398151915255565b50565b5f610e296113b4565b335f9081526020819052604090205460ff16610e575760405162461bcd60e51b8152600401610415906118d1565b6001600160a01b038416610eb75760405162461bcd60e51b815260206004820152602160248201527f4d756c746953696757616c6c65743a20736966697220686564656620616472656044820152607360f81b6064820152608401610415565b610ec28484846113cf565b9050610eda60015f80516020611b6b83398151915255565b9392505050565b333014610f005760405162461bcd60e51b81526004016104159061178f565b6001600160a01b0382165f90815260208190526040902054829060ff16610f695760405162461bcd60e51b815260206004820152601e60248201527f4f776e65724d616e616765723a2073616869702062756c756e616d61646900006044820152606401610415565b6001600160a01b0382165f90815260208190526040902054829060ff1615610fcf5760405162461bcd60e51b815260206004820152601960248201527804f776e65724d616e616765723a207a6174656e20736168697603c1b6044820152606401610415565b826001600160a01b0381166110225760405162461bcd60e51b81526020600482015260196024820152784f776e65724d616e616765723a20736966697220616472657360381b6044820152606401610415565b5f5b6001548110156110ba57856001600160a01b03166001828154811061104b5761104b611804565b5f918252602090912001546001600160a01b0316036110a857846001828154811061107857611078611804565b905f5260205f20015f6101000a8154816001600160a01b0302191690836001600160a01b031602179055506110ba565b806110b281611818565b915050611024565b506001600160a01b038086165f81815260208190526040808220805460ff1990811690915593881682528082208054909416600117909355915190917f8001553a916ef2f495d26a907cc54d96ed840d7bda71e73194bf5a9df7a76b9091a26040516001600160a01b038516907ff39e6e1eb0edcf53c221607b54b00cd28f3196fed0a24994dc308b8f611b682d905f90a25050505050565b61115b6113b4565b6003548190811061117e5760405162461bcd60e51b815260040161041590611844565b816003818154811061119257611192611804565b5f91825260209091206003600590920201015460ff16156111c55760405162461bcd60e51b815260040161041590611888565b335f9081526020819052604090205460ff166111f35760405162461bcd60e51b8152600401610415906118d1565b6002546003848154811061120957611209611804565b905f5260205f2090600502016004015410156112735760405162461bcd60e51b8152602060048201526024808201527f4d756c746953696757616c6c65743a20796574657273697a206f6e61792073616044820152637969736960e01b6064820152608401610415565b5f6003848154811061128757611287611804565b5f918252602082206003600590920201908101805460ff191660019081179091558154908201546040519294506001600160a01b03909116916112ce9060028601906119ce565b5f6040518083038185875af1925050503d805f8114611308576040519150601f19603f3d011682016040523d82523d5f602084013e61130d565b606091505b505090508061136e5760405162461bcd60e51b815260206004820152602760248201527f4d756c746953696757616c6c65743a2069736c656d2079757275746d6520626160448201526639b0b934b9b4bd60c91b6064820152608401610415565b604051339086907fff0d827e815551ef359e2272c2751de1c593cdff65e6e59efab752e10e9ef6d2905f90a350505050610e1d60015f80516020611b6b83398151915255565b6113bc611520565b60025f80516020611b6b83398151915255565b600380546040805160a0810182526001600160a01b038781168252602082018781529282018681525f60608401819052608084018190526001860187559590955281517fc2575a0e9e593c00f959f8c92f12db2869c3395a3b0502d05e2516446f71f85b6005860290810180546001600160a01b0319169290931691909117825592517fc2575a0e9e593c00f959f8c92f12db2869c3395a3b0502d05e2516446f71f85c84015593519293909290917fc2575a0e9e593c00f959f8c92f12db2869c3395a3b0502d05e2516446f71f85d01906114ab9082611a8e565b50606082015160038201805460ff19169115159190911790556080909101516004909101556040516001600160a01b03851690339083907fb7d255440cb386ffe845e52783c32a06625c034e8a0d98615481af247ed802c3906115119088908890611b4a565b60405180910390a49392505050565b5f80516020611b6b8339815191525460020361154f57604051633ee5aeb560e01b815260040160405180910390fd5b565b5f60208284031215611561575f80fd5b5035919050565b80356001600160a01b038116811461157e575f80fd5b919050565b5f60208284031215611593575f80fd5b610eda82611568565b5f81518084525f5b818110156115c0576020818501810151868301820152016115a4565b505f602082860101526020601f19601f83011685010191505092915050565b60018060a01b038616815284602082015260a060408201525f61160560a083018661159c565b931515606083015250608001529392505050565b5f806040838503121561162a575f80fd5b8235915061163a60208401611568565b90509250929050565b602080825282518282018190525f9190848201906040850190845b818110156116835783516001600160a01b03168352928401929184019160010161165e565b50909695505050505050565b634e487b7160e01b5f52604160045260245ffd5b5f805f606084860312156116b5575f80fd5b6116be84611568565b925060208401359150604084013567ffffffffffffffff808211156116e1575f80fd5b818601915086601f8301126116f4575f80fd5b8135818111156117065761170661168f565b604051601f8201601f19908116603f0116810190838211818310171561172e5761172e61168f565b81604052828152896020848701011115611746575f80fd5b826020860160208301375f6020848301015280955050505050509250925092565b5f8060408385031215611778575f80fd5b61178183611568565b915061163a60208401611568565b60208082526028908201527f4f776e65724d616e616765723a20736164656365206b6f6e747261742063616760408201526734b930b134b634b960c11b606082015260800190565b634e487b7160e01b5f52601160045260245ffd5b818103818111156117fe576117fe6117d7565b92915050565b634e487b7160e01b5f52603260045260245ffd5b5f60018201611829576118296117d7565b5060010190565b634e487b7160e01b5f52603160045260245ffd5b60208082526024908201527f5472616e73616374696f6e4d616e616765723a2069736c656d2062756c756e616040820152636d61646960e01b606082015260800190565b60208082526029908201527f5472616e73616374696f6e4d616e616765723a2069736c656d207a6174656e206040820152687975727574756c647560b81b606082015260800190565b60208082526024908201527f4d756c746953696757616c6c65743a207361646563652073616869702063616760408201526334b934b960e11b606082015260800190565b600181811c9082168061192957607f821691505b602082108103610ac657634e487b7160e01b5f52602260045260245ffd5b808201808211156117fe576117fe6117d7565b80820281158282048414176117fe576117fe6117d7565b60208082526037908201527f4f776e65724d616e616765723a20676563657273697a204d2076657961204e2060408201527f64656765726920284d203e3d204e2f3220736172746929000000000000000000606082015260800190565b5f8083546119db81611915565b600182811680156119f35760018114611a0857611a34565b60ff1984168752821515830287019450611a34565b875f526020805f205f5b85811015611a2b5781548a820152908401908201611a12565b50505082870194505b50929695505050505050565b601f821115611a89575f81815260208120601f850160051c81016020861015611a665750805b601f850160051c820191505b81811015611a8557828155600101611a72565b5050505b505050565b815167ffffffffffffffff811115611aa857611aa861168f565b611abc81611ab68454611915565b84611a40565b602080601f831160018114611aef575f8415611ad85750858301515b5f19600386901b1c1916600185901b178555611a85565b5f85815260208120601f198616915b82811015611b1d57888601518255948401946001909101908401611afe565b5085821015611b3a57878501515f19600388901b60f8161c191681555b5050505050600190811b01905550565b828152604060208201525f611b62604083018461159c565b94935050505056fe9b779b17422d0df92223018b32b4d1fa46e071723d6817e2486d003becc55f00a2646970667358221220e0e337c6bba54a09b25280578282d2da56b5118d0a225728366c39cc20ebf52f64736f6c63430008140033",
  "linkReferences": {},
  "deployedLinkReferences": {},
  "immutableReferences": {},
  "inputSourceName": "project/contracts/MultiSigWallet.sol",
  "buildInfoId": "solc-0_8_20-952b2b0e77c6f64bf06d70091e5aa3eaaca531ae"
}